{
  "_format": "hh-sol-artifact-1",
  "contractName": "MintingFactory",
  "sourceName": "contracts/NFTMarketplace/MintingAndStorage/MintingFactory.sol",
  "abi": [
    {
      "inputs": [
        {
          "internalType": "address",
          "name": "",
          "type": "address"
        },
        {
          "internalType": "uint256",
          "name": "",
          "type": "uint256"
        }
      ],
      "name": "allContracts",
      "outputs": [
        {
          "internalType": "contract NFTContract",
          "name": "",
          "type": "address"
        }
      ],
      "stateMutability": "view",
      "type": "function"
    },
    {
      "inputs": [
        {
          "internalType": "uint256",
          "name": "",
          "type": "uint256"
        }
      ],
      "name": "allNFTContracts",
      "outputs": [
        {
          "internalType": "contract NFTContract",
          "name": "",
          "type": "address"
        }
      ],
      "stateMutability": "view",
      "type": "function"
    },
    {
      "inputs": [
        {
          "internalType": "string",
          "name": "_name",
          "type": "string"
        },
        {
          "internalType": "string",
          "name": "_symbol",
          "type": "string"
        }
      ],
      "name": "createNFTContract",
      "outputs": [
        {
          "internalType": "contract NFTContract",
          "name": "_nftcontract",
          "type": "address"
        }
      ],
      "stateMutability": "nonpayable",
      "type": "function"
    },
    {
      "inputs": [
        {
          "internalType": "address",
          "name": "user",
          "type": "address"
        }
      ],
      "name": "getAllContracts",
      "outputs": [
        {
          "internalType": "contract NFTContract[]",
          "name": "",
          "type": "address[]"
        }
      ],
      "stateMutability": "nonpayable",
      "type": "function"
    }
  ],
  "bytecode": "0x608060405234801561001057600080fd5b5061401b806100206000396000f3fe60806040523480156200001157600080fd5b5060043610620000525760003560e01c806314d76ffc146200005757806383c35652146200008d5780639d0c7b4214620000c3578063e159aafd14620000f9575b600080fd5b6200007560048036038101906200006f9190620004f5565b6200012f565b6040516200008491906200069f565b60405180910390f35b620000ab6004803603810190620000a5919062000488565b6200027c565b604051620000ba91906200067b565b60405180910390f35b620000e16004803603810190620000db919062000568565b6200034b565b604051620000f091906200069f565b60405180910390f35b620001176004803603810190620001119190620004b4565b6200038b565b6040516200012691906200069f565b60405180910390f35b60008083836040516200014290620003da565b6200014f929190620006bc565b604051809103906000f0801580156200016c573d6000803e3d6000fd5b5090506000819080600181540180825580915050600190039060005260206000200160009091909190916101000a81548173ffffffffffffffffffffffffffffffffffffffff021916908373ffffffffffffffffffffffffffffffffffffffff160217905550600160003373ffffffffffffffffffffffffffffffffffffffff1673ffffffffffffffffffffffffffffffffffffffff168152602001908152602001600020819080600181540180825580915050600190039060005260206000200160009091909190916101000a81548173ffffffffffffffffffffffffffffffffffffffff021916908373ffffffffffffffffffffffffffffffffffffffff1602179055508091505092915050565b6060600160008373ffffffffffffffffffffffffffffffffffffffff1673ffffffffffffffffffffffffffffffffffffffff1681526020019081526020016000208054806020026020016040519081016040528092919081815260200182805480156200033f57602002820191906000526020600020905b8160009054906101000a900473ffffffffffffffffffffffffffffffffffffffff1673ffffffffffffffffffffffffffffffffffffffff1681526020019060010190808311620002f4575b50505050509050919050565b600081815481106200035c57600080fd5b906000526020600020016000915054906101000a900473ffffffffffffffffffffffffffffffffffffffff1681565b60016020528160005260406000208181548110620003a857600080fd5b906000526020600020016000915091509054906101000a900473ffffffffffffffffffffffffffffffffffffffff1681565b6136e5806200090183390190565b6000620003ff620003f98462000720565b620006f7565b9050828152602081018484840111156200041857600080fd5b6200042584828562000811565b509392505050565b6000813590506200043e81620008cc565b92915050565b600082601f8301126200045657600080fd5b813562000468848260208601620003e8565b91505092915050565b6000813590506200048281620008e6565b92915050565b6000602082840312156200049b57600080fd5b6000620004ab848285016200042d565b91505092915050565b60008060408385031215620004c857600080fd5b6000620004d8858286016200042d565b9250506020620004eb8582860162000471565b9150509250929050565b600080604083850312156200050957600080fd5b600083013567ffffffffffffffff8111156200052457600080fd5b620005328582860162000444565b925050602083013567ffffffffffffffff8111156200055057600080fd5b6200055e8582860162000444565b9150509250929050565b6000602082840312156200057b57600080fd5b60006200058b8482850162000471565b91505092915050565b6000620005a2838362000618565b60208301905092915050565b6000620005bb8262000766565b620005c7818562000789565b9350620005d48362000756565b8060005b838110156200060b578151620005ef888262000594565b9750620005fc836200077c565b925050600181019050620005d8565b5085935050505092915050565b6200062381620007e9565b82525050565b6200063481620007e9565b82525050565b6000620006478262000771565b6200065381856200079a565b93506200066581856020860162000820565b6200067081620008bb565b840191505092915050565b60006020820190508181036000830152620006978184620005ae565b905092915050565b6000602082019050620006b6600083018462000629565b92915050565b60006040820190508181036000830152620006d881856200063a565b90508181036020830152620006ee81846200063a565b90509392505050565b60006200070362000716565b905062000711828262000856565b919050565b6000604051905090565b600067ffffffffffffffff8211156200073e576200073d6200088c565b5b6200074982620008bb565b9050602081019050919050565b6000819050602082019050919050565b600081519050919050565b600081519050919050565b6000602082019050919050565b600082825260208201905092915050565b600082825260208201905092915050565b6000620007b882620007bf565b9050919050565b600073ffffffffffffffffffffffffffffffffffffffff82169050919050565b6000819050919050565b6000620007f682620007fd565b9050919050565b60006200080a82620007bf565b9050919050565b82818337600083830152505050565b60005b838110156200084057808201518184015260208101905062000823565b8381111562000850576000848401525b50505050565b6200086182620008bb565b810181811067ffffffffffffffff821117156200088357620008826200088c565b5b80604052505050565b7f4e487b7100000000000000000000000000000000000000000000000000000000600052604160045260246000fd5b6000601f19601f8301169050919050565b620008d781620007ab565b8114620008e357600080fd5b50565b620008f181620007df565b8114620008fd57600080fd5b5056fe60806040523480156200001157600080fd5b50604051620036e5380380620036e583398181016040528101906200003791906200039c565b81818160009080519060200190620000519291906200027a565b5080600190805190602001906200006a9291906200027a565b5050506200008d62000081620000e060201b60201c565b620000e860201b60201c565b620000d86040518060400160405280601e81526020017f5468697320697320616e204e465420636f6e74726163742e2057686f61210000815250620001ae60201b62000df21760201c565b505062000600565b600033905090565b6000600760009054906101000a900473ffffffffffffffffffffffffffffffffffffffff16905081600760006101000a81548173ffffffffffffffffffffffffffffffffffffffff021916908373ffffffffffffffffffffffffffffffffffffffff1602179055508173ffffffffffffffffffffffffffffffffffffffff168173ffffffffffffffffffffffffffffffffffffffff167f8be0079c531659141344cd1fd0a4f28419497f9722a3daafe3b4186f6b6457e060405160405180910390a35050565b6200024e81604051602401620001c5919062000450565b6040516020818303038152906040527f41304fac000000000000000000000000000000000000000000000000000000007bffffffffffffffffffffffffffffffffffffffffffffffffffffffff19166020820180517bffffffffffffffffffffffffffffffffffffffffffffffffffffffff83818316178352505050506200025160201b60201c565b50565b60008151905060006a636f6e736f6c652e6c6f679050602083016000808483855afa5050505050565b828054620002889062000525565b90600052602060002090601f016020900481019282620002ac5760008555620002f8565b82601f10620002c757805160ff1916838001178555620002f8565b82800160010185558215620002f8579182015b82811115620002f7578251825591602001919060010190620002da565b5b5090506200030791906200030b565b5090565b5b80821115620003265760008160009055506001016200030c565b5090565b6000620003416200033b846200049d565b62000474565b9050828152602081018484840111156200035a57600080fd5b62000367848285620004ef565b509392505050565b600082601f8301126200038157600080fd5b8151620003938482602086016200032a565b91505092915050565b60008060408385031215620003b057600080fd5b600083015167ffffffffffffffff811115620003cb57600080fd5b620003d9858286016200036f565b925050602083015167ffffffffffffffff811115620003f757600080fd5b62000405858286016200036f565b9150509250929050565b60006200041c82620004d3565b620004288185620004de565b93506200043a818560208601620004ef565b6200044581620005ef565b840191505092915050565b600060208201905081810360008301526200046c81846200040f565b905092915050565b60006200048062000493565b90506200048e82826200055b565b919050565b6000604051905090565b600067ffffffffffffffff821115620004bb57620004ba620005c0565b5b620004c682620005ef565b9050602081019050919050565b600081519050919050565b600082825260208201905092915050565b60005b838110156200050f578082015181840152602081019050620004f2565b838111156200051f576000848401525b50505050565b600060028204905060018216806200053e57607f821691505b6020821081141562000555576200055462000591565b5b50919050565b6200056682620005ef565b810181811067ffffffffffffffff82111715620005885762000587620005c0565b5b80604052505050565b7f4e487b7100000000000000000000000000000000000000000000000000000000600052602260045260246000fd5b7f4e487b7100000000000000000000000000000000000000000000000000000000600052604160045260246000fd5b6000601f19601f8301169050919050565b6130d580620006106000396000f3fe608060405234801561001057600080fd5b506004361061010b5760003560e01c806370a08231116100a2578063a22cb46511610071578063a22cb465146102b8578063b88d4fde146102d4578063c87b56dd146102f0578063e985e9c514610320578063f2fde38b146103505761010b565b806370a0823114610242578063715018a6146102725780638da5cb5b1461027c57806395d89b411461029a5761010b565b806323b872dd116100de57806323b872dd146101aa5780633157631f146101c657806342842e0e146101f65780636352211e146102125761010b565b806301ffc9a71461011057806306fdde0314610140578063081812fc1461015e578063095ea7b31461018e575b600080fd5b61012a60048036038101906101259190612043565b61036c565b60405161013791906124d0565b60405180910390f35b61014861044e565b60405161015591906124eb565b60405180910390f35b610178600480360381019061017391906120d6565b6104e0565b6040516101859190612469565b60405180910390f35b6101a860048036038101906101a39190612007565b610565565b005b6101c460048036038101906101bf9190611f01565b61067d565b005b6101e060048036038101906101db9190612095565b6106dd565b6040516101ed919061274d565b60405180910390f35b610210600480360381019061020b9190611f01565b6107ce565b005b61022c600480360381019061022791906120d6565b6107ee565b6040516102399190612469565b60405180910390f35b61025c60048036038101906102579190611e9c565b6108a0565b604051610269919061274d565b60405180910390f35b61027a610958565b005b6102846109e0565b6040516102919190612469565b60405180910390f35b6102a2610a0a565b6040516102af91906124eb565b60405180910390f35b6102d260048036038101906102cd9190611fcb565b610a9c565b005b6102ee60048036038101906102e99190611f50565b610ab2565b005b61030a600480360381019061030591906120d6565b610b14565b60405161031791906124eb565b60405180910390f35b61033a60048036038101906103359190611ec5565b610c66565b60405161034791906124d0565b60405180910390f35b61036a60048036038101906103659190611e9c565b610cfa565b005b60007f80ac58cd000000000000000000000000000000000000000000000000000000007bffffffffffffffffffffffffffffffffffffffffffffffffffffffff1916827bffffffffffffffffffffffffffffffffffffffffffffffffffffffff1916148061043757507f5b5e139f000000000000000000000000000000000000000000000000000000007bffffffffffffffffffffffffffffffffffffffffffffffffffffffff1916827bffffffffffffffffffffffffffffffffffffffffffffffffffffffff1916145b80610447575061044682610e8b565b5b9050919050565b60606000805461045d906129a3565b80601f0160208091040260200160405190810160405280929190818152602001828054610489906129a3565b80156104d65780601f106104ab576101008083540402835291602001916104d6565b820191906000526020600020905b8154815290600101906020018083116104b957829003601f168201915b5050505050905090565b60006104eb82610ef5565b61052a576040517f08c379a0000000000000000000000000000000000000000000000000000000008152600401610521906126ad565b60405180910390fd5b6004600083815260200190815260200160002060009054906101000a900473ffffffffffffffffffffffffffffffffffffffff169050919050565b6000610570826107ee565b90508073ffffffffffffffffffffffffffffffffffffffff168373ffffffffffffffffffffffffffffffffffffffff1614156105e1576040517f08c379a00000000000000000000000000000000000000000000000000000000081526004016105d89061270d565b60405180910390fd5b8073ffffffffffffffffffffffffffffffffffffffff16610600610f61565b73ffffffffffffffffffffffffffffffffffffffff16148061062f575061062e81610629610f61565b610c66565b5b61066e576040517f08c379a0000000000000000000000000000000000000000000000000000000008152600401610665906125ed565b60405180910390fd5b6106788383610f69565b505050565b61068e610688610f61565b82611022565b6106cd576040517f08c379a00000000000000000000000000000000000000000000000000000000081526004016106c49061272d565b60405180910390fd5b6106d8838383611100565b505050565b60006106e7610f61565b73ffffffffffffffffffffffffffffffffffffffff166107056109e0565b73ffffffffffffffffffffffffffffffffffffffff161461075b576040517f08c379a0000000000000000000000000000000000000000000000000000000008152600401610752906126cd565b60405180910390fd5b6107656008611367565b6000610771600861137d565b905061077d338261138b565b6107878184611565565b6107c56040518060400160405280600e81526020017f4e6577204e4654206d696e746564000000000000000000000000000000000000815250610df2565b80915050919050565b6107e983838360405180602001604052806000815250610ab2565b505050565b6000806002600084815260200190815260200160002060009054906101000a900473ffffffffffffffffffffffffffffffffffffffff169050600073ffffffffffffffffffffffffffffffffffffffff168173ffffffffffffffffffffffffffffffffffffffff161415610897576040517f08c379a000000000000000000000000000000000000000000000000000000000815260040161088e9061262d565b60405180910390fd5b80915050919050565b60008073ffffffffffffffffffffffffffffffffffffffff168273ffffffffffffffffffffffffffffffffffffffff161415610911576040517f08c379a00000000000000000000000000000000000000000000000000000000081526004016109089061260d565b60405180910390fd5b600360008373ffffffffffffffffffffffffffffffffffffffff1673ffffffffffffffffffffffffffffffffffffffff168152602001908152602001600020549050919050565b610960610f61565b73ffffffffffffffffffffffffffffffffffffffff1661097e6109e0565b73ffffffffffffffffffffffffffffffffffffffff16146109d4576040517f08c379a00000000000000000000000000000000000000000000000000000000081526004016109cb906126cd565b60405180910390fd5b6109de60006115d9565b565b6000600760009054906101000a900473ffffffffffffffffffffffffffffffffffffffff16905090565b606060018054610a19906129a3565b80601f0160208091040260200160405190810160405280929190818152602001828054610a45906129a3565b8015610a925780601f10610a6757610100808354040283529160200191610a92565b820191906000526020600020905b815481529060010190602001808311610a7557829003601f168201915b5050505050905090565b610aae610aa7610f61565b838361169f565b5050565b610ac3610abd610f61565b83611022565b610b02576040517f08c379a0000000000000000000000000000000000000000000000000000000008152600401610af99061272d565b60405180910390fd5b610b0e8484848461180c565b50505050565b6060610b1f82610ef5565b610b5e576040517f08c379a0000000000000000000000000000000000000000000000000000000008152600401610b559061268d565b60405180910390fd5b6000600660008481526020019081526020016000208054610b7e906129a3565b80601f0160208091040260200160405190810160405280929190818152602001828054610baa906129a3565b8015610bf75780601f10610bcc57610100808354040283529160200191610bf7565b820191906000526020600020905b815481529060010190602001808311610bda57829003601f168201915b505050505090506000610c08611868565b9050600081511415610c1e578192505050610c61565b600082511115610c53578082604051602001610c3b929190612445565b60405160208183030381529060405292505050610c61565b610c5c8461187f565b925050505b919050565b6000600560008473ffffffffffffffffffffffffffffffffffffffff1673ffffffffffffffffffffffffffffffffffffffff16815260200190815260200160002060008373ffffffffffffffffffffffffffffffffffffffff1673ffffffffffffffffffffffffffffffffffffffff16815260200190815260200160002060009054906101000a900460ff16905092915050565b610d02610f61565b73ffffffffffffffffffffffffffffffffffffffff16610d206109e0565b73ffffffffffffffffffffffffffffffffffffffff1614610d76576040517f08c379a0000000000000000000000000000000000000000000000000000000008152600401610d6d906126cd565b60405180910390fd5b600073ffffffffffffffffffffffffffffffffffffffff168173ffffffffffffffffffffffffffffffffffffffff161415610de6576040517f08c379a0000000000000000000000000000000000000000000000000000000008152600401610ddd9061252d565b60405180910390fd5b610def816115d9565b50565b610e8881604051602401610e0691906124eb565b6040516020818303038152906040527f41304fac000000000000000000000000000000000000000000000000000000007bffffffffffffffffffffffffffffffffffffffffffffffffffffffff19166020820180517bffffffffffffffffffffffffffffffffffffffffffffffffffffffff8381831617835250505050611926565b50565b60007f01ffc9a7000000000000000000000000000000000000000000000000000000007bffffffffffffffffffffffffffffffffffffffffffffffffffffffff1916827bffffffffffffffffffffffffffffffffffffffffffffffffffffffff1916149050919050565b60008073ffffffffffffffffffffffffffffffffffffffff166002600084815260200190815260200160002060009054906101000a900473ffffffffffffffffffffffffffffffffffffffff1673ffffffffffffffffffffffffffffffffffffffff1614159050919050565b600033905090565b816004600083815260200190815260200160002060006101000a81548173ffffffffffffffffffffffffffffffffffffffff021916908373ffffffffffffffffffffffffffffffffffffffff160217905550808273ffffffffffffffffffffffffffffffffffffffff16610fdc836107ee565b73ffffffffffffffffffffffffffffffffffffffff167f8c5be1e5ebec7d5bd14f71427d1e84f3dd0314c0f7b2291e5b200ac8c7c3b92560405160405180910390a45050565b600061102d82610ef5565b61106c576040517f08c379a0000000000000000000000000000000000000000000000000000000008152600401611063906125cd565b60405180910390fd5b6000611077836107ee565b90508073ffffffffffffffffffffffffffffffffffffffff168473ffffffffffffffffffffffffffffffffffffffff1614806110e657508373ffffffffffffffffffffffffffffffffffffffff166110ce846104e0565b73ffffffffffffffffffffffffffffffffffffffff16145b806110f757506110f68185610c66565b5b91505092915050565b8273ffffffffffffffffffffffffffffffffffffffff16611120826107ee565b73ffffffffffffffffffffffffffffffffffffffff1614611176576040517f08c379a000000000000000000000000000000000000000000000000000000000815260040161116d9061254d565b60405180910390fd5b600073ffffffffffffffffffffffffffffffffffffffff168273ffffffffffffffffffffffffffffffffffffffff1614156111e6576040517f08c379a00000000000000000000000000000000000000000000000000000000081526004016111dd9061258d565b60405180910390fd5b6111f183838361194f565b6111fc600082610f69565b6001600360008573ffffffffffffffffffffffffffffffffffffffff1673ffffffffffffffffffffffffffffffffffffffff168152602001908152602001600020600082825461124c91906128b9565b925050819055506001600360008473ffffffffffffffffffffffffffffffffffffffff1673ffffffffffffffffffffffffffffffffffffffff16815260200190815260200160002060008282546112a39190612832565b92505081905550816002600083815260200190815260200160002060006101000a81548173ffffffffffffffffffffffffffffffffffffffff021916908373ffffffffffffffffffffffffffffffffffffffff160217905550808273ffffffffffffffffffffffffffffffffffffffff168473ffffffffffffffffffffffffffffffffffffffff167fddf252ad1be2c89b69c2b068fc378daa952ba7f163c4a11628f55a4df523b3ef60405160405180910390a4611362838383611954565b505050565b6001816000016000828254019250508190555050565b600081600001549050919050565b600073ffffffffffffffffffffffffffffffffffffffff168273ffffffffffffffffffffffffffffffffffffffff1614156113fb576040517f08c379a00000000000000000000000000000000000000000000000000000000081526004016113f29061266d565b60405180910390fd5b61140481610ef5565b15611444576040517f08c379a000000000000000000000000000000000000000000000000000000000815260040161143b9061256d565b60405180910390fd5b6114506000838361194f565b6001600360008473ffffffffffffffffffffffffffffffffffffffff1673ffffffffffffffffffffffffffffffffffffffff16815260200190815260200160002060008282546114a09190612832565b92505081905550816002600083815260200190815260200160002060006101000a81548173ffffffffffffffffffffffffffffffffffffffff021916908373ffffffffffffffffffffffffffffffffffffffff160217905550808273ffffffffffffffffffffffffffffffffffffffff16600073ffffffffffffffffffffffffffffffffffffffff167fddf252ad1be2c89b69c2b068fc378daa952ba7f163c4a11628f55a4df523b3ef60405160405180910390a461156160008383611954565b5050565b61156e82610ef5565b6115ad576040517f08c379a00000000000000000000000000000000000000000000000000000000081526004016115a49061264d565b60405180910390fd5b806006600084815260200190815260200160002090805190602001906115d4929190611cc0565b505050565b6000600760009054906101000a900473ffffffffffffffffffffffffffffffffffffffff16905081600760006101000a81548173ffffffffffffffffffffffffffffffffffffffff021916908373ffffffffffffffffffffffffffffffffffffffff1602179055508173ffffffffffffffffffffffffffffffffffffffff168173ffffffffffffffffffffffffffffffffffffffff167f8be0079c531659141344cd1fd0a4f28419497f9722a3daafe3b4186f6b6457e060405160405180910390a35050565b8173ffffffffffffffffffffffffffffffffffffffff168373ffffffffffffffffffffffffffffffffffffffff16141561170e576040517f08c379a0000000000000000000000000000000000000000000000000000000008152600401611705906125ad565b60405180910390fd5b80600560008573ffffffffffffffffffffffffffffffffffffffff1673ffffffffffffffffffffffffffffffffffffffff16815260200190815260200160002060008473ffffffffffffffffffffffffffffffffffffffff1673ffffffffffffffffffffffffffffffffffffffff16815260200190815260200160002060006101000a81548160ff0219169083151502179055508173ffffffffffffffffffffffffffffffffffffffff168373ffffffffffffffffffffffffffffffffffffffff167f17307eab39ab6107e8899845ad3d59bd9653f200f220920489ca2b5937696c31836040516117ff91906124d0565b60405180910390a3505050565b611817848484611100565b61182384848484611959565b611862576040517f08c379a00000000000000000000000000000000000000000000000000000000081526004016118599061250d565b60405180910390fd5b50505050565b606060405180602001604052806000815250905090565b606061188a82610ef5565b6118c9576040517f08c379a00000000000000000000000000000000000000000000000000000000081526004016118c0906126ed565b60405180910390fd5b60006118d3611868565b905060008151116118f3576040518060200160405280600081525061191e565b806118fd84611af0565b60405160200161190e929190612445565b6040516020818303038152906040525b915050919050565b60008151905060006a636f6e736f6c652e6c6f679050602083016000808483855afa5050505050565b505050565b505050565b600061197a8473ffffffffffffffffffffffffffffffffffffffff16611c9d565b15611ae3578373ffffffffffffffffffffffffffffffffffffffff1663150b7a026119a3610f61565b8786866040518563ffffffff1660e01b81526004016119c59493929190612484565b602060405180830381600087803b1580156119df57600080fd5b505af1925050508015611a1057506040513d601f19601f82011682018060405250810190611a0d919061206c565b60015b611a93573d8060008114611a40576040519150601f19603f3d011682016040523d82523d6000602084013e611a45565b606091505b50600081511415611a8b576040517f08c379a0000000000000000000000000000000000000000000000000000000008152600401611a829061250d565b60405180910390fd5b805181602001fd5b63150b7a0260e01b7bffffffffffffffffffffffffffffffffffffffffffffffffffffffff1916817bffffffffffffffffffffffffffffffffffffffffffffffffffffffff191614915050611ae8565b600190505b949350505050565b60606000821415611b38576040518060400160405280600181526020017f30000000000000000000000000000000000000000000000000000000000000008152509050611c98565b600082905060005b60008214611b6a578080611b5390612a06565b915050600a82611b639190612888565b9150611b40565b60008167ffffffffffffffff811115611bac577f4e487b7100000000000000000000000000000000000000000000000000000000600052604160045260246000fd5b6040519080825280601f01601f191660200182016040528015611bde5781602001600182028036833780820191505090505b5090505b60008514611c9157600182611bf791906128b9565b9150600a85611c069190612a4f565b6030611c129190612832565b60f81b818381518110611c4e577f4e487b7100000000000000000000000000000000000000000000000000000000600052603260045260246000fd5b60200101907effffffffffffffffffffffffffffffffffffffffffffffffffffffffffffff1916908160001a905350600a85611c8a9190612888565b9450611be2565b8093505050505b919050565b6000808273ffffffffffffffffffffffffffffffffffffffff163b119050919050565b828054611ccc906129a3565b90600052602060002090601f016020900481019282611cee5760008555611d35565b82601f10611d0757805160ff1916838001178555611d35565b82800160010185558215611d35579182015b82811115611d34578251825591602001919060010190611d19565b5b509050611d429190611d46565b5090565b5b80821115611d5f576000816000905550600101611d47565b5090565b6000611d76611d718461278d565b612768565b905082815260208101848484011115611d8e57600080fd5b611d99848285612961565b509392505050565b6000611db4611daf846127be565b612768565b905082815260208101848484011115611dcc57600080fd5b611dd7848285612961565b509392505050565b600081359050611dee81613043565b92915050565b600081359050611e038161305a565b92915050565b600081359050611e1881613071565b92915050565b600081519050611e2d81613071565b92915050565b600082601f830112611e4457600080fd5b8135611e54848260208601611d63565b91505092915050565b600082601f830112611e6e57600080fd5b8135611e7e848260208601611da1565b91505092915050565b600081359050611e9681613088565b92915050565b600060208284031215611eae57600080fd5b6000611ebc84828501611ddf565b91505092915050565b60008060408385031215611ed857600080fd5b6000611ee685828601611ddf565b9250506020611ef785828601611ddf565b9150509250929050565b600080600060608486031215611f1657600080fd5b6000611f2486828701611ddf565b9350506020611f3586828701611ddf565b9250506040611f4686828701611e87565b9150509250925092565b60008060008060808587031215611f6657600080fd5b6000611f7487828801611ddf565b9450506020611f8587828801611ddf565b9350506040611f9687828801611e87565b925050606085013567ffffffffffffffff811115611fb357600080fd5b611fbf87828801611e33565b91505092959194509250565b60008060408385031215611fde57600080fd5b6000611fec85828601611ddf565b9250506020611ffd85828601611df4565b9150509250929050565b6000806040838503121561201a57600080fd5b600061202885828601611ddf565b925050602061203985828601611e87565b9150509250929050565b60006020828403121561205557600080fd5b600061206384828501611e09565b91505092915050565b60006020828403121561207e57600080fd5b600061208c84828501611e1e565b91505092915050565b6000602082840312156120a757600080fd5b600082013567ffffffffffffffff8111156120c157600080fd5b6120cd84828501611e5d565b91505092915050565b6000602082840312156120e857600080fd5b60006120f684828501611e87565b91505092915050565b612108816128ed565b82525050565b612117816128ff565b82525050565b6000612128826127ef565b6121328185612805565b9350612142818560208601612970565b61214b81612b3c565b840191505092915050565b6000612161826127fa565b61216b8185612816565b935061217b818560208601612970565b61218481612b3c565b840191505092915050565b600061219a826127fa565b6121a48185612827565b93506121b4818560208601612970565b80840191505092915050565b60006121cd603283612816565b91506121d882612b4d565b604082019050919050565b60006121f0602683612816565b91506121fb82612b9c565b604082019050919050565b6000612213602583612816565b915061221e82612beb565b604082019050919050565b6000612236601c83612816565b915061224182612c3a565b602082019050919050565b6000612259602483612816565b915061226482612c63565b604082019050919050565b600061227c601983612816565b915061228782612cb2565b602082019050919050565b600061229f602c83612816565b91506122aa82612cdb565b604082019050919050565b60006122c2603883612816565b91506122cd82612d2a565b604082019050919050565b60006122e5602a83612816565b91506122f082612d79565b604082019050919050565b6000612308602983612816565b915061231382612dc8565b604082019050919050565b600061232b602e83612816565b915061233682612e17565b604082019050919050565b600061234e602083612816565b915061235982612e66565b602082019050919050565b6000612371603183612816565b915061237c82612e8f565b604082019050919050565b6000612394602c83612816565b915061239f82612ede565b604082019050919050565b60006123b7602083612816565b91506123c282612f2d565b602082019050919050565b60006123da602f83612816565b91506123e582612f56565b604082019050919050565b60006123fd602183612816565b915061240882612fa5565b604082019050919050565b6000612420603183612816565b915061242b82612ff4565b604082019050919050565b61243f81612957565b82525050565b6000612451828561218f565b915061245d828461218f565b91508190509392505050565b600060208201905061247e60008301846120ff565b92915050565b600060808201905061249960008301876120ff565b6124a660208301866120ff565b6124b36040830185612436565b81810360608301526124c5818461211d565b905095945050505050565b60006020820190506124e5600083018461210e565b92915050565b600060208201905081810360008301526125058184612156565b905092915050565b60006020820190508181036000830152612526816121c0565b9050919050565b60006020820190508181036000830152612546816121e3565b9050919050565b6000602082019050818103600083015261256681612206565b9050919050565b6000602082019050818103600083015261258681612229565b9050919050565b600060208201905081810360008301526125a68161224c565b9050919050565b600060208201905081810360008301526125c68161226f565b9050919050565b600060208201905081810360008301526125e681612292565b9050919050565b60006020820190508181036000830152612606816122b5565b9050919050565b60006020820190508181036000830152612626816122d8565b9050919050565b60006020820190508181036000830152612646816122fb565b9050919050565b600060208201905081810360008301526126668161231e565b9050919050565b6000602082019050818103600083015261268681612341565b9050919050565b600060208201905081810360008301526126a681612364565b9050919050565b600060208201905081810360008301526126c681612387565b9050919050565b600060208201905081810360008301526126e6816123aa565b9050919050565b60006020820190508181036000830152612706816123cd565b9050919050565b60006020820190508181036000830152612726816123f0565b9050919050565b6000602082019050818103600083015261274681612413565b9050919050565b60006020820190506127626000830184612436565b92915050565b6000612772612783565b905061277e82826129d5565b919050565b6000604051905090565b600067ffffffffffffffff8211156127a8576127a7612b0d565b5b6127b182612b3c565b9050602081019050919050565b600067ffffffffffffffff8211156127d9576127d8612b0d565b5b6127e282612b3c565b9050602081019050919050565b600081519050919050565b600081519050919050565b600082825260208201905092915050565b600082825260208201905092915050565b600081905092915050565b600061283d82612957565b915061284883612957565b9250827fffffffffffffffffffffffffffffffffffffffffffffffffffffffffffffffff0382111561287d5761287c612a80565b5b828201905092915050565b600061289382612957565b915061289e83612957565b9250826128ae576128ad612aaf565b5b828204905092915050565b60006128c482612957565b91506128cf83612957565b9250828210156128e2576128e1612a80565b5b828203905092915050565b60006128f882612937565b9050919050565b60008115159050919050565b60007fffffffff0000000000000000000000000000000000000000000000000000000082169050919050565b600073ffffffffffffffffffffffffffffffffffffffff82169050919050565b6000819050919050565b82818337600083830152505050565b60005b8381101561298e578082015181840152602081019050612973565b8381111561299d576000848401525b50505050565b600060028204905060018216806129bb57607f821691505b602082108114156129cf576129ce612ade565b5b50919050565b6129de82612b3c565b810181811067ffffffffffffffff821117156129fd576129fc612b0d565b5b80604052505050565b6000612a1182612957565b91507fffffffffffffffffffffffffffffffffffffffffffffffffffffffffffffffff821415612a4457612a43612a80565b5b600182019050919050565b6000612a5a82612957565b9150612a6583612957565b925082612a7557612a74612aaf565b5b828206905092915050565b7f4e487b7100000000000000000000000000000000000000000000000000000000600052601160045260246000fd5b7f4e487b7100000000000000000000000000000000000000000000000000000000600052601260045260246000fd5b7f4e487b7100000000000000000000000000000000000000000000000000000000600052602260045260246000fd5b7f4e487b7100000000000000000000000000000000000000000000000000000000600052604160045260246000fd5b6000601f19601f8301169050919050565b7f4552433732313a207472616e7366657220746f206e6f6e20455243373231526560008201527f63656976657220696d706c656d656e7465720000000000000000000000000000602082015250565b7f4f776e61626c653a206e6577206f776e657220697320746865207a65726f206160008201527f6464726573730000000000000000000000000000000000000000000000000000602082015250565b7f4552433732313a207472616e736665722066726f6d20696e636f72726563742060008201527f6f776e6572000000000000000000000000000000000000000000000000000000602082015250565b7f4552433732313a20746f6b656e20616c7265616479206d696e74656400000000600082015250565b7f4552433732313a207472616e7366657220746f20746865207a65726f2061646460008201527f7265737300000000000000000000000000000000000000000000000000000000602082015250565b7f4552433732313a20617070726f766520746f2063616c6c657200000000000000600082015250565b7f4552433732313a206f70657261746f7220717565727920666f72206e6f6e657860008201527f697374656e7420746f6b656e0000000000000000000000000000000000000000602082015250565b7f4552433732313a20617070726f76652063616c6c6572206973206e6f74206f7760008201527f6e6572206e6f7220617070726f76656420666f7220616c6c0000000000000000602082015250565b7f4552433732313a2062616c616e636520717565727920666f7220746865207a6560008201527f726f206164647265737300000000000000000000000000000000000000000000602082015250565b7f4552433732313a206f776e657220717565727920666f72206e6f6e657869737460008201527f656e7420746f6b656e0000000000000000000000000000000000000000000000602082015250565b7f45524337323155524953746f726167653a2055524920736574206f66206e6f6e60008201527f6578697374656e7420746f6b656e000000000000000000000000000000000000602082015250565b7f4552433732313a206d696e7420746f20746865207a65726f2061646472657373600082015250565b7f45524337323155524953746f726167653a2055524920717565727920666f722060008201527f6e6f6e6578697374656e7420746f6b656e000000000000000000000000000000602082015250565b7f4552433732313a20617070726f76656420717565727920666f72206e6f6e657860008201527f697374656e7420746f6b656e0000000000000000000000000000000000000000602082015250565b7f4f776e61626c653a2063616c6c6572206973206e6f7420746865206f776e6572600082015250565b7f4552433732314d657461646174613a2055524920717565727920666f72206e6f60008201527f6e6578697374656e7420746f6b656e0000000000000000000000000000000000602082015250565b7f4552433732313a20617070726f76616c20746f2063757272656e74206f776e6560008201527f7200000000000000000000000000000000000000000000000000000000000000602082015250565b7f4552433732313a207472616e736665722063616c6c6572206973206e6f74206f60008201527f776e6572206e6f7220617070726f766564000000000000000000000000000000602082015250565b61304c816128ed565b811461305757600080fd5b50565b613063816128ff565b811461306e57600080fd5b50565b61307a8161290b565b811461308557600080fd5b50565b61309181612957565b811461309c57600080fd5b5056fea2646970667358221220ab1b17493488ab75a03586b294495125b1182bc7fc2784f2ac56d73959bece6764736f6c63430008040033a2646970667358221220de0f189911c244147f19d863c2e77680d39f92f085247bb8ed9a4ca5f3faf0b664736f6c63430008040033",
  "linkReferences": {},
  "deployedLinkReferences": {}
}