{
  "_format": "hh-sol-artifact-1",
  "contractName": "AltERC721MintingFactory",
  "sourceName": "contracts/NFTMarketplace/MintingAndStorage/AltERC721MintingFactory.sol",
  "abi": [
    {
      "inputs": [],
      "stateMutability": "nonpayable",
      "type": "constructor"
    },
    {
      "anonymous": false,
      "inputs": [
        {
          "indexed": false,
          "internalType": "address",
          "name": "oldExchange",
          "type": "address"
        },
        {
          "indexed": false,
          "internalType": "address",
          "name": "newExchange",
          "type": "address"
        }
      ],
      "name": "ExchangeAddressChanged",
      "type": "event"
    },
    {
      "anonymous": false,
      "inputs": [
        {
          "indexed": false,
          "internalType": "string",
          "name": "name",
          "type": "string"
        },
        {
          "indexed": false,
          "internalType": "string",
          "name": "symbol",
          "type": "string"
        },
        {
          "indexed": false,
          "internalType": "address",
          "name": "nftContract",
          "type": "address"
        }
      ],
      "name": "NFTContractCreated",
      "type": "event"
    },
    {
      "anonymous": false,
      "inputs": [
        {
          "indexed": false,
          "internalType": "address",
          "name": "nftContract",
          "type": "address"
        },
        {
          "indexed": false,
          "internalType": "uint256",
          "name": "tokenId",
          "type": "uint256"
        }
      ],
      "name": "NFTMinted",
      "type": "event"
    },
    {
      "anonymous": false,
      "inputs": [
        {
          "indexed": false,
          "internalType": "address",
          "name": "nftContract",
          "type": "address"
        },
        {
          "indexed": false,
          "internalType": "uint256",
          "name": "tokenId",
          "type": "uint256"
        },
        {
          "indexed": false,
          "internalType": "address",
          "name": "newOwner",
          "type": "address"
        }
      ],
      "name": "OwnerUpdated",
      "type": "event"
    },
    {
      "inputs": [],
      "name": "adminAddress",
      "outputs": [
        {
          "internalType": "address",
          "name": "",
          "type": "address"
        }
      ],
      "stateMutability": "view",
      "type": "function"
    },
    {
      "inputs": [
        {
          "internalType": "string",
          "name": "_name",
          "type": "string"
        },
        {
          "internalType": "string",
          "name": "_symbol",
          "type": "string"
        }
      ],
      "name": "createNFTContract",
      "outputs": [
        {
          "internalType": "address",
          "name": "_nftcontract",
          "type": "address"
        }
      ],
      "stateMutability": "nonpayable",
      "type": "function"
    },
    {
      "inputs": [],
      "name": "exchangeAddress",
      "outputs": [
        {
          "internalType": "address",
          "name": "",
          "type": "address"
        }
      ],
      "stateMutability": "view",
      "type": "function"
    },
    {
      "inputs": [
        {
          "internalType": "address",
          "name": "user",
          "type": "address"
        }
      ],
      "name": "getNFTsForOwner",
      "outputs": [
        {
          "internalType": "address[]",
          "name": "",
          "type": "address[]"
        }
      ],
      "stateMutability": "view",
      "type": "function"
    },
    {
      "inputs": [
        {
          "internalType": "address",
          "name": "_nftContract",
          "type": "address"
        }
      ],
      "name": "getTotalNFTsMinted",
      "outputs": [
        {
          "internalType": "uint256",
          "name": "",
          "type": "uint256"
        }
      ],
      "stateMutability": "view",
      "type": "function"
    },
    {
      "inputs": [
        {
          "internalType": "address",
          "name": "_nftContract",
          "type": "address"
        },
        {
          "internalType": "string",
          "name": "_tokenURI",
          "type": "string"
        }
      ],
      "name": "mintNFT",
      "outputs": [],
      "stateMutability": "nonpayable",
      "type": "function"
    },
    {
      "inputs": [
        {
          "internalType": "address",
          "name": "",
          "type": "address"
        },
        {
          "internalType": "uint256",
          "name": "",
          "type": "uint256"
        }
      ],
      "name": "nftToIdToOwner",
      "outputs": [
        {
          "internalType": "address",
          "name": "",
          "type": "address"
        }
      ],
      "stateMutability": "view",
      "type": "function"
    },
    {
      "inputs": [
        {
          "internalType": "address",
          "name": "",
          "type": "address"
        }
      ],
      "name": "nftToOwner",
      "outputs": [
        {
          "internalType": "address",
          "name": "",
          "type": "address"
        }
      ],
      "stateMutability": "view",
      "type": "function"
    },
    {
      "inputs": [
        {
          "internalType": "address",
          "name": "",
          "type": "address"
        },
        {
          "internalType": "uint256",
          "name": "",
          "type": "uint256"
        }
      ],
      "name": "ownerToNFTs",
      "outputs": [
        {
          "internalType": "address",
          "name": "",
          "type": "address"
        }
      ],
      "stateMutability": "view",
      "type": "function"
    },
    {
      "inputs": [
        {
          "internalType": "address",
          "name": "_newExchange",
          "type": "address"
        }
      ],
      "name": "updateExchangeAddress",
      "outputs": [],
      "stateMutability": "nonpayable",
      "type": "function"
    },
    {
      "inputs": [
        {
          "internalType": "address",
          "name": "_nftContract",
          "type": "address"
        },
        {
          "internalType": "uint256",
          "name": "_tokenId",
          "type": "uint256"
        },
        {
          "internalType": "address",
          "name": "_newOwner",
          "type": "address"
        }
      ],
      "name": "updateOwner",
      "outputs": [],
      "stateMutability": "nonpayable",
      "type": "function"
    }
  ],
  "bytecode": "0x608060405234801561001057600080fd5b50336000806101000a81548173ffffffffffffffffffffffffffffffffffffffff021916908373ffffffffffffffffffffffffffffffffffffffff1602179055506147b3806100606000396000f3fe60806040523480156200001157600080fd5b5060043610620000b85760003560e01c8063ad0f93ad116200007b578063ad0f93ad146200018b578063bf7cc0bc14620001c1578063da00183e14620001f7578063dc4c2026146200022d578063eacabe141462000263578063fc6f9468146200028357620000b8565b806314d76ffc14620000bd5780631bd5a5d314620000f357806331415a651462000113578063994212aa14620001335780639cd016051462000169575b600080fd5b620000db6004803603810190620000d5919062000d7e565b620002a5565b604051620000ea919062000f8a565b60405180910390f35b6200011160048036038101906200010b919062000d28565b6200044c565b005b6200013160048036038101906200012b919062000c61565b620005b0565b005b6200015160048036038101906200014b919062000c61565b6200070a565b6040516200016091906200103e565b60405180910390f35b62000173620007d9565b60405162000182919062000f8a565b60405180910390f35b620001a96004803603810190620001a3919062000ce7565b620007ff565b604051620001b8919062000f8a565b60405180910390f35b620001df6004803603810190620001d9919062000ce7565b6200084e565b604051620001ee919062000f8a565b60405180910390f35b6200021560048036038101906200020f919062000c61565b62000890565b60405162000224919062001137565b60405180910390f35b6200024b600480360381019062000245919062000c61565b6200091b565b6040516200025a919062000f8a565b60405180910390f35b6200028160048036038101906200027b919062000c8d565b6200094e565b005b6200028d62000b78565b6040516200029c919062000f8a565b60405180910390f35b600080838333604051620002b99062000b9c565b620002c79392919062001086565b604051809103906000f080158015620002e4573d6000803e3d6000fd5b509050600260003373ffffffffffffffffffffffffffffffffffffffff1673ffffffffffffffffffffffffffffffffffffffff168152602001908152602001600020819080600181540180825580915050600190039060005260206000200160009091909190916101000a81548173ffffffffffffffffffffffffffffffffffffffff021916908373ffffffffffffffffffffffffffffffffffffffff16021790555033600460008373ffffffffffffffffffffffffffffffffffffffff1673ffffffffffffffffffffffffffffffffffffffff16815260200190815260200160002060006101000a81548173ffffffffffffffffffffffffffffffffffffffff021916908373ffffffffffffffffffffffffffffffffffffffff1602179055507fe05033be0f25d52c4b8af5abd6206011fe0006f22356a89e1ceaaeb5be9cce3d8484836040516200043a9392919062001086565b60405180910390a18091505092915050565b600160009054906101000a900473ffffffffffffffffffffffffffffffffffffffff1673ffffffffffffffffffffffffffffffffffffffff163373ffffffffffffffffffffffffffffffffffffffff1614620004df576040517f08c379a0000000000000000000000000000000000000000000000000000000008152600401620004d69062001115565b60405180910390fd5b80600360008573ffffffffffffffffffffffffffffffffffffffff1673ffffffffffffffffffffffffffffffffffffffff168152602001908152602001600020600084815260200190815260200160002060006101000a81548173ffffffffffffffffffffffffffffffffffffffff021916908373ffffffffffffffffffffffffffffffffffffffff1602179055507fbf7d716ccb48f073c088770f60a983dbc96730447d5eeccc755ba5f70efd4dac838383604051620005a39392919062001001565b60405180910390a1505050565b60008054906101000a900473ffffffffffffffffffffffffffffffffffffffff1673ffffffffffffffffffffffffffffffffffffffff163373ffffffffffffffffffffffffffffffffffffffff161462000641576040517f08c379a00000000000000000000000000000000000000000000000000000000081526004016200063890620010f3565b60405180910390fd5b6000600160009054906101000a900473ffffffffffffffffffffffffffffffffffffffff16905081600160006101000a81548173ffffffffffffffffffffffffffffffffffffffff021916908373ffffffffffffffffffffffffffffffffffffffff1602179055507faae8f79ab8cb5fd21b5dcd706744632e9ad6eeb41f4f1517da1c17416c485d3981600160009054906101000a900473ffffffffffffffffffffffffffffffffffffffff16604051620006fe92919062000fa7565b60405180910390a15050565b6060600260008373ffffffffffffffffffffffffffffffffffffffff1673ffffffffffffffffffffffffffffffffffffffff168152602001908152602001600020805480602002602001604051908101604052809291908181526020018280548015620007cd57602002820191906000526020600020905b8160009054906101000a900473ffffffffffffffffffffffffffffffffffffffff1673ffffffffffffffffffffffffffffffffffffffff168152602001906001019080831162000782575b50505050509050919050565b600160009054906101000a900473ffffffffffffffffffffffffffffffffffffffff1681565b600260205281600052604060002081815481106200081c57600080fd5b906000526020600020016000915091509054906101000a900473ffffffffffffffffffffffffffffffffffffffff1681565b60036020528160005260406000206020528060005260406000206000915091509054906101000a900473ffffffffffffffffffffffffffffffffffffffff1681565b60008173ffffffffffffffffffffffffffffffffffffffff166330bdb3516040518163ffffffff1660e01b815260040160206040518083038186803b158015620008d957600080fd5b505afa158015620008ee573d6000803e3d6000fd5b505050506040513d601f19601f8201168201806040525081019062000914919062000df1565b9050919050565b60046020528060005260406000206000915054906101000a900473ffffffffffffffffffffffffffffffffffffffff1681565b813373ffffffffffffffffffffffffffffffffffffffff16600460008373ffffffffffffffffffffffffffffffffffffffff1673ffffffffffffffffffffffffffffffffffffffff16815260200190815260200160002060009054906101000a900473ffffffffffffffffffffffffffffffffffffffff1673ffffffffffffffffffffffffffffffffffffffff161462000a1f576040517f08c379a000000000000000000000000000000000000000000000000000000000815260040162000a1690620010d1565b60405180910390fd5b8273ffffffffffffffffffffffffffffffffffffffff16633157631f836040518263ffffffff1660e01b815260040162000a5a919062001062565b602060405180830381600087803b15801562000a7557600080fd5b505af115801562000a8a573d6000803e3d6000fd5b505050506040513d601f19601f8201168201806040525081019062000ab0919062000df1565b5060008373ffffffffffffffffffffffffffffffffffffffff166330bdb3516040518163ffffffff1660e01b815260040160206040518083038186803b15801562000afa57600080fd5b505afa15801562000b0f573d6000803e3d6000fd5b505050506040513d601f19601f8201168201806040525081019062000b35919062000df1565b90507f4cc0a9c4a99ddc700de1af2c9f916a7cbfdb71f14801ccff94061ad1ef8a8040848260405162000b6a92919062000fd4565b60405180910390a150505050565b60008054906101000a900473ffffffffffffffffffffffffffffffffffffffff1681565b6133cd80620013b183390190565b600062000bc162000bbb846200117d565b62001154565b90508281526020810184848401111562000bda57600080fd5b62000be784828562001246565b509392505050565b60008135905062000c00816200137c565b92915050565b600082601f83011262000c1857600080fd5b813562000c2a84826020860162000baa565b91505092915050565b60008135905062000c448162001396565b92915050565b60008151905062000c5b8162001396565b92915050565b60006020828403121562000c7457600080fd5b600062000c848482850162000bef565b91505092915050565b6000806040838503121562000ca157600080fd5b600062000cb18582860162000bef565b925050602083013567ffffffffffffffff81111562000ccf57600080fd5b62000cdd8582860162000c06565b9150509250929050565b6000806040838503121562000cfb57600080fd5b600062000d0b8582860162000bef565b925050602062000d1e8582860162000c33565b9150509250929050565b60008060006060848603121562000d3e57600080fd5b600062000d4e8682870162000bef565b935050602062000d618682870162000c33565b925050604062000d748682870162000bef565b9150509250925092565b6000806040838503121562000d9257600080fd5b600083013567ffffffffffffffff81111562000dad57600080fd5b62000dbb8582860162000c06565b925050602083013567ffffffffffffffff81111562000dd957600080fd5b62000de78582860162000c06565b9150509250929050565b60006020828403121562000e0457600080fd5b600062000e148482850162000c4a565b91505092915050565b600062000e2b838362000e37565b60208301905092915050565b62000e428162001208565b82525050565b62000e538162001208565b82525050565b600062000e6682620011c3565b62000e728185620011e6565b935062000e7f83620011b3565b8060005b8381101562000eb657815162000e9a888262000e1d565b975062000ea783620011d9565b92505060018101905062000e83565b5085935050505092915050565b600062000ed082620011ce565b62000edc8185620011f7565b935062000eee81856020860162001255565b62000ef981620012f0565b840191505092915050565b600062000f13601b83620011f7565b915062000f208262001301565b602082019050919050565b600062000f3a601983620011f7565b915062000f47826200132a565b602082019050919050565b600062000f61601c83620011f7565b915062000f6e8262001353565b602082019050919050565b62000f84816200123c565b82525050565b600060208201905062000fa1600083018462000e48565b92915050565b600060408201905062000fbe600083018562000e48565b62000fcd602083018462000e48565b9392505050565b600060408201905062000feb600083018562000e48565b62000ffa602083018462000f79565b9392505050565b600060608201905062001018600083018662000e48565b62001027602083018562000f79565b62001036604083018462000e48565b949350505050565b600060208201905081810360008301526200105a818462000e59565b905092915050565b600060208201905081810360008301526200107e818462000ec3565b905092915050565b60006060820190508181036000830152620010a2818662000ec3565b90508181036020830152620010b8818562000ec3565b9050620010c9604083018462000e48565b949350505050565b60006020820190508181036000830152620010ec8162000f04565b9050919050565b600060208201905081810360008301526200110e8162000f2b565b9050919050565b60006020820190508181036000830152620011308162000f52565b9050919050565b60006020820190506200114e600083018462000f79565b92915050565b60006200116062001173565b90506200116e82826200128b565b919050565b6000604051905090565b600067ffffffffffffffff8211156200119b576200119a620012c1565b5b620011a682620012f0565b9050602081019050919050565b6000819050602082019050919050565b600081519050919050565b600081519050919050565b6000602082019050919050565b600082825260208201905092915050565b600082825260208201905092915050565b600062001215826200121c565b9050919050565b600073ffffffffffffffffffffffffffffffffffffffff82169050919050565b6000819050919050565b82818337600083830152505050565b60005b838110156200127557808201518184015260208101905062001258565b8381111562001285576000848401525b50505050565b6200129682620012f0565b810181811067ffffffffffffffff82111715620012b857620012b7620012c1565b5b80604052505050565b7f4e487b7100000000000000000000000000000000000000000000000000000000600052604160045260246000fd5b6000601f19601f8301169050919050565b7f4f6e6c792043726561746f722063616e2063616c6c2074686973210000000000600082015250565b7f4f6e6c792041646d696e2063616e2063616c6c20746869732100000000000000600082015250565b7f4f6e6c792045786368616e67652063616e2063616c6c20746869732100000000600082015250565b620013878162001208565b81146200139357600080fd5b50565b620013a1816200123c565b8114620013ad57600080fd5b5056fe60806040523480156200001157600080fd5b50604051620033cd380380620033cd833981810160405281019062000037919062000307565b8282816000908051906020019062000051929190620001ce565b5080600190805190602001906200006a929190620001ce565b505050620000b86040518060400160405280601e81526020017f5468697320697320616e204e465420636f6e74726163742e2057686f612100008152506200010260201b62000c641760201c565b80600860006101000a81548173ffffffffffffffffffffffffffffffffffffffff021916908373ffffffffffffffffffffffffffffffffffffffff160217905550505050620005ce565b620001a281604051602401620001199190620003d0565b6040516020818303038152906040527f41304fac000000000000000000000000000000000000000000000000000000007bffffffffffffffffffffffffffffffffffffffffffffffffffffffff19166020820180517bffffffffffffffffffffffffffffffffffffffffffffffffffffffff8381831617835250505050620001a560201b60201c565b50565b60008151905060006a636f6e736f6c652e6c6f679050602083016000808483855afa5050505050565b828054620001dc90620004d9565b90600052602060002090601f0160209004810192826200020057600085556200024c565b82601f106200021b57805160ff19168380011785556200024c565b828001600101855582156200024c579182015b828111156200024b5782518255916020019190600101906200022e565b5b5090506200025b91906200025f565b5090565b5b808211156200027a57600081600090555060010162000260565b5090565b6000620002956200028f846200041d565b620003f4565b905082815260208101848484011115620002ae57600080fd5b620002bb848285620004a3565b509392505050565b600081519050620002d481620005b4565b92915050565b600082601f830112620002ec57600080fd5b8151620002fe8482602086016200027e565b91505092915050565b6000806000606084860312156200031d57600080fd5b600084015167ffffffffffffffff8111156200033857600080fd5b6200034686828701620002da565b935050602084015167ffffffffffffffff8111156200036457600080fd5b6200037286828701620002da565b92505060406200038586828701620002c3565b9150509250925092565b60006200039c8262000453565b620003a881856200045e565b9350620003ba818560208601620004a3565b620003c581620005a3565b840191505092915050565b60006020820190508181036000830152620003ec81846200038f565b905092915050565b60006200040062000413565b90506200040e82826200050f565b919050565b6000604051905090565b600067ffffffffffffffff8211156200043b576200043a62000574565b5b6200044682620005a3565b9050602081019050919050565b600081519050919050565b600082825260208201905092915050565b60006200047c8262000483565b9050919050565b600073ffffffffffffffffffffffffffffffffffffffff82169050919050565b60005b83811015620004c3578082015181840152602081019050620004a6565b83811115620004d3576000848401525b50505050565b60006002820490506001821680620004f257607f821691505b6020821081141562000509576200050862000545565b5b50919050565b6200051a82620005a3565b810181811067ffffffffffffffff821117156200053c576200053b62000574565b5b80604052505050565b7f4e487b7100000000000000000000000000000000000000000000000000000000600052602260045260246000fd5b7f4e487b7100000000000000000000000000000000000000000000000000000000600052604160045260246000fd5b6000601f19601f8301169050919050565b620005bf816200046f565b8114620005cb57600080fd5b50565b612def80620005de6000396000f3fe608060405234801561001057600080fd5b50600436106101005760003560e01c806342842e0e11610097578063a22cb46511610066578063a22cb465146102c1578063b88d4fde146102dd578063c87b56dd146102f9578063e985e9c51461032957610100565b806342842e0e146102275780636352211e1461024357806370a082311461027357806395d89b41146102a357610100565b8063095ea7b3116100d3578063095ea7b3146101a157806323b872dd146101bd57806330bdb351146101d95780633157631f146101f757610100565b806301ffc9a71461010557806302d05d3f1461013557806306fdde0314610153578063081812fc14610171575b600080fd5b61011f600480360381019061011a9190611def565b610359565b60405161012c9190612259565b60405180910390f35b61013d61043b565b60405161014a91906121f2565b60405180910390f35b61015b610461565b6040516101689190612274565b60405180910390f35b61018b60048036038101906101869190611e82565b6104f3565b60405161019891906121f2565b60405180910390f35b6101bb60048036038101906101b69190611db3565b610578565b005b6101d760048036038101906101d29190611cad565b610690565b005b6101e16106f0565b6040516101ee91906124b6565b60405180910390f35b610211600480360381019061020c9190611e41565b610701565b60405161021e91906124b6565b60405180910390f35b610241600480360381019061023c9190611cad565b6107ea565b005b61025d60048036038101906102589190611e82565b61080a565b60405161026a91906121f2565b60405180910390f35b61028d60048036038101906102889190611c48565b6108bc565b60405161029a91906124b6565b60405180910390f35b6102ab610974565b6040516102b89190612274565b60405180910390f35b6102db60048036038101906102d69190611d77565b610a06565b005b6102f760048036038101906102f29190611cfc565b610a1c565b005b610313600480360381019061030e9190611e82565b610a7e565b6040516103209190612274565b60405180910390f35b610343600480360381019061033e9190611c71565b610bd0565b6040516103509190612259565b60405180910390f35b60007f80ac58cd000000000000000000000000000000000000000000000000000000007bffffffffffffffffffffffffffffffffffffffffffffffffffffffff1916827bffffffffffffffffffffffffffffffffffffffffffffffffffffffff1916148061042457507f5b5e139f000000000000000000000000000000000000000000000000000000007bffffffffffffffffffffffffffffffffffffffffffffffffffffffff1916827bffffffffffffffffffffffffffffffffffffffffffffffffffffffff1916145b80610434575061043382610cfd565b5b9050919050565b600860009054906101000a900473ffffffffffffffffffffffffffffffffffffffff1681565b6060600080546104709061270c565b80601f016020809104026020016040519081016040528092919081815260200182805461049c9061270c565b80156104e95780601f106104be576101008083540402835291602001916104e9565b820191906000526020600020905b8154815290600101906020018083116104cc57829003601f168201915b5050505050905090565b60006104fe82610d67565b61053d576040517f08c379a000000000000000000000000000000000000000000000000000000000815260040161053490612416565b60405180910390fd5b6004600083815260200190815260200160002060009054906101000a900473ffffffffffffffffffffffffffffffffffffffff169050919050565b60006105838261080a565b90508073ffffffffffffffffffffffffffffffffffffffff168373ffffffffffffffffffffffffffffffffffffffff1614156105f4576040517f08c379a00000000000000000000000000000000000000000000000000000000081526004016105eb90612476565b60405180910390fd5b8073ffffffffffffffffffffffffffffffffffffffff16610613610dd3565b73ffffffffffffffffffffffffffffffffffffffff16148061064257506106418161063c610dd3565b610bd0565b5b610681576040517f08c379a000000000000000000000000000000000000000000000000000000000815260040161067890612356565b60405180910390fd5b61068b8383610ddb565b505050565b6106a161069b610dd3565b82610e94565b6106e0576040517f08c379a00000000000000000000000000000000000000000000000000000000081526004016106d790612496565b60405180910390fd5b6106eb838383610f72565b505050565b60006106fc60076111d9565b905090565b6000600860009054906101000a900473ffffffffffffffffffffffffffffffffffffffff1673ffffffffffffffffffffffffffffffffffffffff163373ffffffffffffffffffffffffffffffffffffffff1614610793576040517f08c379a000000000000000000000000000000000000000000000000000000000815260040161078a90612456565b60405180910390fd5b61079d60076111e7565b60006107a960076111d9565b90506107d7600860009054906101000a900473ffffffffffffffffffffffffffffffffffffffff16826111fd565b6107e181846113d7565b80915050919050565b61080583838360405180602001604052806000815250610a1c565b505050565b6000806002600084815260200190815260200160002060009054906101000a900473ffffffffffffffffffffffffffffffffffffffff169050600073ffffffffffffffffffffffffffffffffffffffff168173ffffffffffffffffffffffffffffffffffffffff1614156108b3576040517f08c379a00000000000000000000000000000000000000000000000000000000081526004016108aa90612396565b60405180910390fd5b80915050919050565b60008073ffffffffffffffffffffffffffffffffffffffff168273ffffffffffffffffffffffffffffffffffffffff16141561092d576040517f08c379a000000000000000000000000000000000000000000000000000000000815260040161092490612376565b60405180910390fd5b600360008373ffffffffffffffffffffffffffffffffffffffff1673ffffffffffffffffffffffffffffffffffffffff168152602001908152602001600020549050919050565b6060600180546109839061270c565b80601f01602080910402602001604051908101604052809291908181526020018280546109af9061270c565b80156109fc5780601f106109d1576101008083540402835291602001916109fc565b820191906000526020600020905b8154815290600101906020018083116109df57829003601f168201915b5050505050905090565b610a18610a11610dd3565b838361144b565b5050565b610a2d610a27610dd3565b83610e94565b610a6c576040517f08c379a0000000000000000000000000000000000000000000000000000000008152600401610a6390612496565b60405180910390fd5b610a78848484846115b8565b50505050565b6060610a8982610d67565b610ac8576040517f08c379a0000000000000000000000000000000000000000000000000000000008152600401610abf906123f6565b60405180910390fd5b6000600660008481526020019081526020016000208054610ae89061270c565b80601f0160208091040260200160405190810160405280929190818152602001828054610b149061270c565b8015610b615780601f10610b3657610100808354040283529160200191610b61565b820191906000526020600020905b815481529060010190602001808311610b4457829003601f168201915b505050505090506000610b72611614565b9050600081511415610b88578192505050610bcb565b600082511115610bbd578082604051602001610ba59291906121ce565b60405160208183030381529060405292505050610bcb565b610bc68461162b565b925050505b919050565b6000600560008473ffffffffffffffffffffffffffffffffffffffff1673ffffffffffffffffffffffffffffffffffffffff16815260200190815260200160002060008373ffffffffffffffffffffffffffffffffffffffff1673ffffffffffffffffffffffffffffffffffffffff16815260200190815260200160002060009054906101000a900460ff16905092915050565b610cfa81604051602401610c789190612274565b6040516020818303038152906040527f41304fac000000000000000000000000000000000000000000000000000000007bffffffffffffffffffffffffffffffffffffffffffffffffffffffff19166020820180517bffffffffffffffffffffffffffffffffffffffffffffffffffffffff83818316178352505050506116d2565b50565b60007f01ffc9a7000000000000000000000000000000000000000000000000000000007bffffffffffffffffffffffffffffffffffffffffffffffffffffffff1916827bffffffffffffffffffffffffffffffffffffffffffffffffffffffff1916149050919050565b60008073ffffffffffffffffffffffffffffffffffffffff166002600084815260200190815260200160002060009054906101000a900473ffffffffffffffffffffffffffffffffffffffff1673ffffffffffffffffffffffffffffffffffffffff1614159050919050565b600033905090565b816004600083815260200190815260200160002060006101000a81548173ffffffffffffffffffffffffffffffffffffffff021916908373ffffffffffffffffffffffffffffffffffffffff160217905550808273ffffffffffffffffffffffffffffffffffffffff16610e4e8361080a565b73ffffffffffffffffffffffffffffffffffffffff167f8c5be1e5ebec7d5bd14f71427d1e84f3dd0314c0f7b2291e5b200ac8c7c3b92560405160405180910390a45050565b6000610e9f82610d67565b610ede576040517f08c379a0000000000000000000000000000000000000000000000000000000008152600401610ed590612336565b60405180910390fd5b6000610ee98361080a565b90508073ffffffffffffffffffffffffffffffffffffffff168473ffffffffffffffffffffffffffffffffffffffff161480610f5857508373ffffffffffffffffffffffffffffffffffffffff16610f40846104f3565b73ffffffffffffffffffffffffffffffffffffffff16145b80610f695750610f688185610bd0565b5b91505092915050565b8273ffffffffffffffffffffffffffffffffffffffff16610f928261080a565b73ffffffffffffffffffffffffffffffffffffffff1614610fe8576040517f08c379a0000000000000000000000000000000000000000000000000000000008152600401610fdf906122b6565b60405180910390fd5b600073ffffffffffffffffffffffffffffffffffffffff168273ffffffffffffffffffffffffffffffffffffffff161415611058576040517f08c379a000000000000000000000000000000000000000000000000000000000815260040161104f906122f6565b60405180910390fd5b6110638383836116fb565b61106e600082610ddb565b6001600360008573ffffffffffffffffffffffffffffffffffffffff1673ffffffffffffffffffffffffffffffffffffffff16815260200190815260200160002060008282546110be9190612622565b925050819055506001600360008473ffffffffffffffffffffffffffffffffffffffff1673ffffffffffffffffffffffffffffffffffffffff1681526020019081526020016000206000828254611115919061259b565b92505081905550816002600083815260200190815260200160002060006101000a81548173ffffffffffffffffffffffffffffffffffffffff021916908373ffffffffffffffffffffffffffffffffffffffff160217905550808273ffffffffffffffffffffffffffffffffffffffff168473ffffffffffffffffffffffffffffffffffffffff167fddf252ad1be2c89b69c2b068fc378daa952ba7f163c4a11628f55a4df523b3ef60405160405180910390a46111d4838383611700565b505050565b600081600001549050919050565b6001816000016000828254019250508190555050565b600073ffffffffffffffffffffffffffffffffffffffff168273ffffffffffffffffffffffffffffffffffffffff16141561126d576040517f08c379a0000000000000000000000000000000000000000000000000000000008152600401611264906123d6565b60405180910390fd5b61127681610d67565b156112b6576040517f08c379a00000000000000000000000000000000000000000000000000000000081526004016112ad906122d6565b60405180910390fd5b6112c2600083836116fb565b6001600360008473ffffffffffffffffffffffffffffffffffffffff1673ffffffffffffffffffffffffffffffffffffffff1681526020019081526020016000206000828254611312919061259b565b92505081905550816002600083815260200190815260200160002060006101000a81548173ffffffffffffffffffffffffffffffffffffffff021916908373ffffffffffffffffffffffffffffffffffffffff160217905550808273ffffffffffffffffffffffffffffffffffffffff16600073ffffffffffffffffffffffffffffffffffffffff167fddf252ad1be2c89b69c2b068fc378daa952ba7f163c4a11628f55a4df523b3ef60405160405180910390a46113d360008383611700565b5050565b6113e082610d67565b61141f576040517f08c379a0000000000000000000000000000000000000000000000000000000008152600401611416906123b6565b60405180910390fd5b80600660008481526020019081526020016000209080519060200190611446929190611a6c565b505050565b8173ffffffffffffffffffffffffffffffffffffffff168373ffffffffffffffffffffffffffffffffffffffff1614156114ba576040517f08c379a00000000000000000000000000000000000000000000000000000000081526004016114b190612316565b60405180910390fd5b80600560008573ffffffffffffffffffffffffffffffffffffffff1673ffffffffffffffffffffffffffffffffffffffff16815260200190815260200160002060008473ffffffffffffffffffffffffffffffffffffffff1673ffffffffffffffffffffffffffffffffffffffff16815260200190815260200160002060006101000a81548160ff0219169083151502179055508173ffffffffffffffffffffffffffffffffffffffff168373ffffffffffffffffffffffffffffffffffffffff167f17307eab39ab6107e8899845ad3d59bd9653f200f220920489ca2b5937696c31836040516115ab9190612259565b60405180910390a3505050565b6115c3848484610f72565b6115cf84848484611705565b61160e576040517f08c379a000000000000000000000000000000000000000000000000000000000815260040161160590612296565b60405180910390fd5b50505050565b606060405180602001604052806000815250905090565b606061163682610d67565b611675576040517f08c379a000000000000000000000000000000000000000000000000000000000815260040161166c90612436565b60405180910390fd5b600061167f611614565b9050600081511161169f57604051806020016040528060008152506116ca565b806116a98461189c565b6040516020016116ba9291906121ce565b6040516020818303038152906040525b915050919050565b60008151905060006a636f6e736f6c652e6c6f679050602083016000808483855afa5050505050565b505050565b505050565b60006117268473ffffffffffffffffffffffffffffffffffffffff16611a49565b1561188f578373ffffffffffffffffffffffffffffffffffffffff1663150b7a0261174f610dd3565b8786866040518563ffffffff1660e01b8152600401611771949392919061220d565b602060405180830381600087803b15801561178b57600080fd5b505af19250505080156117bc57506040513d601f19601f820116820180604052508101906117b99190611e18565b60015b61183f573d80600081146117ec576040519150601f19603f3d011682016040523d82523d6000602084013e6117f1565b606091505b50600081511415611837576040517f08c379a000000000000000000000000000000000000000000000000000000000815260040161182e90612296565b60405180910390fd5b805181602001fd5b63150b7a0260e01b7bffffffffffffffffffffffffffffffffffffffffffffffffffffffff1916817bffffffffffffffffffffffffffffffffffffffffffffffffffffffff191614915050611894565b600190505b949350505050565b606060008214156118e4576040518060400160405280600181526020017f30000000000000000000000000000000000000000000000000000000000000008152509050611a44565b600082905060005b600082146119165780806118ff9061276f565b915050600a8261190f91906125f1565b91506118ec565b60008167ffffffffffffffff811115611958577f4e487b7100000000000000000000000000000000000000000000000000000000600052604160045260246000fd5b6040519080825280601f01601f19166020018201604052801561198a5781602001600182028036833780820191505090505b5090505b60008514611a3d576001826119a39190612622565b9150600a856119b291906127b8565b60306119be919061259b565b60f81b8183815181106119fa577f4e487b7100000000000000000000000000000000000000000000000000000000600052603260045260246000fd5b60200101907effffffffffffffffffffffffffffffffffffffffffffffffffffffffffffff1916908160001a905350600a85611a3691906125f1565b945061198e565b8093505050505b919050565b6000808273ffffffffffffffffffffffffffffffffffffffff163b119050919050565b828054611a789061270c565b90600052602060002090601f016020900481019282611a9a5760008555611ae1565b82601f10611ab357805160ff1916838001178555611ae1565b82800160010185558215611ae1579182015b82811115611ae0578251825591602001919060010190611ac5565b5b509050611aee9190611af2565b5090565b5b80821115611b0b576000816000905550600101611af3565b5090565b6000611b22611b1d846124f6565b6124d1565b905082815260208101848484011115611b3a57600080fd5b611b458482856126ca565b509392505050565b6000611b60611b5b84612527565b6124d1565b905082815260208101848484011115611b7857600080fd5b611b838482856126ca565b509392505050565b600081359050611b9a81612d5d565b92915050565b600081359050611baf81612d74565b92915050565b600081359050611bc481612d8b565b92915050565b600081519050611bd981612d8b565b92915050565b600082601f830112611bf057600080fd5b8135611c00848260208601611b0f565b91505092915050565b600082601f830112611c1a57600080fd5b8135611c2a848260208601611b4d565b91505092915050565b600081359050611c4281612da2565b92915050565b600060208284031215611c5a57600080fd5b6000611c6884828501611b8b565b91505092915050565b60008060408385031215611c8457600080fd5b6000611c9285828601611b8b565b9250506020611ca385828601611b8b565b9150509250929050565b600080600060608486031215611cc257600080fd5b6000611cd086828701611b8b565b9350506020611ce186828701611b8b565b9250506040611cf286828701611c33565b9150509250925092565b60008060008060808587031215611d1257600080fd5b6000611d2087828801611b8b565b9450506020611d3187828801611b8b565b9350506040611d4287828801611c33565b925050606085013567ffffffffffffffff811115611d5f57600080fd5b611d6b87828801611bdf565b91505092959194509250565b60008060408385031215611d8a57600080fd5b6000611d9885828601611b8b565b9250506020611da985828601611ba0565b9150509250929050565b60008060408385031215611dc657600080fd5b6000611dd485828601611b8b565b9250506020611de585828601611c33565b9150509250929050565b600060208284031215611e0157600080fd5b6000611e0f84828501611bb5565b91505092915050565b600060208284031215611e2a57600080fd5b6000611e3884828501611bca565b91505092915050565b600060208284031215611e5357600080fd5b600082013567ffffffffffffffff811115611e6d57600080fd5b611e7984828501611c09565b91505092915050565b600060208284031215611e9457600080fd5b6000611ea284828501611c33565b91505092915050565b611eb481612656565b82525050565b611ec381612668565b82525050565b6000611ed482612558565b611ede818561256e565b9350611eee8185602086016126d9565b611ef7816128a5565b840191505092915050565b6000611f0d82612563565b611f17818561257f565b9350611f278185602086016126d9565b611f30816128a5565b840191505092915050565b6000611f4682612563565b611f508185612590565b9350611f608185602086016126d9565b80840191505092915050565b6000611f7960328361257f565b9150611f84826128b6565b604082019050919050565b6000611f9c60258361257f565b9150611fa782612905565b604082019050919050565b6000611fbf601c8361257f565b9150611fca82612954565b602082019050919050565b6000611fe260248361257f565b9150611fed8261297d565b604082019050919050565b600061200560198361257f565b9150612010826129cc565b602082019050919050565b6000612028602c8361257f565b9150612033826129f5565b604082019050919050565b600061204b60388361257f565b915061205682612a44565b604082019050919050565b600061206e602a8361257f565b915061207982612a93565b604082019050919050565b600061209160298361257f565b915061209c82612ae2565b604082019050919050565b60006120b4602e8361257f565b91506120bf82612b31565b604082019050919050565b60006120d760208361257f565b91506120e282612b80565b602082019050919050565b60006120fa60318361257f565b915061210582612ba9565b604082019050919050565b600061211d602c8361257f565b915061212882612bf8565b604082019050919050565b6000612140602f8361257f565b915061214b82612c47565b604082019050919050565b6000612163601a8361257f565b915061216e82612c96565b602082019050919050565b600061218660218361257f565b915061219182612cbf565b604082019050919050565b60006121a960318361257f565b91506121b482612d0e565b604082019050919050565b6121c8816126c0565b82525050565b60006121da8285611f3b565b91506121e68284611f3b565b91508190509392505050565b60006020820190506122076000830184611eab565b92915050565b60006080820190506122226000830187611eab565b61222f6020830186611eab565b61223c60408301856121bf565b818103606083015261224e8184611ec9565b905095945050505050565b600060208201905061226e6000830184611eba565b92915050565b6000602082019050818103600083015261228e8184611f02565b905092915050565b600060208201905081810360008301526122af81611f6c565b9050919050565b600060208201905081810360008301526122cf81611f8f565b9050919050565b600060208201905081810360008301526122ef81611fb2565b9050919050565b6000602082019050818103600083015261230f81611fd5565b9050919050565b6000602082019050818103600083015261232f81611ff8565b9050919050565b6000602082019050818103600083015261234f8161201b565b9050919050565b6000602082019050818103600083015261236f8161203e565b9050919050565b6000602082019050818103600083015261238f81612061565b9050919050565b600060208201905081810360008301526123af81612084565b9050919050565b600060208201905081810360008301526123cf816120a7565b9050919050565b600060208201905081810360008301526123ef816120ca565b9050919050565b6000602082019050818103600083015261240f816120ed565b9050919050565b6000602082019050818103600083015261242f81612110565b9050919050565b6000602082019050818103600083015261244f81612133565b9050919050565b6000602082019050818103600083015261246f81612156565b9050919050565b6000602082019050818103600083015261248f81612179565b9050919050565b600060208201905081810360008301526124af8161219c565b9050919050565b60006020820190506124cb60008301846121bf565b92915050565b60006124db6124ec565b90506124e7828261273e565b919050565b6000604051905090565b600067ffffffffffffffff82111561251157612510612876565b5b61251a826128a5565b9050602081019050919050565b600067ffffffffffffffff82111561254257612541612876565b5b61254b826128a5565b9050602081019050919050565b600081519050919050565b600081519050919050565b600082825260208201905092915050565b600082825260208201905092915050565b600081905092915050565b60006125a6826126c0565b91506125b1836126c0565b9250827fffffffffffffffffffffffffffffffffffffffffffffffffffffffffffffffff038211156125e6576125e56127e9565b5b828201905092915050565b60006125fc826126c0565b9150612607836126c0565b92508261261757612616612818565b5b828204905092915050565b600061262d826126c0565b9150612638836126c0565b92508282101561264b5761264a6127e9565b5b828203905092915050565b6000612661826126a0565b9050919050565b60008115159050919050565b60007fffffffff0000000000000000000000000000000000000000000000000000000082169050919050565b600073ffffffffffffffffffffffffffffffffffffffff82169050919050565b6000819050919050565b82818337600083830152505050565b60005b838110156126f75780820151818401526020810190506126dc565b83811115612706576000848401525b50505050565b6000600282049050600182168061272457607f821691505b6020821081141561273857612737612847565b5b50919050565b612747826128a5565b810181811067ffffffffffffffff8211171561276657612765612876565b5b80604052505050565b600061277a826126c0565b91507fffffffffffffffffffffffffffffffffffffffffffffffffffffffffffffffff8214156127ad576127ac6127e9565b5b600182019050919050565b60006127c3826126c0565b91506127ce836126c0565b9250826127de576127dd612818565b5b828206905092915050565b7f4e487b7100000000000000000000000000000000000000000000000000000000600052601160045260246000fd5b7f4e487b7100000000000000000000000000000000000000000000000000000000600052601260045260246000fd5b7f4e487b7100000000000000000000000000000000000000000000000000000000600052602260045260246000fd5b7f4e487b7100000000000000000000000000000000000000000000000000000000600052604160045260246000fd5b6000601f19601f8301169050919050565b7f4552433732313a207472616e7366657220746f206e6f6e20455243373231526560008201527f63656976657220696d706c656d656e7465720000000000000000000000000000602082015250565b7f4552433732313a207472616e736665722066726f6d20696e636f72726563742060008201527f6f776e6572000000000000000000000000000000000000000000000000000000602082015250565b7f4552433732313a20746f6b656e20616c7265616479206d696e74656400000000600082015250565b7f4552433732313a207472616e7366657220746f20746865207a65726f2061646460008201527f7265737300000000000000000000000000000000000000000000000000000000602082015250565b7f4552433732313a20617070726f766520746f2063616c6c657200000000000000600082015250565b7f4552433732313a206f70657261746f7220717565727920666f72206e6f6e657860008201527f697374656e7420746f6b656e0000000000000000000000000000000000000000602082015250565b7f4552433732313a20617070726f76652063616c6c6572206973206e6f74206f7760008201527f6e6572206e6f7220617070726f76656420666f7220616c6c0000000000000000602082015250565b7f4552433732313a2062616c616e636520717565727920666f7220746865207a6560008201527f726f206164647265737300000000000000000000000000000000000000000000602082015250565b7f4552433732313a206f776e657220717565727920666f72206e6f6e657869737460008201527f656e7420746f6b656e0000000000000000000000000000000000000000000000602082015250565b7f45524337323155524953746f726167653a2055524920736574206f66206e6f6e60008201527f6578697374656e7420746f6b656e000000000000000000000000000000000000602082015250565b7f4552433732313a206d696e7420746f20746865207a65726f2061646472657373600082015250565b7f45524337323155524953746f726167653a2055524920717565727920666f722060008201527f6e6f6e6578697374656e7420746f6b656e000000000000000000000000000000602082015250565b7f4552433732313a20617070726f76656420717565727920666f72206e6f6e657860008201527f697374656e7420746f6b656e0000000000000000000000000000000000000000602082015250565b7f4552433732314d657461646174613a2055524920717565727920666f72206e6f60008201527f6e6578697374656e7420746f6b656e0000000000000000000000000000000000602082015250565b7f4f6e6c792043726561746f722063616e2063616c6c2074686973000000000000600082015250565b7f4552433732313a20617070726f76616c20746f2063757272656e74206f776e6560008201527f7200000000000000000000000000000000000000000000000000000000000000602082015250565b7f4552433732313a207472616e736665722063616c6c6572206973206e6f74206f60008201527f776e6572206e6f7220617070726f766564000000000000000000000000000000602082015250565b612d6681612656565b8114612d7157600080fd5b50565b612d7d81612668565b8114612d8857600080fd5b50565b612d9481612674565b8114612d9f57600080fd5b50565b612dab816126c0565b8114612db657600080fd5b5056fea2646970667358221220c2108867e5cd8f9790d109c553f17fdd16d25f675b0ee21eea2d03dab1b480a364736f6c63430008040033a26469706673582212205b467d9e0f2cb487ba84995567c789da04725acca30d8770ea97e6a4dd856f5e64736f6c63430008040033",
  "linkReferences": {},
  "deployedLinkReferences": {}
}