{
  "_format": "hh-sol-artifact-1",
  "contractName": "AltERC721NFTContract",
  "sourceName": "contracts/NFTMarketplace/MintingAndStorage/Enoch/AltERC721NFTContract.sol",
  "abi": [
    {
      "inputs": [
        {
          "internalType": "string",
          "name": "_name",
          "type": "string"
        },
        {
          "internalType": "string",
          "name": "_symbol",
          "type": "string"
        },
        {
          "internalType": "address",
          "name": "_creator",
          "type": "address"
        }
      ],
      "stateMutability": "nonpayable",
      "type": "constructor"
    },
    {
      "anonymous": false,
      "inputs": [
        {
          "indexed": true,
          "internalType": "address",
          "name": "owner",
          "type": "address"
        },
        {
          "indexed": true,
          "internalType": "address",
          "name": "approved",
          "type": "address"
        },
        {
          "indexed": true,
          "internalType": "uint256",
          "name": "tokenId",
          "type": "uint256"
        }
      ],
      "name": "Approval",
      "type": "event"
    },
    {
      "anonymous": false,
      "inputs": [
        {
          "indexed": true,
          "internalType": "address",
          "name": "owner",
          "type": "address"
        },
        {
          "indexed": true,
          "internalType": "address",
          "name": "operator",
          "type": "address"
        },
        {
          "indexed": false,
          "internalType": "bool",
          "name": "approved",
          "type": "bool"
        }
      ],
      "name": "ApprovalForAll",
      "type": "event"
    },
    {
      "anonymous": false,
      "inputs": [
        {
          "indexed": true,
          "internalType": "address",
          "name": "from",
          "type": "address"
        },
        {
          "indexed": true,
          "internalType": "address",
          "name": "to",
          "type": "address"
        },
        {
          "indexed": true,
          "internalType": "uint256",
          "name": "tokenId",
          "type": "uint256"
        }
      ],
      "name": "Transfer",
      "type": "event"
    },
    {
      "inputs": [
        {
          "internalType": "address",
          "name": "to",
          "type": "address"
        },
        {
          "internalType": "uint256",
          "name": "tokenId",
          "type": "uint256"
        }
      ],
      "name": "approve",
      "outputs": [],
      "stateMutability": "nonpayable",
      "type": "function"
    },
    {
      "inputs": [
        {
          "internalType": "address",
          "name": "owner",
          "type": "address"
        }
      ],
      "name": "balanceOf",
      "outputs": [
        {
          "internalType": "uint256",
          "name": "",
          "type": "uint256"
        }
      ],
      "stateMutability": "view",
      "type": "function"
    },
    {
      "inputs": [],
      "name": "creator",
      "outputs": [
        {
          "internalType": "address",
          "name": "",
          "type": "address"
        }
      ],
      "stateMutability": "view",
      "type": "function"
    },
    {
      "inputs": [
        {
          "internalType": "uint256",
          "name": "tokenId",
          "type": "uint256"
        }
      ],
      "name": "getApproved",
      "outputs": [
        {
          "internalType": "address",
          "name": "",
          "type": "address"
        }
      ],
      "stateMutability": "view",
      "type": "function"
    },
    {
      "inputs": [],
      "name": "getTotalNFTs",
      "outputs": [
        {
          "internalType": "uint256",
          "name": "",
          "type": "uint256"
        }
      ],
      "stateMutability": "view",
      "type": "function"
    },
    {
      "inputs": [
        {
          "internalType": "address",
          "name": "owner",
          "type": "address"
        },
        {
          "internalType": "address",
          "name": "operator",
          "type": "address"
        }
      ],
      "name": "isApprovedForAll",
      "outputs": [
        {
          "internalType": "bool",
          "name": "",
          "type": "bool"
        }
      ],
      "stateMutability": "view",
      "type": "function"
    },
    {
      "inputs": [
        {
          "internalType": "string",
          "name": "tokenURI",
          "type": "string"
        }
      ],
      "name": "mintNewNFT",
      "outputs": [
        {
          "internalType": "uint256",
          "name": "",
          "type": "uint256"
        }
      ],
      "stateMutability": "nonpayable",
      "type": "function"
    },
    {
      "inputs": [],
      "name": "name",
      "outputs": [
        {
          "internalType": "string",
          "name": "",
          "type": "string"
        }
      ],
      "stateMutability": "view",
      "type": "function"
    },
    {
      "inputs": [
        {
          "internalType": "uint256",
          "name": "tokenId",
          "type": "uint256"
        }
      ],
      "name": "ownerOf",
      "outputs": [
        {
          "internalType": "address",
          "name": "",
          "type": "address"
        }
      ],
      "stateMutability": "view",
      "type": "function"
    },
    {
      "inputs": [
        {
          "internalType": "address",
          "name": "from",
          "type": "address"
        },
        {
          "internalType": "address",
          "name": "to",
          "type": "address"
        },
        {
          "internalType": "uint256",
          "name": "tokenId",
          "type": "uint256"
        }
      ],
      "name": "safeTransferFrom",
      "outputs": [],
      "stateMutability": "nonpayable",
      "type": "function"
    },
    {
      "inputs": [
        {
          "internalType": "address",
          "name": "from",
          "type": "address"
        },
        {
          "internalType": "address",
          "name": "to",
          "type": "address"
        },
        {
          "internalType": "uint256",
          "name": "tokenId",
          "type": "uint256"
        },
        {
          "internalType": "bytes",
          "name": "_data",
          "type": "bytes"
        }
      ],
      "name": "safeTransferFrom",
      "outputs": [],
      "stateMutability": "nonpayable",
      "type": "function"
    },
    {
      "inputs": [
        {
          "internalType": "address",
          "name": "operator",
          "type": "address"
        },
        {
          "internalType": "bool",
          "name": "approved",
          "type": "bool"
        }
      ],
      "name": "setApprovalForAll",
      "outputs": [],
      "stateMutability": "nonpayable",
      "type": "function"
    },
    {
      "inputs": [
        {
          "internalType": "bytes4",
          "name": "interfaceId",
          "type": "bytes4"
        }
      ],
      "name": "supportsInterface",
      "outputs": [
        {
          "internalType": "bool",
          "name": "",
          "type": "bool"
        }
      ],
      "stateMutability": "view",
      "type": "function"
    },
    {
      "inputs": [],
      "name": "symbol",
      "outputs": [
        {
          "internalType": "string",
          "name": "",
          "type": "string"
        }
      ],
      "stateMutability": "view",
      "type": "function"
    },
    {
      "inputs": [
        {
          "internalType": "uint256",
          "name": "tokenId",
          "type": "uint256"
        }
      ],
      "name": "tokenURI",
      "outputs": [
        {
          "internalType": "string",
          "name": "",
          "type": "string"
        }
      ],
      "stateMutability": "view",
      "type": "function"
    },
    {
      "inputs": [
        {
          "internalType": "address",
          "name": "from",
          "type": "address"
        },
        {
          "internalType": "address",
          "name": "to",
          "type": "address"
        },
        {
          "internalType": "uint256",
          "name": "tokenId",
          "type": "uint256"
        }
      ],
      "name": "transferFrom",
      "outputs": [],
      "stateMutability": "nonpayable",
      "type": "function"
    }
  ],
  "bytecode": "0x60806040523480156200001157600080fd5b5060405162001baf38038062001baf83398101604081905262000034916200027e565b8251839083906200004d90600090602085019062000149565b5080516200006390600190602084019062000149565b505050620000b16040518060400160405280601e81526020017f5468697320697320616e204e465420636f6e74726163742e2057686f61210000815250620000da60201b620008d61760201c565b600880546001600160a01b0319166001600160a01b039290921691909117905550620003c29050565b6200012581604051602401620000f1919062000307565b60408051601f198184030181529190526020810180516001600160e01b0390811663104c13eb60e21b179091526200012816565b50565b80516a636f6e736f6c652e6c6f67602083016000808483855afa5050505050565b82805462000157906200036f565b90600052602060002090601f0160209004810192826200017b5760008555620001c6565b82601f106200019657805160ff1916838001178555620001c6565b82800160010185558215620001c6579182015b82811115620001c6578251825591602001919060010190620001a9565b50620001d4929150620001d8565b5090565b5b80821115620001d45760008155600101620001d9565b600082601f83011262000200578081fd5b81516001600160401b03808211156200021d576200021d620003ac565b604051601f8301601f19908116603f01168101908282118183101715620002485762000248620003ac565b8160405283815286602085880101111562000261578485fd5b620002748460208301602089016200033c565b9695505050505050565b60008060006060848603121562000293578283fd5b83516001600160401b0380821115620002aa578485fd5b620002b887838801620001ef565b94506020860151915080821115620002ce578384fd5b50620002dd86828701620001ef565b604086015190935090506001600160a01b0381168114620002fc578182fd5b809150509250925092565b6020815260008251806020840152620003288160408501602087016200033c565b601f01601f19169190910160400192915050565b60005b83811015620003595781810151838201526020016200033f565b8381111562000369576000848401525b50505050565b600181811c908216806200038457607f821691505b60208210811415620003a657634e487b7160e01b600052602260045260246000fd5b50919050565b634e487b7160e01b600052604160045260246000fd5b6117dd80620003d26000396000f3fe608060405234801561001057600080fd5b50600436106101005760003560e01c806342842e0e11610097578063a22cb46511610066578063a22cb46514610212578063b88d4fde14610225578063c87b56dd14610238578063e985e9c51461024b57600080fd5b806342842e0e146101d15780636352211e146101e457806370a08231146101f757806395d89b411461020a57600080fd5b8063095ea7b3116100d3578063095ea7b31461018057806323b872dd1461019557806330bdb351146101a85780633157631f146101be57600080fd5b806301ffc9a71461010557806302d05d3f1461012d57806306fdde0314610158578063081812fc1461016d575b600080fd5b610118610113366004611492565b610287565b60405190151581526020015b60405180910390f35b600854610140906001600160a01b031681565b6040516001600160a01b039091168152602001610124565b6101606102d9565b60405161012491906115c0565b61014061017b366004611510565b61036b565b61019361018e366004611469565b6103f8565b005b6101936101a336600461137b565b61050e565b6101b061053f565b604051908152602001610124565b6101b06101cc3660046114ca565b61054f565b6101936101df36600461137b565b6105f0565b6101406101f2366004611510565b61060b565b6101b061020536600461132f565b610682565b610160610709565b61019361022036600461142f565b610718565b6101936102333660046113b6565b610727565b610160610246366004611510565b61075f565b610118610259366004611349565b6001600160a01b03918216600090815260056020908152604080832093909416825291909152205460ff1690565b60006001600160e01b031982166380ac58cd60e01b14806102b857506001600160e01b03198216635b5e139f60e01b145b806102d357506301ffc9a760e01b6001600160e01b03198316145b92915050565b6060600080546102e8906116e5565b80601f0160208091040260200160405190810160405280929190818152602001828054610314906116e5565b80156103615780601f1061033657610100808354040283529160200191610361565b820191906000526020600020905b81548152906001019060200180831161034457829003601f168201915b5050505050905090565b60006103768261091c565b6103dc5760405162461bcd60e51b815260206004820152602c60248201527f4552433732313a20617070726f76656420717565727920666f72206e6f6e657860448201526b34b9ba32b73a103a37b5b2b760a11b60648201526084015b60405180910390fd5b506000908152600460205260409020546001600160a01b031690565b60006104038261060b565b9050806001600160a01b0316836001600160a01b031614156104715760405162461bcd60e51b815260206004820152602160248201527f4552433732313a20617070726f76616c20746f2063757272656e74206f776e656044820152603960f91b60648201526084016103d3565b336001600160a01b038216148061048d575061048d8133610259565b6104ff5760405162461bcd60e51b815260206004820152603860248201527f4552433732313a20617070726f76652063616c6c6572206973206e6f74206f7760448201527f6e6572206e6f7220617070726f76656420666f7220616c6c000000000000000060648201526084016103d3565b6105098383610939565b505050565b61051833826109a7565b6105345760405162461bcd60e51b81526004016103d390611625565b610509838383610a8d565b600061054a60075490565b905090565b6008546000906001600160a01b031633146105ac5760405162461bcd60e51b815260206004820152601a60248201527f4f6e6c792043726561746f722063616e2063616c6c207468697300000000000060448201526064016103d3565b6105ba600780546001019055565b60006105c560075490565b6008549091506105de906001600160a01b031682610c29565b6105e88184610d5c565b90505b919050565b61050983838360405180602001604052806000815250610727565b6000818152600260205260408120546001600160a01b0316806105e85760405162461bcd60e51b815260206004820152602960248201527f4552433732313a206f776e657220717565727920666f72206e6f6e657869737460448201526832b73a103a37b5b2b760b91b60648201526084016103d3565b60006001600160a01b0382166106ed5760405162461bcd60e51b815260206004820152602a60248201527f4552433732313a2062616c616e636520717565727920666f7220746865207a65604482015269726f206164647265737360b01b60648201526084016103d3565b506001600160a01b031660009081526003602052604090205490565b6060600180546102e8906116e5565b610723338383610de7565b5050565b61073133836109a7565b61074d5760405162461bcd60e51b81526004016103d390611625565b61075984848484610eb6565b50505050565b606061076a8261091c565b6107d05760405162461bcd60e51b815260206004820152603160248201527f45524337323155524953746f726167653a2055524920717565727920666f72206044820152703737b732bc34b9ba32b73a103a37b5b2b760791b60648201526084016103d3565b600082815260066020526040812080546107e9906116e5565b80601f0160208091040260200160405190810160405280929190818152602001828054610815906116e5565b80156108625780601f1061083757610100808354040283529160200191610862565b820191906000526020600020905b81548152906001019060200180831161084557829003601f168201915b50505050509050600061088060408051602081019091526000815290565b9050805160001415610893575092915050565b8151156108c55780826040516020016108ad929190611554565b60405160208183030381529060405292505050919050565b6108ce84610ee9565b949350505050565b610919816040516024016108ea91906115c0565b60408051601f198184030181529190526020810180516001600160e01b031663104c13eb60e21b179052610fc1565b50565b6000908152600260205260409020546001600160a01b0316151590565b600081815260046020526040902080546001600160a01b0319166001600160a01b038416908117909155819061096e8261060b565b6001600160a01b03167f8c5be1e5ebec7d5bd14f71427d1e84f3dd0314c0f7b2291e5b200ac8c7c3b92560405160405180910390a45050565b60006109b28261091c565b610a135760405162461bcd60e51b815260206004820152602c60248201527f4552433732313a206f70657261746f7220717565727920666f72206e6f6e657860448201526b34b9ba32b73a103a37b5b2b760a11b60648201526084016103d3565b6000610a1e8361060b565b9050806001600160a01b0316846001600160a01b03161480610a595750836001600160a01b0316610a4e8461036b565b6001600160a01b0316145b806108ce57506001600160a01b0380821660009081526005602090815260408083209388168352929052205460ff166108ce565b826001600160a01b0316610aa08261060b565b6001600160a01b031614610b045760405162461bcd60e51b815260206004820152602560248201527f4552433732313a207472616e736665722066726f6d20696e636f72726563742060448201526437bbb732b960d91b60648201526084016103d3565b6001600160a01b038216610b665760405162461bcd60e51b8152602060048201526024808201527f4552433732313a207472616e7366657220746f20746865207a65726f206164646044820152637265737360e01b60648201526084016103d3565b610b71600082610939565b6001600160a01b0383166000908152600360205260408120805460019290610b9a9084906116a2565b90915550506001600160a01b0382166000908152600360205260408120805460019290610bc8908490611676565b909155505060008181526002602052604080822080546001600160a01b0319166001600160a01b0386811691821790925591518493918716917fddf252ad1be2c89b69c2b068fc378daa952ba7f163c4a11628f55a4df523b3ef91a4505050565b6001600160a01b038216610c7f5760405162461bcd60e51b815260206004820181905260248201527f4552433732313a206d696e7420746f20746865207a65726f206164647265737360448201526064016103d3565b610c888161091c565b15610cd55760405162461bcd60e51b815260206004820152601c60248201527f4552433732313a20746f6b656e20616c7265616479206d696e7465640000000060448201526064016103d3565b6001600160a01b0382166000908152600360205260408120805460019290610cfe908490611676565b909155505060008181526002602052604080822080546001600160a01b0319166001600160a01b03861690811790915590518392907fddf252ad1be2c89b69c2b068fc378daa952ba7f163c4a11628f55a4df523b3ef908290a45050565b610d658261091c565b610dc85760405162461bcd60e51b815260206004820152602e60248201527f45524337323155524953746f726167653a2055524920736574206f66206e6f6e60448201526d32bc34b9ba32b73a103a37b5b2b760911b60648201526084016103d3565b6000828152600660209081526040909120825161050992840190611209565b816001600160a01b0316836001600160a01b03161415610e495760405162461bcd60e51b815260206004820152601960248201527f4552433732313a20617070726f766520746f2063616c6c65720000000000000060448201526064016103d3565b6001600160a01b03838116600081815260056020908152604080832094871680845294825291829020805460ff191686151590811790915591519182527f17307eab39ab6107e8899845ad3d59bd9653f200f220920489ca2b5937696c31910160405180910390a3505050565b610ec1848484610a8d565b610ecd84848484610fe2565b6107595760405162461bcd60e51b81526004016103d3906115d3565b6060610ef48261091c565b610f585760405162461bcd60e51b815260206004820152602f60248201527f4552433732314d657461646174613a2055524920717565727920666f72206e6f60448201526e3732bc34b9ba32b73a103a37b5b2b760891b60648201526084016103d3565b6000610f6f60408051602081019091526000815290565b90506000815111610f8f5760405180602001604052806000815250610fba565b80610f99846110ef565b604051602001610faa929190611554565b6040516020818303038152906040525b9392505050565b80516a636f6e736f6c652e6c6f67602083016000808483855afa5050505050565b60006001600160a01b0384163b156110e457604051630a85bd0160e11b81526001600160a01b0385169063150b7a0290611026903390899088908890600401611583565b602060405180830381600087803b15801561104057600080fd5b505af1925050508015611070575060408051601f3d908101601f1916820190925261106d918101906114ae565b60015b6110ca573d80801561109e576040519150601f19603f3d011682016040523d82523d6000602084013e6110a3565b606091505b5080516110c25760405162461bcd60e51b81526004016103d3906115d3565b805181602001fd5b6001600160e01b031916630a85bd0160e11b1490506108ce565b506001949350505050565b6060816111135750506040805180820190915260018152600360fc1b602082015290565b8160005b811561113d578061112781611720565b91506111369050600a8361168e565b9150611117565b60008167ffffffffffffffff81111561116657634e487b7160e01b600052604160045260246000fd5b6040519080825280601f01601f191660200182016040528015611190576020820181803683370190505b5090505b84156108ce576111a56001836116a2565b91506111b2600a8661173b565b6111bd906030611676565b60f81b8183815181106111e057634e487b7160e01b600052603260045260246000fd5b60200101906001600160f81b031916908160001a905350611202600a8661168e565b9450611194565b828054611215906116e5565b90600052602060002090601f016020900481019282611237576000855561127d565b82601f1061125057805160ff191683800117855561127d565b8280016001018555821561127d579182015b8281111561127d578251825591602001919060010190611262565b5061128992915061128d565b5090565b5b80821115611289576000815560010161128e565b600067ffffffffffffffff808411156112bd576112bd61177b565b604051601f8501601f19908116603f011681019082821181831017156112e5576112e561177b565b816040528093508581528686860111156112fe57600080fd5b858560208301376000602087830101525050509392505050565b80356001600160a01b03811681146105eb57600080fd5b600060208284031215611340578081fd5b610fba82611318565b6000806040838503121561135b578081fd5b61136483611318565b915061137260208401611318565b90509250929050565b60008060006060848603121561138f578081fd5b61139884611318565b92506113a660208501611318565b9150604084013590509250925092565b600080600080608085870312156113cb578081fd5b6113d485611318565b93506113e260208601611318565b925060408501359150606085013567ffffffffffffffff811115611404578182fd5b8501601f81018713611414578182fd5b611423878235602084016112a2565b91505092959194509250565b60008060408385031215611441578182fd5b61144a83611318565b91506020830135801515811461145e578182fd5b809150509250929050565b6000806040838503121561147b578182fd5b61148483611318565b946020939093013593505050565b6000602082840312156114a3578081fd5b8135610fba81611791565b6000602082840312156114bf578081fd5b8151610fba81611791565b6000602082840312156114db578081fd5b813567ffffffffffffffff8111156114f1578182fd5b8201601f81018413611501578182fd5b6108ce848235602084016112a2565b600060208284031215611521578081fd5b5035919050565b600081518084526115408160208601602086016116b9565b601f01601f19169290920160200192915050565b600083516115668184602088016116b9565b83519083019061157a8183602088016116b9565b01949350505050565b6001600160a01b03858116825284166020820152604081018390526080606082018190526000906115b690830184611528565b9695505050505050565b602081526000610fba6020830184611528565b60208082526032908201527f4552433732313a207472616e7366657220746f206e6f6e20455243373231526560408201527131b2b4bb32b91034b6b83632b6b2b73a32b960711b606082015260800190565b60208082526031908201527f4552433732313a207472616e736665722063616c6c6572206973206e6f74206f6040820152701ddb995c881b9bdc88185c1c1c9bdd9959607a1b606082015260800190565b600082198211156116895761168961174f565b500190565b60008261169d5761169d611765565b500490565b6000828210156116b4576116b461174f565b500390565b60005b838110156116d45781810151838201526020016116bc565b838111156107595750506000910152565b600181811c908216806116f957607f821691505b6020821081141561171a57634e487b7160e01b600052602260045260246000fd5b50919050565b60006000198214156117345761173461174f565b5060010190565b60008261174a5761174a611765565b500690565b634e487b7160e01b600052601160045260246000fd5b634e487b7160e01b600052601260045260246000fd5b634e487b7160e01b600052604160045260246000fd5b6001600160e01b03198116811461091957600080fdfea2646970667358221220e6cfeb8aa4e0d139d494c074ae210ec2f39d948aff6277af007d5a6a98c9ff7164736f6c63430008040033",
  "linkReferences": {},
  "deployedLinkReferences": {}
}