{
  "_format": "hh-sol-artifact-1",
  "contractName": "ERC721NFTContract",
  "sourceName": "contracts/NFTMarketplace/MintingAndStorage/Carbon/ERC721NFTContract.sol",
  "abi": [
    {
      "inputs": [
        {
          "internalType": "string",
          "name": "_name",
          "type": "string"
        },
        {
          "internalType": "string",
          "name": "_symbol",
          "type": "string"
        }
      ],
      "stateMutability": "nonpayable",
      "type": "constructor"
    },
    {
      "anonymous": false,
      "inputs": [
        {
          "indexed": true,
          "internalType": "address",
          "name": "owner",
          "type": "address"
        },
        {
          "indexed": true,
          "internalType": "address",
          "name": "approved",
          "type": "address"
        },
        {
          "indexed": true,
          "internalType": "uint256",
          "name": "tokenId",
          "type": "uint256"
        }
      ],
      "name": "Approval",
      "type": "event"
    },
    {
      "anonymous": false,
      "inputs": [
        {
          "indexed": true,
          "internalType": "address",
          "name": "owner",
          "type": "address"
        },
        {
          "indexed": true,
          "internalType": "address",
          "name": "operator",
          "type": "address"
        },
        {
          "indexed": false,
          "internalType": "bool",
          "name": "approved",
          "type": "bool"
        }
      ],
      "name": "ApprovalForAll",
      "type": "event"
    },
    {
      "anonymous": false,
      "inputs": [
        {
          "indexed": true,
          "internalType": "address",
          "name": "from",
          "type": "address"
        },
        {
          "indexed": true,
          "internalType": "address",
          "name": "to",
          "type": "address"
        },
        {
          "indexed": true,
          "internalType": "uint256",
          "name": "tokenId",
          "type": "uint256"
        }
      ],
      "name": "Transfer",
      "type": "event"
    },
    {
      "inputs": [
        {
          "internalType": "address",
          "name": "to",
          "type": "address"
        },
        {
          "internalType": "uint256",
          "name": "tokenId",
          "type": "uint256"
        }
      ],
      "name": "approve",
      "outputs": [],
      "stateMutability": "nonpayable",
      "type": "function"
    },
    {
      "inputs": [
        {
          "internalType": "address",
          "name": "owner",
          "type": "address"
        }
      ],
      "name": "balanceOf",
      "outputs": [
        {
          "internalType": "uint256",
          "name": "",
          "type": "uint256"
        }
      ],
      "stateMutability": "view",
      "type": "function"
    },
    {
      "inputs": [
        {
          "internalType": "uint256",
          "name": "tokenId",
          "type": "uint256"
        }
      ],
      "name": "getApproved",
      "outputs": [
        {
          "internalType": "address",
          "name": "",
          "type": "address"
        }
      ],
      "stateMutability": "view",
      "type": "function"
    },
    {
      "inputs": [],
      "name": "getTotalNFTs",
      "outputs": [
        {
          "internalType": "uint256",
          "name": "",
          "type": "uint256"
        }
      ],
      "stateMutability": "view",
      "type": "function"
    },
    {
      "inputs": [
        {
          "internalType": "address",
          "name": "owner",
          "type": "address"
        },
        {
          "internalType": "address",
          "name": "operator",
          "type": "address"
        }
      ],
      "name": "isApprovedForAll",
      "outputs": [
        {
          "internalType": "bool",
          "name": "",
          "type": "bool"
        }
      ],
      "stateMutability": "view",
      "type": "function"
    },
    {
      "inputs": [
        {
          "internalType": "string",
          "name": "tokenURI",
          "type": "string"
        }
      ],
      "name": "mintNewNFT",
      "outputs": [
        {
          "internalType": "uint256",
          "name": "",
          "type": "uint256"
        }
      ],
      "stateMutability": "nonpayable",
      "type": "function"
    },
    {
      "inputs": [],
      "name": "name",
      "outputs": [
        {
          "internalType": "string",
          "name": "",
          "type": "string"
        }
      ],
      "stateMutability": "view",
      "type": "function"
    },
    {
      "inputs": [
        {
          "internalType": "uint256",
          "name": "tokenId",
          "type": "uint256"
        }
      ],
      "name": "ownerOf",
      "outputs": [
        {
          "internalType": "address",
          "name": "",
          "type": "address"
        }
      ],
      "stateMutability": "view",
      "type": "function"
    },
    {
      "inputs": [
        {
          "internalType": "address",
          "name": "from",
          "type": "address"
        },
        {
          "internalType": "address",
          "name": "to",
          "type": "address"
        },
        {
          "internalType": "uint256",
          "name": "tokenId",
          "type": "uint256"
        }
      ],
      "name": "safeTransferFrom",
      "outputs": [],
      "stateMutability": "nonpayable",
      "type": "function"
    },
    {
      "inputs": [
        {
          "internalType": "address",
          "name": "from",
          "type": "address"
        },
        {
          "internalType": "address",
          "name": "to",
          "type": "address"
        },
        {
          "internalType": "uint256",
          "name": "tokenId",
          "type": "uint256"
        },
        {
          "internalType": "bytes",
          "name": "_data",
          "type": "bytes"
        }
      ],
      "name": "safeTransferFrom",
      "outputs": [],
      "stateMutability": "nonpayable",
      "type": "function"
    },
    {
      "inputs": [
        {
          "internalType": "address",
          "name": "operator",
          "type": "address"
        },
        {
          "internalType": "bool",
          "name": "approved",
          "type": "bool"
        }
      ],
      "name": "setApprovalForAll",
      "outputs": [],
      "stateMutability": "nonpayable",
      "type": "function"
    },
    {
      "inputs": [
        {
          "internalType": "bytes4",
          "name": "interfaceId",
          "type": "bytes4"
        }
      ],
      "name": "supportsInterface",
      "outputs": [
        {
          "internalType": "bool",
          "name": "",
          "type": "bool"
        }
      ],
      "stateMutability": "view",
      "type": "function"
    },
    {
      "inputs": [],
      "name": "symbol",
      "outputs": [
        {
          "internalType": "string",
          "name": "",
          "type": "string"
        }
      ],
      "stateMutability": "view",
      "type": "function"
    },
    {
      "inputs": [
        {
          "internalType": "uint256",
          "name": "tokenId",
          "type": "uint256"
        }
      ],
      "name": "tokenURI",
      "outputs": [
        {
          "internalType": "string",
          "name": "",
          "type": "string"
        }
      ],
      "stateMutability": "view",
      "type": "function"
    },
    {
      "inputs": [
        {
          "internalType": "address",
          "name": "from",
          "type": "address"
        },
        {
          "internalType": "address",
          "name": "to",
          "type": "address"
        },
        {
          "internalType": "uint256",
          "name": "tokenId",
          "type": "uint256"
        }
      ],
      "name": "transferFrom",
      "outputs": [],
      "stateMutability": "nonpayable",
      "type": "function"
    }
  ],
  "bytecode": "0x60806040523480156200001157600080fd5b50604051620031a4380380620031a48339818101604052810190620000379190620002ae565b81818160009080519060200190620000519291906200018c565b5080600190805190602001906200006a9291906200018c565b505050620000b86040518060400160405280601e81526020017f5468697320697320616e204e465420636f6e74726163742e2057686f61210000815250620000c060201b62000b631760201c565b505062000512565b6200016081604051602401620000d7919062000362565b6040516020818303038152906040527f41304fac000000000000000000000000000000000000000000000000000000007bffffffffffffffffffffffffffffffffffffffffffffffffffffffff19166020820180517bffffffffffffffffffffffffffffffffffffffffffffffffffffffff83818316178352505050506200016360201b60201c565b50565b60008151905060006a636f6e736f6c652e6c6f679050602083016000808483855afa5050505050565b8280546200019a9062000437565b90600052602060002090601f016020900481019282620001be57600085556200020a565b82601f10620001d957805160ff19168380011785556200020a565b828001600101855582156200020a579182015b8281111562000209578251825591602001919060010190620001ec565b5b5090506200021991906200021d565b5090565b5b80821115620002385760008160009055506001016200021e565b5090565b6000620002536200024d84620003af565b62000386565b9050828152602081018484840111156200026c57600080fd5b6200027984828562000401565b509392505050565b600082601f8301126200029357600080fd5b8151620002a58482602086016200023c565b91505092915050565b60008060408385031215620002c257600080fd5b600083015167ffffffffffffffff811115620002dd57600080fd5b620002eb8582860162000281565b925050602083015167ffffffffffffffff8111156200030957600080fd5b620003178582860162000281565b9150509250929050565b60006200032e82620003e5565b6200033a8185620003f0565b93506200034c81856020860162000401565b620003578162000501565b840191505092915050565b600060208201905081810360008301526200037e818462000321565b905092915050565b600062000392620003a5565b9050620003a082826200046d565b919050565b6000604051905090565b600067ffffffffffffffff821115620003cd57620003cc620004d2565b5b620003d88262000501565b9050602081019050919050565b600081519050919050565b600082825260208201905092915050565b60005b838110156200042157808201518184015260208101905062000404565b8381111562000431576000848401525b50505050565b600060028204905060018216806200045057607f821691505b60208210811415620004675762000466620004a3565b5b50919050565b620004788262000501565b810181811067ffffffffffffffff821117156200049a5762000499620004d2565b5b80604052505050565b7f4e487b7100000000000000000000000000000000000000000000000000000000600052602260045260246000fd5b7f4e487b7100000000000000000000000000000000000000000000000000000000600052604160045260246000fd5b6000601f19601f8301169050919050565b612c8280620005226000396000f3fe608060405234801561001057600080fd5b50600436106100f55760003560e01c806342842e0e11610097578063a22cb46511610066578063a22cb46514610298578063b88d4fde146102b4578063c87b56dd146102d0578063e985e9c514610300576100f5565b806342842e0e146101fe5780636352211e1461021a57806370a082311461024a57806395d89b411461027a576100f5565b8063095ea7b3116100d3578063095ea7b31461017857806323b872dd1461019457806330bdb351146101b05780633157631f146101ce576100f5565b806301ffc9a7146100fa57806306fdde031461012a578063081812fc14610148575b600080fd5b610114600480360381019061010f9190611cee565b610330565b6040516101219190612135565b60405180910390f35b610132610412565b60405161013f9190612150565b60405180910390f35b610162600480360381019061015d9190611d81565b6104a4565b60405161016f91906120ce565b60405180910390f35b610192600480360381019061018d9190611cb2565b610529565b005b6101ae60048036038101906101a99190611bac565b610641565b005b6101b86106a1565b6040516101c59190612372565b60405180910390f35b6101e860048036038101906101e39190611d40565b6106b2565b6040516101f59190612372565b60405180910390f35b61021860048036038101906102139190611bac565b6106e9565b005b610234600480360381019061022f9190611d81565b610709565b60405161024191906120ce565b60405180910390f35b610264600480360381019061025f9190611b47565b6107bb565b6040516102719190612372565b60405180910390f35b610282610873565b60405161028f9190612150565b60405180910390f35b6102b260048036038101906102ad9190611c76565b610905565b005b6102ce60048036038101906102c99190611bfb565b61091b565b005b6102ea60048036038101906102e59190611d81565b61097d565b6040516102f79190612150565b60405180910390f35b61031a60048036038101906103159190611b70565b610acf565b6040516103279190612135565b60405180910390f35b60007f80ac58cd000000000000000000000000000000000000000000000000000000007bffffffffffffffffffffffffffffffffffffffffffffffffffffffff1916827bffffffffffffffffffffffffffffffffffffffffffffffffffffffff191614806103fb57507f5b5e139f000000000000000000000000000000000000000000000000000000007bffffffffffffffffffffffffffffffffffffffffffffffffffffffff1916827bffffffffffffffffffffffffffffffffffffffffffffffffffffffff1916145b8061040b575061040a82610bfc565b5b9050919050565b606060008054610421906125c8565b80601f016020809104026020016040519081016040528092919081815260200182805461044d906125c8565b801561049a5780601f1061046f5761010080835404028352916020019161049a565b820191906000526020600020905b81548152906001019060200180831161047d57829003601f168201915b5050505050905090565b60006104af82610c66565b6104ee576040517f08c379a00000000000000000000000000000000000000000000000000000000081526004016104e5906122f2565b60405180910390fd5b6004600083815260200190815260200160002060009054906101000a900473ffffffffffffffffffffffffffffffffffffffff169050919050565b600061053482610709565b90508073ffffffffffffffffffffffffffffffffffffffff168373ffffffffffffffffffffffffffffffffffffffff1614156105a5576040517f08c379a000000000000000000000000000000000000000000000000000000000815260040161059c90612332565b60405180910390fd5b8073ffffffffffffffffffffffffffffffffffffffff166105c4610cd2565b73ffffffffffffffffffffffffffffffffffffffff1614806105f357506105f2816105ed610cd2565b610acf565b5b610632576040517f08c379a000000000000000000000000000000000000000000000000000000000815260040161062990612232565b60405180910390fd5b61063c8383610cda565b505050565b61065261064c610cd2565b82610d93565b610691576040517f08c379a000000000000000000000000000000000000000000000000000000000815260040161068890612352565b60405180910390fd5b61069c838383610e71565b505050565b60006106ad60076110d8565b905090565b60006106be60076110e6565b60006106ca60076110d8565b90506106d633826110fc565b6106e081846112d6565b80915050919050565b6107048383836040518060200160405280600081525061091b565b505050565b6000806002600084815260200190815260200160002060009054906101000a900473ffffffffffffffffffffffffffffffffffffffff169050600073ffffffffffffffffffffffffffffffffffffffff168173ffffffffffffffffffffffffffffffffffffffff1614156107b2576040517f08c379a00000000000000000000000000000000000000000000000000000000081526004016107a990612272565b60405180910390fd5b80915050919050565b60008073ffffffffffffffffffffffffffffffffffffffff168273ffffffffffffffffffffffffffffffffffffffff16141561082c576040517f08c379a000000000000000000000000000000000000000000000000000000000815260040161082390612252565b60405180910390fd5b600360008373ffffffffffffffffffffffffffffffffffffffff1673ffffffffffffffffffffffffffffffffffffffff168152602001908152602001600020549050919050565b606060018054610882906125c8565b80601f01602080910402602001604051908101604052809291908181526020018280546108ae906125c8565b80156108fb5780601f106108d0576101008083540402835291602001916108fb565b820191906000526020600020905b8154815290600101906020018083116108de57829003601f168201915b5050505050905090565b610917610910610cd2565b838361134a565b5050565b61092c610926610cd2565b83610d93565b61096b576040517f08c379a000000000000000000000000000000000000000000000000000000000815260040161096290612352565b60405180910390fd5b610977848484846114b7565b50505050565b606061098882610c66565b6109c7576040517f08c379a00000000000000000000000000000000000000000000000000000000081526004016109be906122d2565b60405180910390fd5b60006006600084815260200190815260200160002080546109e7906125c8565b80601f0160208091040260200160405190810160405280929190818152602001828054610a13906125c8565b8015610a605780601f10610a3557610100808354040283529160200191610a60565b820191906000526020600020905b815481529060010190602001808311610a4357829003601f168201915b505050505090506000610a71611513565b9050600081511415610a87578192505050610aca565b600082511115610abc578082604051602001610aa49291906120aa565b60405160208183030381529060405292505050610aca565b610ac58461152a565b925050505b919050565b6000600560008473ffffffffffffffffffffffffffffffffffffffff1673ffffffffffffffffffffffffffffffffffffffff16815260200190815260200160002060008373ffffffffffffffffffffffffffffffffffffffff1673ffffffffffffffffffffffffffffffffffffffff16815260200190815260200160002060009054906101000a900460ff16905092915050565b610bf981604051602401610b779190612150565b6040516020818303038152906040527f41304fac000000000000000000000000000000000000000000000000000000007bffffffffffffffffffffffffffffffffffffffffffffffffffffffff19166020820180517bffffffffffffffffffffffffffffffffffffffffffffffffffffffff83818316178352505050506115d1565b50565b60007f01ffc9a7000000000000000000000000000000000000000000000000000000007bffffffffffffffffffffffffffffffffffffffffffffffffffffffff1916827bffffffffffffffffffffffffffffffffffffffffffffffffffffffff1916149050919050565b60008073ffffffffffffffffffffffffffffffffffffffff166002600084815260200190815260200160002060009054906101000a900473ffffffffffffffffffffffffffffffffffffffff1673ffffffffffffffffffffffffffffffffffffffff1614159050919050565b600033905090565b816004600083815260200190815260200160002060006101000a81548173ffffffffffffffffffffffffffffffffffffffff021916908373ffffffffffffffffffffffffffffffffffffffff160217905550808273ffffffffffffffffffffffffffffffffffffffff16610d4d83610709565b73ffffffffffffffffffffffffffffffffffffffff167f8c5be1e5ebec7d5bd14f71427d1e84f3dd0314c0f7b2291e5b200ac8c7c3b92560405160405180910390a45050565b6000610d9e82610c66565b610ddd576040517f08c379a0000000000000000000000000000000000000000000000000000000008152600401610dd490612212565b60405180910390fd5b6000610de883610709565b90508073ffffffffffffffffffffffffffffffffffffffff168473ffffffffffffffffffffffffffffffffffffffff161480610e5757508373ffffffffffffffffffffffffffffffffffffffff16610e3f846104a4565b73ffffffffffffffffffffffffffffffffffffffff16145b80610e685750610e678185610acf565b5b91505092915050565b8273ffffffffffffffffffffffffffffffffffffffff16610e9182610709565b73ffffffffffffffffffffffffffffffffffffffff1614610ee7576040517f08c379a0000000000000000000000000000000000000000000000000000000008152600401610ede90612192565b60405180910390fd5b600073ffffffffffffffffffffffffffffffffffffffff168273ffffffffffffffffffffffffffffffffffffffff161415610f57576040517f08c379a0000000000000000000000000000000000000000000000000000000008152600401610f4e906121d2565b60405180910390fd5b610f628383836115fa565b610f6d600082610cda565b6001600360008573ffffffffffffffffffffffffffffffffffffffff1673ffffffffffffffffffffffffffffffffffffffff1681526020019081526020016000206000828254610fbd91906124de565b925050819055506001600360008473ffffffffffffffffffffffffffffffffffffffff1673ffffffffffffffffffffffffffffffffffffffff16815260200190815260200160002060008282546110149190612457565b92505081905550816002600083815260200190815260200160002060006101000a81548173ffffffffffffffffffffffffffffffffffffffff021916908373ffffffffffffffffffffffffffffffffffffffff160217905550808273ffffffffffffffffffffffffffffffffffffffff168473ffffffffffffffffffffffffffffffffffffffff167fddf252ad1be2c89b69c2b068fc378daa952ba7f163c4a11628f55a4df523b3ef60405160405180910390a46110d38383836115ff565b505050565b600081600001549050919050565b6001816000016000828254019250508190555050565b600073ffffffffffffffffffffffffffffffffffffffff168273ffffffffffffffffffffffffffffffffffffffff16141561116c576040517f08c379a0000000000000000000000000000000000000000000000000000000008152600401611163906122b2565b60405180910390fd5b61117581610c66565b156111b5576040517f08c379a00000000000000000000000000000000000000000000000000000000081526004016111ac906121b2565b60405180910390fd5b6111c1600083836115fa565b6001600360008473ffffffffffffffffffffffffffffffffffffffff1673ffffffffffffffffffffffffffffffffffffffff16815260200190815260200160002060008282546112119190612457565b92505081905550816002600083815260200190815260200160002060006101000a81548173ffffffffffffffffffffffffffffffffffffffff021916908373ffffffffffffffffffffffffffffffffffffffff160217905550808273ffffffffffffffffffffffffffffffffffffffff16600073ffffffffffffffffffffffffffffffffffffffff167fddf252ad1be2c89b69c2b068fc378daa952ba7f163c4a11628f55a4df523b3ef60405160405180910390a46112d2600083836115ff565b5050565b6112df82610c66565b61131e576040517f08c379a000000000000000000000000000000000000000000000000000000000815260040161131590612292565b60405180910390fd5b8060066000848152602001908152602001600020908051906020019061134592919061196b565b505050565b8173ffffffffffffffffffffffffffffffffffffffff168373ffffffffffffffffffffffffffffffffffffffff1614156113b9576040517f08c379a00000000000000000000000000000000000000000000000000000000081526004016113b0906121f2565b60405180910390fd5b80600560008573ffffffffffffffffffffffffffffffffffffffff1673ffffffffffffffffffffffffffffffffffffffff16815260200190815260200160002060008473ffffffffffffffffffffffffffffffffffffffff1673ffffffffffffffffffffffffffffffffffffffff16815260200190815260200160002060006101000a81548160ff0219169083151502179055508173ffffffffffffffffffffffffffffffffffffffff168373ffffffffffffffffffffffffffffffffffffffff167f17307eab39ab6107e8899845ad3d59bd9653f200f220920489ca2b5937696c31836040516114aa9190612135565b60405180910390a3505050565b6114c2848484610e71565b6114ce84848484611604565b61150d576040517f08c379a000000000000000000000000000000000000000000000000000000000815260040161150490612172565b60405180910390fd5b50505050565b606060405180602001604052806000815250905090565b606061153582610c66565b611574576040517f08c379a000000000000000000000000000000000000000000000000000000000815260040161156b90612312565b60405180910390fd5b600061157e611513565b9050600081511161159e57604051806020016040528060008152506115c9565b806115a88461179b565b6040516020016115b99291906120aa565b6040516020818303038152906040525b915050919050565b60008151905060006a636f6e736f6c652e6c6f679050602083016000808483855afa5050505050565b505050565b505050565b60006116258473ffffffffffffffffffffffffffffffffffffffff16611948565b1561178e578373ffffffffffffffffffffffffffffffffffffffff1663150b7a0261164e610cd2565b8786866040518563ffffffff1660e01b815260040161167094939291906120e9565b602060405180830381600087803b15801561168a57600080fd5b505af19250505080156116bb57506040513d601f19601f820116820180604052508101906116b89190611d17565b60015b61173e573d80600081146116eb576040519150601f19603f3d011682016040523d82523d6000602084013e6116f0565b606091505b50600081511415611736576040517f08c379a000000000000000000000000000000000000000000000000000000000815260040161172d90612172565b60405180910390fd5b805181602001fd5b63150b7a0260e01b7bffffffffffffffffffffffffffffffffffffffffffffffffffffffff1916817bffffffffffffffffffffffffffffffffffffffffffffffffffffffff191614915050611793565b600190505b949350505050565b606060008214156117e3576040518060400160405280600181526020017f30000000000000000000000000000000000000000000000000000000000000008152509050611943565b600082905060005b600082146118155780806117fe9061262b565b915050600a8261180e91906124ad565b91506117eb565b60008167ffffffffffffffff811115611857577f4e487b7100000000000000000000000000000000000000000000000000000000600052604160045260246000fd5b6040519080825280601f01601f1916602001820160405280156118895781602001600182028036833780820191505090505b5090505b6000851461193c576001826118a291906124de565b9150600a856118b19190612674565b60306118bd9190612457565b60f81b8183815181106118f9577f4e487b7100000000000000000000000000000000000000000000000000000000600052603260045260246000fd5b60200101907effffffffffffffffffffffffffffffffffffffffffffffffffffffffffffff1916908160001a905350600a8561193591906124ad565b945061188d565b8093505050505b919050565b6000808273ffffffffffffffffffffffffffffffffffffffff163b119050919050565b828054611977906125c8565b90600052602060002090601f01602090048101928261199957600085556119e0565b82601f106119b257805160ff19168380011785556119e0565b828001600101855582156119e0579182015b828111156119df5782518255916020019190600101906119c4565b5b5090506119ed91906119f1565b5090565b5b80821115611a0a5760008160009055506001016119f2565b5090565b6000611a21611a1c846123b2565b61238d565b905082815260208101848484011115611a3957600080fd5b611a44848285612586565b509392505050565b6000611a5f611a5a846123e3565b61238d565b905082815260208101848484011115611a7757600080fd5b611a82848285612586565b509392505050565b600081359050611a9981612bf0565b92915050565b600081359050611aae81612c07565b92915050565b600081359050611ac381612c1e565b92915050565b600081519050611ad881612c1e565b92915050565b600082601f830112611aef57600080fd5b8135611aff848260208601611a0e565b91505092915050565b600082601f830112611b1957600080fd5b8135611b29848260208601611a4c565b91505092915050565b600081359050611b4181612c35565b92915050565b600060208284031215611b5957600080fd5b6000611b6784828501611a8a565b91505092915050565b60008060408385031215611b8357600080fd5b6000611b9185828601611a8a565b9250506020611ba285828601611a8a565b9150509250929050565b600080600060608486031215611bc157600080fd5b6000611bcf86828701611a8a565b9350506020611be086828701611a8a565b9250506040611bf186828701611b32565b9150509250925092565b60008060008060808587031215611c1157600080fd5b6000611c1f87828801611a8a565b9450506020611c3087828801611a8a565b9350506040611c4187828801611b32565b925050606085013567ffffffffffffffff811115611c5e57600080fd5b611c6a87828801611ade565b91505092959194509250565b60008060408385031215611c8957600080fd5b6000611c9785828601611a8a565b9250506020611ca885828601611a9f565b9150509250929050565b60008060408385031215611cc557600080fd5b6000611cd385828601611a8a565b9250506020611ce485828601611b32565b9150509250929050565b600060208284031215611d0057600080fd5b6000611d0e84828501611ab4565b91505092915050565b600060208284031215611d2957600080fd5b6000611d3784828501611ac9565b91505092915050565b600060208284031215611d5257600080fd5b600082013567ffffffffffffffff811115611d6c57600080fd5b611d7884828501611b08565b91505092915050565b600060208284031215611d9357600080fd5b6000611da184828501611b32565b91505092915050565b611db381612512565b82525050565b611dc281612524565b82525050565b6000611dd382612414565b611ddd818561242a565b9350611ded818560208601612595565b611df681612761565b840191505092915050565b6000611e0c8261241f565b611e16818561243b565b9350611e26818560208601612595565b611e2f81612761565b840191505092915050565b6000611e458261241f565b611e4f818561244c565b9350611e5f818560208601612595565b80840191505092915050565b6000611e7860328361243b565b9150611e8382612772565b604082019050919050565b6000611e9b60258361243b565b9150611ea6826127c1565b604082019050919050565b6000611ebe601c8361243b565b9150611ec982612810565b602082019050919050565b6000611ee160248361243b565b9150611eec82612839565b604082019050919050565b6000611f0460198361243b565b9150611f0f82612888565b602082019050919050565b6000611f27602c8361243b565b9150611f32826128b1565b604082019050919050565b6000611f4a60388361243b565b9150611f5582612900565b604082019050919050565b6000611f6d602a8361243b565b9150611f788261294f565b604082019050919050565b6000611f9060298361243b565b9150611f9b8261299e565b604082019050919050565b6000611fb3602e8361243b565b9150611fbe826129ed565b604082019050919050565b6000611fd660208361243b565b9150611fe182612a3c565b602082019050919050565b6000611ff960318361243b565b915061200482612a65565b604082019050919050565b600061201c602c8361243b565b915061202782612ab4565b604082019050919050565b600061203f602f8361243b565b915061204a82612b03565b604082019050919050565b600061206260218361243b565b915061206d82612b52565b604082019050919050565b600061208560318361243b565b915061209082612ba1565b604082019050919050565b6120a48161257c565b82525050565b60006120b68285611e3a565b91506120c28284611e3a565b91508190509392505050565b60006020820190506120e36000830184611daa565b92915050565b60006080820190506120fe6000830187611daa565b61210b6020830186611daa565b612118604083018561209b565b818103606083015261212a8184611dc8565b905095945050505050565b600060208201905061214a6000830184611db9565b92915050565b6000602082019050818103600083015261216a8184611e01565b905092915050565b6000602082019050818103600083015261218b81611e6b565b9050919050565b600060208201905081810360008301526121ab81611e8e565b9050919050565b600060208201905081810360008301526121cb81611eb1565b9050919050565b600060208201905081810360008301526121eb81611ed4565b9050919050565b6000602082019050818103600083015261220b81611ef7565b9050919050565b6000602082019050818103600083015261222b81611f1a565b9050919050565b6000602082019050818103600083015261224b81611f3d565b9050919050565b6000602082019050818103600083015261226b81611f60565b9050919050565b6000602082019050818103600083015261228b81611f83565b9050919050565b600060208201905081810360008301526122ab81611fa6565b9050919050565b600060208201905081810360008301526122cb81611fc9565b9050919050565b600060208201905081810360008301526122eb81611fec565b9050919050565b6000602082019050818103600083015261230b8161200f565b9050919050565b6000602082019050818103600083015261232b81612032565b9050919050565b6000602082019050818103600083015261234b81612055565b9050919050565b6000602082019050818103600083015261236b81612078565b9050919050565b6000602082019050612387600083018461209b565b92915050565b60006123976123a8565b90506123a382826125fa565b919050565b6000604051905090565b600067ffffffffffffffff8211156123cd576123cc612732565b5b6123d682612761565b9050602081019050919050565b600067ffffffffffffffff8211156123fe576123fd612732565b5b61240782612761565b9050602081019050919050565b600081519050919050565b600081519050919050565b600082825260208201905092915050565b600082825260208201905092915050565b600081905092915050565b60006124628261257c565b915061246d8361257c565b9250827fffffffffffffffffffffffffffffffffffffffffffffffffffffffffffffffff038211156124a2576124a16126a5565b5b828201905092915050565b60006124b88261257c565b91506124c38361257c565b9250826124d3576124d26126d4565b5b828204905092915050565b60006124e98261257c565b91506124f48361257c565b925082821015612507576125066126a5565b5b828203905092915050565b600061251d8261255c565b9050919050565b60008115159050919050565b60007fffffffff0000000000000000000000000000000000000000000000000000000082169050919050565b600073ffffffffffffffffffffffffffffffffffffffff82169050919050565b6000819050919050565b82818337600083830152505050565b60005b838110156125b3578082015181840152602081019050612598565b838111156125c2576000848401525b50505050565b600060028204905060018216806125e057607f821691505b602082108114156125f4576125f3612703565b5b50919050565b61260382612761565b810181811067ffffffffffffffff8211171561262257612621612732565b5b80604052505050565b60006126368261257c565b91507fffffffffffffffffffffffffffffffffffffffffffffffffffffffffffffffff821415612669576126686126a5565b5b600182019050919050565b600061267f8261257c565b915061268a8361257c565b92508261269a576126996126d4565b5b828206905092915050565b7f4e487b7100000000000000000000000000000000000000000000000000000000600052601160045260246000fd5b7f4e487b7100000000000000000000000000000000000000000000000000000000600052601260045260246000fd5b7f4e487b7100000000000000000000000000000000000000000000000000000000600052602260045260246000fd5b7f4e487b7100000000000000000000000000000000000000000000000000000000600052604160045260246000fd5b6000601f19601f8301169050919050565b7f4552433732313a207472616e7366657220746f206e6f6e20455243373231526560008201527f63656976657220696d706c656d656e7465720000000000000000000000000000602082015250565b7f4552433732313a207472616e736665722066726f6d20696e636f72726563742060008201527f6f776e6572000000000000000000000000000000000000000000000000000000602082015250565b7f4552433732313a20746f6b656e20616c7265616479206d696e74656400000000600082015250565b7f4552433732313a207472616e7366657220746f20746865207a65726f2061646460008201527f7265737300000000000000000000000000000000000000000000000000000000602082015250565b7f4552433732313a20617070726f766520746f2063616c6c657200000000000000600082015250565b7f4552433732313a206f70657261746f7220717565727920666f72206e6f6e657860008201527f697374656e7420746f6b656e0000000000000000000000000000000000000000602082015250565b7f4552433732313a20617070726f76652063616c6c6572206973206e6f74206f7760008201527f6e6572206e6f7220617070726f76656420666f7220616c6c0000000000000000602082015250565b7f4552433732313a2062616c616e636520717565727920666f7220746865207a6560008201527f726f206164647265737300000000000000000000000000000000000000000000602082015250565b7f4552433732313a206f776e657220717565727920666f72206e6f6e657869737460008201527f656e7420746f6b656e0000000000000000000000000000000000000000000000602082015250565b7f45524337323155524953746f726167653a2055524920736574206f66206e6f6e60008201527f6578697374656e7420746f6b656e000000000000000000000000000000000000602082015250565b7f4552433732313a206d696e7420746f20746865207a65726f2061646472657373600082015250565b7f45524337323155524953746f726167653a2055524920717565727920666f722060008201527f6e6f6e6578697374656e7420746f6b656e000000000000000000000000000000602082015250565b7f4552433732313a20617070726f76656420717565727920666f72206e6f6e657860008201527f697374656e7420746f6b656e0000000000000000000000000000000000000000602082015250565b7f4552433732314d657461646174613a2055524920717565727920666f72206e6f60008201527f6e6578697374656e7420746f6b656e0000000000000000000000000000000000602082015250565b7f4552433732313a20617070726f76616c20746f2063757272656e74206f776e6560008201527f7200000000000000000000000000000000000000000000000000000000000000602082015250565b7f4552433732313a207472616e736665722063616c6c6572206973206e6f74206f60008201527f776e6572206e6f7220617070726f766564000000000000000000000000000000602082015250565b612bf981612512565b8114612c0457600080fd5b50565b612c1081612524565b8114612c1b57600080fd5b50565b612c2781612530565b8114612c3257600080fd5b50565b612c3e8161257c565b8114612c4957600080fd5b5056fea2646970667358221220ce8843962c74605ed64639ec7359131522123aa2db5d2aaf7e6618068b3a2fed64736f6c63430008040033",
  "linkReferences": {},
  "deployedLinkReferences": {}
}