{
  "_format": "hh-sol-artifact-1",
  "contractName": "ERC721NFTContract",
  "sourceName": "contracts/NFTMarketplace/MintingAndStorage/Carbon/ERC721NFTContract.sol",
  "abi": [
    {
      "inputs": [
        {
          "internalType": "string",
          "name": "_name",
          "type": "string"
        },
        {
          "internalType": "string",
          "name": "_symbol",
          "type": "string"
        }
      ],
      "stateMutability": "nonpayable",
      "type": "constructor"
    },
    {
      "anonymous": false,
      "inputs": [
        {
          "indexed": true,
          "internalType": "address",
          "name": "owner",
          "type": "address"
        },
        {
          "indexed": true,
          "internalType": "address",
          "name": "approved",
          "type": "address"
        },
        {
          "indexed": true,
          "internalType": "uint256",
          "name": "tokenId",
          "type": "uint256"
        }
      ],
      "name": "Approval",
      "type": "event"
    },
    {
      "anonymous": false,
      "inputs": [
        {
          "indexed": true,
          "internalType": "address",
          "name": "owner",
          "type": "address"
        },
        {
          "indexed": true,
          "internalType": "address",
          "name": "operator",
          "type": "address"
        },
        {
          "indexed": false,
          "internalType": "bool",
          "name": "approved",
          "type": "bool"
        }
      ],
      "name": "ApprovalForAll",
      "type": "event"
    },
    {
      "anonymous": false,
      "inputs": [
        {
          "indexed": true,
          "internalType": "address",
          "name": "from",
          "type": "address"
        },
        {
          "indexed": true,
          "internalType": "address",
          "name": "to",
          "type": "address"
        },
        {
          "indexed": true,
          "internalType": "uint256",
          "name": "tokenId",
          "type": "uint256"
        }
      ],
      "name": "Transfer",
      "type": "event"
    },
    {
      "inputs": [
        {
          "internalType": "address",
          "name": "to",
          "type": "address"
        },
        {
          "internalType": "uint256",
          "name": "tokenId",
          "type": "uint256"
        }
      ],
      "name": "approve",
      "outputs": [],
      "stateMutability": "nonpayable",
      "type": "function"
    },
    {
      "inputs": [
        {
          "internalType": "address",
          "name": "owner",
          "type": "address"
        }
      ],
      "name": "balanceOf",
      "outputs": [
        {
          "internalType": "uint256",
          "name": "",
          "type": "uint256"
        }
      ],
      "stateMutability": "view",
      "type": "function"
    },
    {
      "inputs": [
        {
          "internalType": "uint256",
          "name": "tokenId",
          "type": "uint256"
        }
      ],
      "name": "getApproved",
      "outputs": [
        {
          "internalType": "address",
          "name": "",
          "type": "address"
        }
      ],
      "stateMutability": "view",
      "type": "function"
    },
    {
      "inputs": [],
      "name": "getTotalNFTs",
      "outputs": [
        {
          "internalType": "uint256",
          "name": "",
          "type": "uint256"
        }
      ],
      "stateMutability": "view",
      "type": "function"
    },
    {
      "inputs": [
        {
          "internalType": "address",
          "name": "owner",
          "type": "address"
        },
        {
          "internalType": "address",
          "name": "operator",
          "type": "address"
        }
      ],
      "name": "isApprovedForAll",
      "outputs": [
        {
          "internalType": "bool",
          "name": "",
          "type": "bool"
        }
      ],
      "stateMutability": "view",
      "type": "function"
    },
    {
      "inputs": [
        {
          "internalType": "string",
          "name": "tokenURI",
          "type": "string"
        }
      ],
      "name": "mintNewNFT",
      "outputs": [
        {
          "internalType": "uint256",
          "name": "",
          "type": "uint256"
        }
      ],
      "stateMutability": "nonpayable",
      "type": "function"
    },
    {
      "inputs": [],
      "name": "name",
      "outputs": [
        {
          "internalType": "string",
          "name": "",
          "type": "string"
        }
      ],
      "stateMutability": "view",
      "type": "function"
    },
    {
      "inputs": [
        {
          "internalType": "uint256",
          "name": "tokenId",
          "type": "uint256"
        }
      ],
      "name": "ownerOf",
      "outputs": [
        {
          "internalType": "address",
          "name": "",
          "type": "address"
        }
      ],
      "stateMutability": "view",
      "type": "function"
    },
    {
      "inputs": [
        {
          "internalType": "address",
          "name": "from",
          "type": "address"
        },
        {
          "internalType": "address",
          "name": "to",
          "type": "address"
        },
        {
          "internalType": "uint256",
          "name": "tokenId",
          "type": "uint256"
        }
      ],
      "name": "safeTransferFrom",
      "outputs": [],
      "stateMutability": "nonpayable",
      "type": "function"
    },
    {
      "inputs": [
        {
          "internalType": "address",
          "name": "from",
          "type": "address"
        },
        {
          "internalType": "address",
          "name": "to",
          "type": "address"
        },
        {
          "internalType": "uint256",
          "name": "tokenId",
          "type": "uint256"
        },
        {
          "internalType": "bytes",
          "name": "_data",
          "type": "bytes"
        }
      ],
      "name": "safeTransferFrom",
      "outputs": [],
      "stateMutability": "nonpayable",
      "type": "function"
    },
    {
      "inputs": [
        {
          "internalType": "address",
          "name": "operator",
          "type": "address"
        },
        {
          "internalType": "bool",
          "name": "approved",
          "type": "bool"
        }
      ],
      "name": "setApprovalForAll",
      "outputs": [],
      "stateMutability": "nonpayable",
      "type": "function"
    },
    {
      "inputs": [
        {
          "internalType": "bytes4",
          "name": "interfaceId",
          "type": "bytes4"
        }
      ],
      "name": "supportsInterface",
      "outputs": [
        {
          "internalType": "bool",
          "name": "",
          "type": "bool"
        }
      ],
      "stateMutability": "view",
      "type": "function"
    },
    {
      "inputs": [],
      "name": "symbol",
      "outputs": [
        {
          "internalType": "string",
          "name": "",
          "type": "string"
        }
      ],
      "stateMutability": "view",
      "type": "function"
    },
    {
      "inputs": [
        {
          "internalType": "uint256",
          "name": "tokenId",
          "type": "uint256"
        }
      ],
      "name": "tokenURI",
      "outputs": [
        {
          "internalType": "string",
          "name": "",
          "type": "string"
        }
      ],
      "stateMutability": "view",
      "type": "function"
    },
    {
      "inputs": [
        {
          "internalType": "address",
          "name": "from",
          "type": "address"
        },
        {
          "internalType": "address",
          "name": "to",
          "type": "address"
        },
        {
          "internalType": "uint256",
          "name": "tokenId",
          "type": "uint256"
        }
      ],
      "name": "transferFrom",
      "outputs": [],
      "stateMutability": "nonpayable",
      "type": "function"
    }
  ],
  "bytecode": "0x60806040523480156200001157600080fd5b5060405162001ae338038062001ae383398101604081905262000034916200025d565b8151829082906200004d90600090602085019062000128565b5080516200006390600190602084019062000128565b505050620000b16040518060400160405280601e81526020017f5468697320697320616e204e465420636f6e74726163742e2057686f61210000815250620000b960201b620008481760201c565b50506200037f565b6200010481604051602401620000d09190620002c4565b60408051601f198184030181529190526020810180516001600160e01b0390811663104c13eb60e21b179091526200010716565b50565b80516a636f6e736f6c652e6c6f67602083016000808483855afa5050505050565b82805462000136906200032c565b90600052602060002090601f0160209004810192826200015a5760008555620001a5565b82601f106200017557805160ff1916838001178555620001a5565b82800160010185558215620001a5579182015b82811115620001a557825182559160200191906001019062000188565b50620001b3929150620001b7565b5090565b5b80821115620001b35760008155600101620001b8565b600082601f830112620001df578081fd5b81516001600160401b0380821115620001fc57620001fc62000369565b604051601f8301601f19908116603f0116810190828211818310171562000227576200022762000369565b8160405283815286602085880101111562000240578485fd5b62000253846020830160208901620002f9565b9695505050505050565b6000806040838503121562000270578182fd5b82516001600160401b038082111562000287578384fd5b6200029586838701620001ce565b93506020850151915080821115620002ab578283fd5b50620002ba85828601620001ce565b9150509250929050565b6020815260008251806020840152620002e5816040850160208701620002f9565b601f01601f19169190910160400192915050565b60005b8381101562000316578181015183820152602001620002fc565b8381111562000326576000848401525b50505050565b600181811c908216806200034157607f821691505b602082108114156200036357634e487b7160e01b600052602260045260246000fd5b50919050565b634e487b7160e01b600052604160045260246000fd5b611754806200038f6000396000f3fe608060405234801561001057600080fd5b50600436106100f55760003560e01c806342842e0e11610097578063a22cb46511610066578063a22cb465146101f4578063b88d4fde14610207578063c87b56dd1461021a578063e985e9c51461022d57600080fd5b806342842e0e146101b35780636352211e146101c657806370a08231146101d957806395d89b41146101ec57600080fd5b8063095ea7b3116100d3578063095ea7b31461016257806323b872dd1461017757806330bdb3511461018a5780633157631f146101a057600080fd5b806301ffc9a7146100fa57806306fdde0314610122578063081812fc14610137575b600080fd5b61010d610108366004611409565b610269565b60405190151581526020015b60405180910390f35b61012a6102bb565b6040516101199190611537565b61014a610145366004611487565b61034d565b6040516001600160a01b039091168152602001610119565b6101756101703660046113e0565b6103da565b005b6101756101853660046112f2565b6104f0565b610192610521565b604051908152602001610119565b6101926101ae366004611441565b610531565b6101756101c13660046112f2565b610562565b61014a6101d4366004611487565b61057d565b6101926101e73660046112a6565b6105f4565b61012a61067b565b6101756102023660046113a6565b61068a565b61017561021536600461132d565b610699565b61012a610228366004611487565b6106d1565b61010d61023b3660046112c0565b6001600160a01b03918216600090815260056020908152604080832093909416825291909152205460ff1690565b60006001600160e01b031982166380ac58cd60e01b148061029a57506001600160e01b03198216635b5e139f60e01b145b806102b557506301ffc9a760e01b6001600160e01b03198316145b92915050565b6060600080546102ca9061165c565b80601f01602080910402602001604051908101604052809291908181526020018280546102f69061165c565b80156103435780601f1061031857610100808354040283529160200191610343565b820191906000526020600020905b81548152906001019060200180831161032657829003601f168201915b5050505050905090565b60006103588261088e565b6103be5760405162461bcd60e51b815260206004820152602c60248201527f4552433732313a20617070726f76656420717565727920666f72206e6f6e657860448201526b34b9ba32b73a103a37b5b2b760a11b60648201526084015b60405180910390fd5b506000908152600460205260409020546001600160a01b031690565b60006103e58261057d565b9050806001600160a01b0316836001600160a01b031614156104535760405162461bcd60e51b815260206004820152602160248201527f4552433732313a20617070726f76616c20746f2063757272656e74206f776e656044820152603960f91b60648201526084016103b5565b336001600160a01b038216148061046f575061046f813361023b565b6104e15760405162461bcd60e51b815260206004820152603860248201527f4552433732313a20617070726f76652063616c6c6572206973206e6f74206f7760448201527f6e6572206e6f7220617070726f76656420666f7220616c6c000000000000000060648201526084016103b5565b6104eb83836108ab565b505050565b6104fa3382610919565b6105165760405162461bcd60e51b81526004016103b59061159c565b6104eb8383836109ff565b600061052c60075490565b905090565b6000610541600780546001019055565b600061054c60075490565b90506105583382610b9b565b6102b58184610cce565b6104eb83838360405180602001604052806000815250610699565b6000818152600260205260408120546001600160a01b0316806102b55760405162461bcd60e51b815260206004820152602960248201527f4552433732313a206f776e657220717565727920666f72206e6f6e657869737460448201526832b73a103a37b5b2b760b91b60648201526084016103b5565b60006001600160a01b03821661065f5760405162461bcd60e51b815260206004820152602a60248201527f4552433732313a2062616c616e636520717565727920666f7220746865207a65604482015269726f206164647265737360b01b60648201526084016103b5565b506001600160a01b031660009081526003602052604090205490565b6060600180546102ca9061165c565b610695338383610d59565b5050565b6106a33383610919565b6106bf5760405162461bcd60e51b81526004016103b59061159c565b6106cb84848484610e28565b50505050565b60606106dc8261088e565b6107425760405162461bcd60e51b815260206004820152603160248201527f45524337323155524953746f726167653a2055524920717565727920666f72206044820152703737b732bc34b9ba32b73a103a37b5b2b760791b60648201526084016103b5565b6000828152600660205260408120805461075b9061165c565b80601f01602080910402602001604051908101604052809291908181526020018280546107879061165c565b80156107d45780601f106107a9576101008083540402835291602001916107d4565b820191906000526020600020905b8154815290600101906020018083116107b757829003601f168201915b5050505050905060006107f260408051602081019091526000815290565b9050805160001415610805575092915050565b81511561083757808260405160200161081f9291906114cb565b60405160208183030381529060405292505050919050565b61084084610e5b565b949350505050565b61088b8160405160240161085c9190611537565b60408051601f198184030181529190526020810180516001600160e01b031663104c13eb60e21b179052610f33565b50565b6000908152600260205260409020546001600160a01b0316151590565b600081815260046020526040902080546001600160a01b0319166001600160a01b03841690811790915581906108e08261057d565b6001600160a01b03167f8c5be1e5ebec7d5bd14f71427d1e84f3dd0314c0f7b2291e5b200ac8c7c3b92560405160405180910390a45050565b60006109248261088e565b6109855760405162461bcd60e51b815260206004820152602c60248201527f4552433732313a206f70657261746f7220717565727920666f72206e6f6e657860448201526b34b9ba32b73a103a37b5b2b760a11b60648201526084016103b5565b60006109908361057d565b9050806001600160a01b0316846001600160a01b031614806109cb5750836001600160a01b03166109c08461034d565b6001600160a01b0316145b8061084057506001600160a01b0380821660009081526005602090815260408083209388168352929052205460ff16610840565b826001600160a01b0316610a128261057d565b6001600160a01b031614610a765760405162461bcd60e51b815260206004820152602560248201527f4552433732313a207472616e736665722066726f6d20696e636f72726563742060448201526437bbb732b960d91b60648201526084016103b5565b6001600160a01b038216610ad85760405162461bcd60e51b8152602060048201526024808201527f4552433732313a207472616e7366657220746f20746865207a65726f206164646044820152637265737360e01b60648201526084016103b5565b610ae36000826108ab565b6001600160a01b0383166000908152600360205260408120805460019290610b0c908490611619565b90915550506001600160a01b0382166000908152600360205260408120805460019290610b3a9084906115ed565b909155505060008181526002602052604080822080546001600160a01b0319166001600160a01b0386811691821790925591518493918716917fddf252ad1be2c89b69c2b068fc378daa952ba7f163c4a11628f55a4df523b3ef91a4505050565b6001600160a01b038216610bf15760405162461bcd60e51b815260206004820181905260248201527f4552433732313a206d696e7420746f20746865207a65726f206164647265737360448201526064016103b5565b610bfa8161088e565b15610c475760405162461bcd60e51b815260206004820152601c60248201527f4552433732313a20746f6b656e20616c7265616479206d696e7465640000000060448201526064016103b5565b6001600160a01b0382166000908152600360205260408120805460019290610c709084906115ed565b909155505060008181526002602052604080822080546001600160a01b0319166001600160a01b03861690811790915590518392907fddf252ad1be2c89b69c2b068fc378daa952ba7f163c4a11628f55a4df523b3ef908290a45050565b610cd78261088e565b610d3a5760405162461bcd60e51b815260206004820152602e60248201527f45524337323155524953746f726167653a2055524920736574206f66206e6f6e60448201526d32bc34b9ba32b73a103a37b5b2b760911b60648201526084016103b5565b600082815260066020908152604090912082516104eb9284019061117b565b816001600160a01b0316836001600160a01b03161415610dbb5760405162461bcd60e51b815260206004820152601960248201527f4552433732313a20617070726f766520746f2063616c6c65720000000000000060448201526064016103b5565b6001600160a01b03838116600081815260056020908152604080832094871680845294825291829020805460ff191686151590811790915591519182527f17307eab39ab6107e8899845ad3d59bd9653f200f220920489ca2b5937696c31910160405180910390a3505050565b610e338484846109ff565b610e3f84848484610f54565b6106cb5760405162461bcd60e51b81526004016103b59061154a565b6060610e668261088e565b610eca5760405162461bcd60e51b815260206004820152602f60248201527f4552433732314d657461646174613a2055524920717565727920666f72206e6f60448201526e3732bc34b9ba32b73a103a37b5b2b760891b60648201526084016103b5565b6000610ee160408051602081019091526000815290565b90506000815111610f015760405180602001604052806000815250610f2c565b80610f0b84611061565b604051602001610f1c9291906114cb565b6040516020818303038152906040525b9392505050565b80516a636f6e736f6c652e6c6f67602083016000808483855afa5050505050565b60006001600160a01b0384163b1561105657604051630a85bd0160e11b81526001600160a01b0385169063150b7a0290610f989033908990889088906004016114fa565b602060405180830381600087803b158015610fb257600080fd5b505af1925050508015610fe2575060408051601f3d908101601f19168201909252610fdf91810190611425565b60015b61103c573d808015611010576040519150601f19603f3d011682016040523d82523d6000602084013e611015565b606091505b5080516110345760405162461bcd60e51b81526004016103b59061154a565b805181602001fd5b6001600160e01b031916630a85bd0160e11b149050610840565b506001949350505050565b6060816110855750506040805180820190915260018152600360fc1b602082015290565b8160005b81156110af578061109981611697565b91506110a89050600a83611605565b9150611089565b60008167ffffffffffffffff8111156110d857634e487b7160e01b600052604160045260246000fd5b6040519080825280601f01601f191660200182016040528015611102576020820181803683370190505b5090505b841561084057611117600183611619565b9150611124600a866116b2565b61112f9060306115ed565b60f81b81838151811061115257634e487b7160e01b600052603260045260246000fd5b60200101906001600160f81b031916908160001a905350611174600a86611605565b9450611106565b8280546111879061165c565b90600052602060002090601f0160209004810192826111a957600085556111ef565b82601f106111c257805160ff19168380011785556111ef565b828001600101855582156111ef579182015b828111156111ef5782518255916020019190600101906111d4565b506111fb9291506111ff565b5090565b5b808211156111fb5760008155600101611200565b600067ffffffffffffffff8084111561122f5761122f6116f2565b604051601f8501601f19908116603f01168101908282118183101715611257576112576116f2565b8160405280935085815286868601111561127057600080fd5b858560208301376000602087830101525050509392505050565b80356001600160a01b03811681146112a157600080fd5b919050565b6000602082840312156112b7578081fd5b610f2c8261128a565b600080604083850312156112d2578081fd5b6112db8361128a565b91506112e96020840161128a565b90509250929050565b600080600060608486031215611306578081fd5b61130f8461128a565b925061131d6020850161128a565b9150604084013590509250925092565b60008060008060808587031215611342578081fd5b61134b8561128a565b93506113596020860161128a565b925060408501359150606085013567ffffffffffffffff81111561137b578182fd5b8501601f8101871361138b578182fd5b61139a87823560208401611214565b91505092959194509250565b600080604083850312156113b8578182fd5b6113c18361128a565b9150602083013580151581146113d5578182fd5b809150509250929050565b600080604083850312156113f2578182fd5b6113fb8361128a565b946020939093013593505050565b60006020828403121561141a578081fd5b8135610f2c81611708565b600060208284031215611436578081fd5b8151610f2c81611708565b600060208284031215611452578081fd5b813567ffffffffffffffff811115611468578182fd5b8201601f81018413611478578182fd5b61084084823560208401611214565b600060208284031215611498578081fd5b5035919050565b600081518084526114b7816020860160208601611630565b601f01601f19169290920160200192915050565b600083516114dd818460208801611630565b8351908301906114f1818360208801611630565b01949350505050565b6001600160a01b038581168252841660208201526040810183905260806060820181905260009061152d9083018461149f565b9695505050505050565b602081526000610f2c602083018461149f565b60208082526032908201527f4552433732313a207472616e7366657220746f206e6f6e20455243373231526560408201527131b2b4bb32b91034b6b83632b6b2b73a32b960711b606082015260800190565b60208082526031908201527f4552433732313a207472616e736665722063616c6c6572206973206e6f74206f6040820152701ddb995c881b9bdc88185c1c1c9bdd9959607a1b606082015260800190565b60008219821115611600576116006116c6565b500190565b600082611614576116146116dc565b500490565b60008282101561162b5761162b6116c6565b500390565b60005b8381101561164b578181015183820152602001611633565b838111156106cb5750506000910152565b600181811c9082168061167057607f821691505b6020821081141561169157634e487b7160e01b600052602260045260246000fd5b50919050565b60006000198214156116ab576116ab6116c6565b5060010190565b6000826116c1576116c16116dc565b500690565b634e487b7160e01b600052601160045260246000fd5b634e487b7160e01b600052601260045260246000fd5b634e487b7160e01b600052604160045260246000fd5b6001600160e01b03198116811461088b57600080fdfea2646970667358221220f771b22c3f86c0e592d06c76f9d3e6ed457a163e2f5709a409ba1e69192a684a64736f6c63430008040033",
  "linkReferences": {},
  "deployedLinkReferences": {}
}