{
  "_format": "hh-sol-artifact-1",
  "contractName": "ExchangeCore",
  "sourceName": "contracts/NFTMarketplace/Exchange/ExchangeCore.sol",
  "abi": [
    {
      "inputs": [
        {
          "internalType": "contract MintingFactory",
          "name": "_mintingFactory",
          "type": "address"
        },
        {
          "internalType": "contract IERC20",
          "name": "_weth",
          "type": "address"
        }
      ],
      "stateMutability": "nonpayable",
      "type": "constructor"
    },
    {
      "inputs": [
        {
          "internalType": "address",
          "name": "_nftContract",
          "type": "address"
        },
        {
          "internalType": "uint256",
          "name": "_tokenId",
          "type": "uint256"
        },
        {
          "internalType": "address",
          "name": "_buyer",
          "type": "address"
        },
        {
          "internalType": "address",
          "name": "_seller",
          "type": "address"
        },
        {
          "internalType": "uint256",
          "name": "_amount",
          "type": "uint256"
        }
      ],
      "name": "executeOrder",
      "outputs": [
        {
          "internalType": "address",
          "name": "newOwner",
          "type": "address"
        },
        {
          "internalType": "uint256",
          "name": "tokenId",
          "type": "uint256"
        }
      ],
      "stateMutability": "nonpayable",
      "type": "function"
    }
  ],
  "bytecode": "0x608060405234801561001057600080fd5b50604051610826380380610826833981810160405281019061003291906100e4565b816000806101000a81548173ffffffffffffffffffffffffffffffffffffffff021916908373ffffffffffffffffffffffffffffffffffffffff16021790555080600160006101000a81548173ffffffffffffffffffffffffffffffffffffffff021916908373ffffffffffffffffffffffffffffffffffffffff16021790555050506101a4565b6000815190506100c981610176565b92915050565b6000815190506100de8161018d565b92915050565b600080604083850312156100f757600080fd5b6000610105858286016100cf565b9250506020610116858286016100ba565b9150509250929050565b600061012b82610156565b9050919050565b600061013d82610120565b9050919050565b600061014f82610120565b9050919050565b600073ffffffffffffffffffffffffffffffffffffffff82169050919050565b61017f81610132565b811461018a57600080fd5b50565b61019681610144565b81146101a157600080fd5b50565b610673806101b36000396000f3fe608060405234801561001057600080fd5b506004361061002b5760003560e01c8063f018c43414610030575b600080fd5b61004a60048036038101906100459190610366565b610061565b6040516100589291906104d0565b60405180910390f35b60008082600160009054906101000a900473ffffffffffffffffffffffffffffffffffffffff1673ffffffffffffffffffffffffffffffffffffffff1663dd62ed3e87306040518363ffffffff1660e01b81526004016100c2929190610470565b60206040518083038186803b1580156100da57600080fd5b505afa1580156100ee573d6000803e3d6000fd5b505050506040513d601f19601f820116820180604052508101906101129190610406565b11610152576040517f08c379a000000000000000000000000000000000000000000000000000000000815260040161014990610530565b60405180910390fd5b600160009054906101000a900473ffffffffffffffffffffffffffffffffffffffff1673ffffffffffffffffffffffffffffffffffffffff166323b872dd8686866040518463ffffffff1660e01b81526004016101b193929190610499565b602060405180830381600087803b1580156101cb57600080fd5b505af11580156101df573d6000803e3d6000fd5b505050506040513d601f19601f8201168201806040525081019061020391906103dd565b508673ffffffffffffffffffffffffffffffffffffffff166323b872dd8587896040518463ffffffff1660e01b815260040161024193929190610499565b600060405180830381600087803b15801561025b57600080fd5b505af115801561026f573d6000803e3d6000fd5b5050505060008054906101000a900473ffffffffffffffffffffffffffffffffffffffff1673ffffffffffffffffffffffffffffffffffffffff16631bd5a5d38888886040518463ffffffff1660e01b81526004016102d0939291906104f9565b600060405180830381600087803b1580156102ea57600080fd5b505af11580156102fe573d6000803e3d6000fd5b505050508486915091509550959350505050565b600081359050610321816105f8565b92915050565b6000815190506103368161060f565b92915050565b60008135905061034b81610626565b92915050565b60008151905061036081610626565b92915050565b600080600080600060a0868803121561037e57600080fd5b600061038c88828901610312565b955050602061039d8882890161033c565b94505060406103ae88828901610312565b93505060606103bf88828901610312565b92505060806103d08882890161033c565b9150509295509295909350565b6000602082840312156103ef57600080fd5b60006103fd84828501610327565b91505092915050565b60006020828403121561041857600080fd5b600061042684828501610351565b91505092915050565b61043881610561565b82525050565b600061044b602783610550565b9150610456826105a9565b604082019050919050565b61046a8161059f565b82525050565b6000604082019050610485600083018561042f565b610492602083018461042f565b9392505050565b60006060820190506104ae600083018661042f565b6104bb602083018561042f565b6104c86040830184610461565b949350505050565b60006040820190506104e5600083018561042f565b6104f26020830184610461565b9392505050565b600060608201905061050e600083018661042f565b61051b6020830185610461565b610528604083018461042f565b949350505050565b600060208201905081810360008301526105498161043e565b9050919050565b600082825260208201905092915050565b600061056c8261057f565b9050919050565b60008115159050919050565b600073ffffffffffffffffffffffffffffffffffffffff82169050919050565b6000819050919050565b7f416c6c6f77616e6365206973206c657373207468616e20746865204e4654277360008201527f2070726963652e00000000000000000000000000000000000000000000000000602082015250565b61060181610561565b811461060c57600080fd5b50565b61061881610573565b811461062357600080fd5b50565b61062f8161059f565b811461063a57600080fd5b5056fea26469706673582212201bc1ea74472c9b1eb5a12e32a4727700736681ed411798d89f0dae0201e9aedc64736f6c63430008040033",
  "linkReferences": {},
  "deployedLinkReferences": {}
}