{
  "_format": "hh-sol-artifact-1",
  "contractName": "ExchangeCore",
  "sourceName": "contracts/NFTMarketplace/Exchange/ExchangeCore.sol",
  "abi": [
    {
      "inputs": [
        {
          "internalType": "contract IMintingFactory",
          "name": "_mintingFactory",
          "type": "address"
        },
        {
          "internalType": "contract IERC20",
          "name": "_weth",
          "type": "address"
        }
      ],
      "stateMutability": "nonpayable",
      "type": "constructor"
    },
    {
      "anonymous": false,
      "inputs": [
        {
          "indexed": true,
          "internalType": "address",
          "name": "previousOwner",
          "type": "address"
        },
        {
          "indexed": true,
          "internalType": "address",
          "name": "newOwner",
          "type": "address"
        }
      ],
      "name": "OwnershipTransferred",
      "type": "event"
    },
    {
      "anonymous": false,
      "inputs": [
        {
          "indexed": false,
          "internalType": "address",
          "name": "account",
          "type": "address"
        }
      ],
      "name": "Paused",
      "type": "event"
    },
    {
      "anonymous": false,
      "inputs": [
        {
          "indexed": false,
          "internalType": "address",
          "name": "account",
          "type": "address"
        }
      ],
      "name": "Unpaused",
      "type": "event"
    },
    {
      "inputs": [
        {
          "internalType": "address",
          "name": "_nftContract",
          "type": "address"
        },
        {
          "internalType": "uint256",
          "name": "_tokenId",
          "type": "uint256"
        },
        {
          "internalType": "address",
          "name": "_buyer",
          "type": "address"
        },
        {
          "internalType": "address",
          "name": "_seller",
          "type": "address"
        },
        {
          "internalType": "uint256",
          "name": "_amount",
          "type": "uint256"
        },
        {
          "internalType": "uint256",
          "name": "_auctionEndTime",
          "type": "uint256"
        }
      ],
      "name": "executeOrder",
      "outputs": [
        {
          "internalType": "address",
          "name": "newOwner",
          "type": "address"
        },
        {
          "internalType": "uint256",
          "name": "tokenId",
          "type": "uint256"
        }
      ],
      "stateMutability": "nonpayable",
      "type": "function"
    },
    {
      "inputs": [],
      "name": "owner",
      "outputs": [
        {
          "internalType": "address",
          "name": "",
          "type": "address"
        }
      ],
      "stateMutability": "view",
      "type": "function"
    },
    {
      "inputs": [],
      "name": "paused",
      "outputs": [
        {
          "internalType": "bool",
          "name": "",
          "type": "bool"
        }
      ],
      "stateMutability": "view",
      "type": "function"
    },
    {
      "inputs": [],
      "name": "renounceOwnership",
      "outputs": [],
      "stateMutability": "nonpayable",
      "type": "function"
    },
    {
      "inputs": [
        {
          "internalType": "address",
          "name": "newOwner",
          "type": "address"
        }
      ],
      "name": "transferOwnership",
      "outputs": [],
      "stateMutability": "nonpayable",
      "type": "function"
    }
  ],
  "bytecode": "0x608060405234801561001057600080fd5b5060405161087438038061087483398101604081905261002f916100c6565b61003833610076565b6000805460ff60a01b19169055600180546001600160a01b039384166001600160a01b03199182161790915560028054929093169116179055610117565b600080546001600160a01b038381166001600160a01b0319831681178455604051919092169283917f8be0079c531659141344cd1fd0a4f28419497f9722a3daafe3b4186f6b6457e09190a35050565b600080604083850312156100d8578182fd5b82516100e3816100ff565b60208401519092506100f4816100ff565b809150509250929050565b6001600160a01b038116811461011457600080fd5b50565b61074e806101266000396000f3fe608060405234801561001057600080fd5b50600436106100575760003560e01c80635c975abb1461005c578063715018a61461007e57806378bed526146100885780638da5cb5b146100ba578063f2fde38b146100d5575b600080fd5b600054600160a01b900460ff1660405190151581526020015b60405180910390f35b6100866100e8565b005b61009b61009636600461064d565b610127565b604080516001600160a01b039093168352602083019190915201610075565b6000546040516001600160a01b039091168152602001610075565b6100866100e336600461062c565b610322565b6000546001600160a01b0316331461011b5760405162461bcd60e51b8152600401610112906106e3565b60405180910390fd5b61012560006103bd565b565b6000805481906001600160a01b031633146101545760405162461bcd60e51b8152600401610112906106e3565b600054600160a01b900460ff16156101a15760405162461bcd60e51b815260206004820152601060248201526f14185d5cd8589b194e881c185d5cd95960821b6044820152606401610112565b6101af88888888888861040d565b6002546040516323b872dd60e01b81526001600160a01b038881166004830152878116602483015260448201879052909116906323b872dd90606401602060405180830381600087803b15801561020557600080fd5b505af1158015610219573d6000803e3d6000fd5b505050506040513d601f19601f8201168201806040525081019061023d91906106ab565b506040516323b872dd60e01b81526001600160a01b0386811660048301528781166024830152604482018990528916906323b872dd90606401600060405180830381600087803b15801561029057600080fd5b505af11580156102a4573d6000803e3d6000fd5b5050600154604051631bd5a5d360e01b81526001600160a01b038c81166004830152602482018c90528a811660448301529091169250631bd5a5d39150606401600060405180830381600087803b1580156102fe57600080fd5b505af1158015610312573d6000803e3d6000fd5b50979a9899505050505050505050565b6000546001600160a01b0316331461034c5760405162461bcd60e51b8152600401610112906106e3565b6001600160a01b0381166103b15760405162461bcd60e51b815260206004820152602660248201527f4f776e61626c653a206e6577206f776e657220697320746865207a65726f206160448201526564647265737360d01b6064820152608401610112565b6103ba816103bd565b50565b600080546001600160a01b038381166001600160a01b0319831681178455604051919092169283917f8be0079c531659141344cd1fd0a4f28419497f9722a3daafe3b4186f6b6457e09190a35050565b600254604051636eb1769f60e11b81526001600160a01b0386811660048301523060248301528492169063dd62ed3e9060440160206040518083038186803b15801561045857600080fd5b505afa15801561046c573d6000803e3d6000fd5b505050506040513d601f19601f8201168201806040525081019061049091906106cb565b116104ed5760405162461bcd60e51b815260206004820152602760248201527f416c6c6f77616e6365206973206c657373207468616e20746865204e4654277360448201526610383934b1b29760c91b6064820152608401610112565b6002546040516370a0823160e01b81526001600160a01b038681166004830152849216906370a082319060240160206040518083038186803b15801561053257600080fd5b505afa158015610546573d6000803e3d6000fd5b505050506040513d601f19601f8201168201806040525081019061056a91906106cb565b116105c35760405162461bcd60e51b815260206004820152602360248201527f427579657220646f65736e277420686176652073756666696369656e742066756044820152626e647360e81b6064820152608401610112565b4281106106085760405162461bcd60e51b815260206004820152601360248201527241756374696f6e20696e2070726f677265737360681b6044820152606401610112565b505050505050565b80356001600160a01b038116811461062757600080fd5b919050565b60006020828403121561063d578081fd5b61064682610610565b9392505050565b60008060008060008060c08789031215610665578182fd5b61066e87610610565b95506020870135945061068360408801610610565b935061069160608801610610565b92506080870135915060a087013590509295509295509295565b6000602082840312156106bc578081fd5b81518015158114610646578182fd5b6000602082840312156106dc578081fd5b5051919050565b6020808252818101527f4f776e61626c653a2063616c6c6572206973206e6f7420746865206f776e657260408201526060019056fea264697066735822122002569e08bd580614566006b41ca9bea624f6170b08b6d43ff1936bcadf3e8a7f64736f6c63430008040033",
  "linkReferences": {},
  "deployedLinkReferences": {}
}