{
  "_format": "hh-sol-artifact-1",
  "contractName": "ExchangeCore",
  "sourceName": "contracts/NFTMarketplace/Exchange/ExchangeCore.sol",
  "abi": [
    {
      "inputs": [
        {
          "internalType": "contract MintingFactory",
          "name": "_mintingFactory",
          "type": "address"
        },
        {
          "internalType": "contract IERC20",
          "name": "_weth",
          "type": "address"
        }
      ],
      "stateMutability": "nonpayable",
      "type": "constructor"
    },
    {
      "anonymous": false,
      "inputs": [
        {
          "indexed": true,
          "internalType": "address",
          "name": "previousOwner",
          "type": "address"
        },
        {
          "indexed": true,
          "internalType": "address",
          "name": "newOwner",
          "type": "address"
        }
      ],
      "name": "OwnershipTransferred",
      "type": "event"
    },
    {
      "anonymous": false,
      "inputs": [
        {
          "indexed": false,
          "internalType": "address",
          "name": "account",
          "type": "address"
        }
      ],
      "name": "Paused",
      "type": "event"
    },
    {
      "anonymous": false,
      "inputs": [
        {
          "indexed": false,
          "internalType": "address",
          "name": "account",
          "type": "address"
        }
      ],
      "name": "Unpaused",
      "type": "event"
    },
    {
      "inputs": [
        {
          "internalType": "address",
          "name": "_nftContract",
          "type": "address"
        },
        {
          "internalType": "uint256",
          "name": "_tokenId",
          "type": "uint256"
        },
        {
          "internalType": "address",
          "name": "_buyer",
          "type": "address"
        },
        {
          "internalType": "address",
          "name": "_seller",
          "type": "address"
        },
        {
          "internalType": "uint256",
          "name": "_amount",
          "type": "uint256"
        },
        {
          "internalType": "uint256",
          "name": "_auctionEndTime",
          "type": "uint256"
        }
      ],
      "name": "executeOrder",
      "outputs": [
        {
          "internalType": "address",
          "name": "newOwner",
          "type": "address"
        },
        {
          "internalType": "uint256",
          "name": "tokenId",
          "type": "uint256"
        }
      ],
      "stateMutability": "nonpayable",
      "type": "function"
    },
    {
      "inputs": [],
      "name": "owner",
      "outputs": [
        {
          "internalType": "address",
          "name": "",
          "type": "address"
        }
      ],
      "stateMutability": "view",
      "type": "function"
    },
    {
      "inputs": [],
      "name": "paused",
      "outputs": [
        {
          "internalType": "bool",
          "name": "",
          "type": "bool"
        }
      ],
      "stateMutability": "view",
      "type": "function"
    },
    {
      "inputs": [],
      "name": "renounceOwnership",
      "outputs": [],
      "stateMutability": "nonpayable",
      "type": "function"
    },
    {
      "inputs": [
        {
          "internalType": "address",
          "name": "newOwner",
          "type": "address"
        }
      ],
      "name": "transferOwnership",
      "outputs": [],
      "stateMutability": "nonpayable",
      "type": "function"
    }
  ],
  "bytecode": "0x60806040523480156200001157600080fd5b5060405162001155380380620011558339818101604052810190620000379190620001f5565b620000576200004b620000fb60201b60201c565b6200010360201b60201c565b60008060146101000a81548160ff02191690831515021790555081600160006101000a81548173ffffffffffffffffffffffffffffffffffffffff021916908373ffffffffffffffffffffffffffffffffffffffff16021790555080600260006101000a81548173ffffffffffffffffffffffffffffffffffffffff021916908373ffffffffffffffffffffffffffffffffffffffff1602179055505050620002c6565b600033905090565b60008060009054906101000a900473ffffffffffffffffffffffffffffffffffffffff169050816000806101000a81548173ffffffffffffffffffffffffffffffffffffffff021916908373ffffffffffffffffffffffffffffffffffffffff1602179055508173ffffffffffffffffffffffffffffffffffffffff168173ffffffffffffffffffffffffffffffffffffffff167f8be0079c531659141344cd1fd0a4f28419497f9722a3daafe3b4186f6b6457e060405160405180910390a35050565b600081519050620001d88162000292565b92915050565b600081519050620001ef81620002ac565b92915050565b600080604083850312156200020957600080fd5b60006200021985828601620001de565b92505060206200022c85828601620001c7565b9150509250929050565b6000620002438262000272565b9050919050565b6000620002578262000236565b9050919050565b60006200026b8262000236565b9050919050565b600073ffffffffffffffffffffffffffffffffffffffff82169050919050565b6200029d816200024a565b8114620002a957600080fd5b50565b620002b7816200025e565b8114620002c357600080fd5b50565b610e7f80620002d66000396000f3fe608060405234801561001057600080fd5b50600436106100575760003560e01c80635c975abb1461005c578063715018a61461007a57806378bed526146100845780638da5cb5b146100b5578063f2fde38b146100d3575b600080fd5b6100646100ef565b6040516100719190610b68565b60405180910390f35b610082610105565b005b61009e600480360381019061009991906108b3565b61018d565b6040516100ac929190610b08565b60405180910390f35b6100bd610425565b6040516100ca9190610a8d565b60405180910390f35b6100ed60048036038101906100e8919061088a565b61044e565b005b60008060149054906101000a900460ff16905090565b61010d610546565b73ffffffffffffffffffffffffffffffffffffffff1661012b610425565b73ffffffffffffffffffffffffffffffffffffffff1614610181576040517f08c379a000000000000000000000000000000000000000000000000000000000815260040161017890610c03565b60405180910390fd5b61018b600061054e565b565b600080610198610546565b73ffffffffffffffffffffffffffffffffffffffff166101b6610425565b73ffffffffffffffffffffffffffffffffffffffff161461020c576040517f08c379a000000000000000000000000000000000000000000000000000000000815260040161020390610c03565b60405180910390fd5b6102146100ef565b15610254576040517f08c379a000000000000000000000000000000000000000000000000000000000815260040161024b90610be3565b60405180910390fd5b610262888888888888610612565b600260009054906101000a900473ffffffffffffffffffffffffffffffffffffffff1673ffffffffffffffffffffffffffffffffffffffff166323b872dd8787876040518463ffffffff1660e01b81526004016102c193929190610ad1565b602060405180830381600087803b1580156102db57600080fd5b505af11580156102ef573d6000803e3d6000fd5b505050506040513d601f19601f82011682018060405250810190610313919061093c565b508773ffffffffffffffffffffffffffffffffffffffff166323b872dd86888a6040518463ffffffff1660e01b815260040161035193929190610ad1565b600060405180830381600087803b15801561036b57600080fd5b505af115801561037f573d6000803e3d6000fd5b50505050600160009054906101000a900473ffffffffffffffffffffffffffffffffffffffff1673ffffffffffffffffffffffffffffffffffffffff16631bd5a5d38989896040518463ffffffff1660e01b81526004016103e293929190610b31565b600060405180830381600087803b1580156103fc57600080fd5b505af1158015610410573d6000803e3d6000fd5b50505050858791509150965096945050505050565b60008060009054906101000a900473ffffffffffffffffffffffffffffffffffffffff16905090565b610456610546565b73ffffffffffffffffffffffffffffffffffffffff16610474610425565b73ffffffffffffffffffffffffffffffffffffffff16146104ca576040517f08c379a00000000000000000000000000000000000000000000000000000000081526004016104c190610c03565b60405180910390fd5b600073ffffffffffffffffffffffffffffffffffffffff168173ffffffffffffffffffffffffffffffffffffffff16141561053a576040517f08c379a000000000000000000000000000000000000000000000000000000000815260040161053190610b83565b60405180910390fd5b6105438161054e565b50565b600033905090565b60008060009054906101000a900473ffffffffffffffffffffffffffffffffffffffff169050816000806101000a81548173ffffffffffffffffffffffffffffffffffffffff021916908373ffffffffffffffffffffffffffffffffffffffff1602179055508173ffffffffffffffffffffffffffffffffffffffff168173ffffffffffffffffffffffffffffffffffffffff167f8be0079c531659141344cd1fd0a4f28419497f9722a3daafe3b4186f6b6457e060405160405180910390a35050565b81600260009054906101000a900473ffffffffffffffffffffffffffffffffffffffff1673ffffffffffffffffffffffffffffffffffffffff1663dd62ed3e86306040518363ffffffff1660e01b8152600401610670929190610aa8565b60206040518083038186803b15801561068857600080fd5b505afa15801561069c573d6000803e3d6000fd5b505050506040513d601f19601f820116820180604052508101906106c09190610965565b11610700576040517f08c379a00000000000000000000000000000000000000000000000000000000081526004016106f790610c23565b60405180910390fd5b81600260009054906101000a900473ffffffffffffffffffffffffffffffffffffffff1673ffffffffffffffffffffffffffffffffffffffff166370a08231866040518263ffffffff1660e01b815260040161075c9190610a8d565b60206040518083038186803b15801561077457600080fd5b505afa158015610788573d6000803e3d6000fd5b505050506040513d601f19601f820116820180604052508101906107ac9190610965565b116107ec576040517f08c379a00000000000000000000000000000000000000000000000000000000081526004016107e390610ba3565b60405180910390fd5b42811061082e576040517f08c379a000000000000000000000000000000000000000000000000000000000815260040161082590610bc3565b60405180910390fd5b505050505050565b60008135905061084581610e04565b92915050565b60008151905061085a81610e1b565b92915050565b60008135905061086f81610e32565b92915050565b60008151905061088481610e32565b92915050565b60006020828403121561089c57600080fd5b60006108aa84828501610836565b91505092915050565b60008060008060008060c087890312156108cc57600080fd5b60006108da89828a01610836565b96505060206108eb89828a01610860565b95505060406108fc89828a01610836565b945050606061090d89828a01610836565b935050608061091e89828a01610860565b92505060a061092f89828a01610860565b9150509295509295509295565b60006020828403121561094e57600080fd5b600061095c8482850161084b565b91505092915050565b60006020828403121561097757600080fd5b600061098584828501610875565b91505092915050565b61099781610c54565b82525050565b6109a681610c66565b82525050565b60006109b9602683610c43565b91506109c482610c9c565b604082019050919050565b60006109dc602383610c43565b91506109e782610ceb565b604082019050919050565b60006109ff601383610c43565b9150610a0a82610d3a565b602082019050919050565b6000610a22601083610c43565b9150610a2d82610d63565b602082019050919050565b6000610a45602083610c43565b9150610a5082610d8c565b602082019050919050565b6000610a68602783610c43565b9150610a7382610db5565b604082019050919050565b610a8781610c92565b82525050565b6000602082019050610aa2600083018461098e565b92915050565b6000604082019050610abd600083018561098e565b610aca602083018461098e565b9392505050565b6000606082019050610ae6600083018661098e565b610af3602083018561098e565b610b006040830184610a7e565b949350505050565b6000604082019050610b1d600083018561098e565b610b2a6020830184610a7e565b9392505050565b6000606082019050610b46600083018661098e565b610b536020830185610a7e565b610b60604083018461098e565b949350505050565b6000602082019050610b7d600083018461099d565b92915050565b60006020820190508181036000830152610b9c816109ac565b9050919050565b60006020820190508181036000830152610bbc816109cf565b9050919050565b60006020820190508181036000830152610bdc816109f2565b9050919050565b60006020820190508181036000830152610bfc81610a15565b9050919050565b60006020820190508181036000830152610c1c81610a38565b9050919050565b60006020820190508181036000830152610c3c81610a5b565b9050919050565b600082825260208201905092915050565b6000610c5f82610c72565b9050919050565b60008115159050919050565b600073ffffffffffffffffffffffffffffffffffffffff82169050919050565b6000819050919050565b7f4f776e61626c653a206e6577206f776e657220697320746865207a65726f206160008201527f6464726573730000000000000000000000000000000000000000000000000000602082015250565b7f427579657220646f65736e277420686176652073756666696369656e7420667560008201527f6e64730000000000000000000000000000000000000000000000000000000000602082015250565b7f41756374696f6e20696e2070726f677265737300000000000000000000000000600082015250565b7f5061757361626c653a2070617573656400000000000000000000000000000000600082015250565b7f4f776e61626c653a2063616c6c6572206973206e6f7420746865206f776e6572600082015250565b7f416c6c6f77616e6365206973206c657373207468616e20746865204e4654277360008201527f2070726963652e00000000000000000000000000000000000000000000000000602082015250565b610e0d81610c54565b8114610e1857600080fd5b50565b610e2481610c66565b8114610e2f57600080fd5b50565b610e3b81610c92565b8114610e4657600080fd5b5056fea26469706673582212200088f3b1b7a7fa496ea202282f15d4abae48e47e79b505b5629aae0b3a231a1e64736f6c63430008040033",
  "linkReferences": {},
  "deployedLinkReferences": {}
}