{
  "_format": "hh-sol-artifact-1",
  "contractName": "FinAxis",
  "sourceName": "contracts/FinAxis.sol",
  "abi": [
    {
      "inputs": [],
      "stateMutability": "nonpayable",
      "type": "constructor"
    },
    {
      "anonymous": false,
      "inputs": [
        {
          "indexed": true,
          "internalType": "address",
          "name": "owner",
          "type": "address"
        },
        {
          "indexed": true,
          "internalType": "address",
          "name": "spender",
          "type": "address"
        },
        {
          "indexed": false,
          "internalType": "uint256",
          "name": "value",
          "type": "uint256"
        }
      ],
      "name": "Approval",
      "type": "event"
    },
    {
      "anonymous": false,
      "inputs": [
        {
          "indexed": true,
          "internalType": "address",
          "name": "from",
          "type": "address"
        },
        {
          "indexed": true,
          "internalType": "address",
          "name": "to",
          "type": "address"
        },
        {
          "indexed": false,
          "internalType": "uint256",
          "name": "value",
          "type": "uint256"
        }
      ],
      "name": "Transfer",
      "type": "event"
    },
    {
      "inputs": [],
      "name": "_owner",
      "outputs": [
        {
          "internalType": "address",
          "name": "",
          "type": "address"
        }
      ],
      "stateMutability": "view",
      "type": "function"
    },
    {
      "inputs": [
        {
          "internalType": "address",
          "name": "owner",
          "type": "address"
        },
        {
          "internalType": "address",
          "name": "spender",
          "type": "address"
        }
      ],
      "name": "allowance",
      "outputs": [
        {
          "internalType": "uint256",
          "name": "",
          "type": "uint256"
        }
      ],
      "stateMutability": "view",
      "type": "function"
    },
    {
      "inputs": [
        {
          "internalType": "address",
          "name": "spender",
          "type": "address"
        },
        {
          "internalType": "uint256",
          "name": "amount",
          "type": "uint256"
        }
      ],
      "name": "approve",
      "outputs": [
        {
          "internalType": "bool",
          "name": "",
          "type": "bool"
        }
      ],
      "stateMutability": "nonpayable",
      "type": "function"
    },
    {
      "inputs": [
        {
          "internalType": "address",
          "name": "account",
          "type": "address"
        }
      ],
      "name": "balanceOf",
      "outputs": [
        {
          "internalType": "uint256",
          "name": "",
          "type": "uint256"
        }
      ],
      "stateMutability": "view",
      "type": "function"
    },
    {
      "inputs": [
        {
          "internalType": "uint256",
          "name": "amount",
          "type": "uint256"
        }
      ],
      "name": "burn",
      "outputs": [],
      "stateMutability": "nonpayable",
      "type": "function"
    },
    {
      "inputs": [],
      "name": "decimals",
      "outputs": [
        {
          "internalType": "uint8",
          "name": "",
          "type": "uint8"
        }
      ],
      "stateMutability": "view",
      "type": "function"
    },
    {
      "inputs": [
        {
          "internalType": "uint256",
          "name": "amount",
          "type": "uint256"
        }
      ],
      "name": "mint",
      "outputs": [],
      "stateMutability": "nonpayable",
      "type": "function"
    },
    {
      "inputs": [],
      "name": "name",
      "outputs": [
        {
          "internalType": "string",
          "name": "",
          "type": "string"
        }
      ],
      "stateMutability": "view",
      "type": "function"
    },
    {
      "inputs": [],
      "name": "symbol",
      "outputs": [
        {
          "internalType": "string",
          "name": "",
          "type": "string"
        }
      ],
      "stateMutability": "view",
      "type": "function"
    },
    {
      "inputs": [],
      "name": "totalSupply",
      "outputs": [
        {
          "internalType": "uint256",
          "name": "",
          "type": "uint256"
        }
      ],
      "stateMutability": "view",
      "type": "function"
    },
    {
      "inputs": [
        {
          "internalType": "address",
          "name": "recipient",
          "type": "address"
        },
        {
          "internalType": "uint256",
          "name": "amount",
          "type": "uint256"
        }
      ],
      "name": "transfer",
      "outputs": [
        {
          "internalType": "bool",
          "name": "",
          "type": "bool"
        }
      ],
      "stateMutability": "nonpayable",
      "type": "function"
    },
    {
      "inputs": [
        {
          "internalType": "address",
          "name": "sender",
          "type": "address"
        },
        {
          "internalType": "address",
          "name": "recipient",
          "type": "address"
        },
        {
          "internalType": "uint256",
          "name": "amount",
          "type": "uint256"
        }
      ],
      "name": "transferFrom",
      "outputs": [
        {
          "internalType": "bool",
          "name": "",
          "type": "bool"
        }
      ],
      "stateMutability": "nonpayable",
      "type": "function"
    }
  ],
  "bytecode": "0x60c0604052600760808190526646696e4178697360c81b60a090815261002891600391906100a9565b506040805180820190915260048082526346494e4160e01b602090920191825261005291816100a9565b506a115eec47f6cf7e350000006005556006805460ff1916601217905534801561007b57600080fd5b50600280546001600160a01b031916339081179091556005546000918252602082905260409091205561017d565b8280546100b590610142565b90600052602060002090601f0160209004810192826100d7576000855561011d565b82601f106100f057805160ff191683800117855561011d565b8280016001018555821561011d579182015b8281111561011d578251825591602001919060010190610102565b5061012992915061012d565b5090565b5b80821115610129576000815560010161012e565b600181811c9082168061015657607f821691505b6020821081141561017757634e487b7160e01b600052602260045260246000fd5b50919050565b610b7f806200018d6000396000f3fe608060405234801561001057600080fd5b50600436106100b45760003560e01c806370a082311161007157806370a082311461014957806395d89b4114610172578063a0712d681461017a578063a9059cbb1461018d578063b2bdfa7b146101a0578063dd62ed3e146101cb57600080fd5b806306fdde03146100b9578063095ea7b3146100d757806318160ddd146100fa57806323b872dd1461010c578063313ce5671461011f57806342966c6814610134575b600080fd5b6100c1610204565b6040516100ce9190610a76565b60405180910390f35b6100ea6100e5366004610a35565b610296565b60405190151581526020016100ce565b6005545b6040519081526020016100ce565b6100ea61011a3660046109fa565b6102ac565b60065460405160ff90911681526020016100ce565b610147610142366004610a5e565b61035b565b005b6100fe6101573660046109a7565b6001600160a01b031660009081526020819052604090205490565b6100c16103da565b610147610188366004610a5e565b6103e9565b6100ea61019b366004610a35565b610465565b6002546101b3906001600160a01b031681565b6040516001600160a01b0390911681526020016100ce565b6100fe6101d93660046109c8565b6001600160a01b03918216600090815260016020908152604080832093909416825291909152205490565b60606003805461021390610af8565b80601f016020809104026020016040519081016040528092919081815260200182805461023f90610af8565b801561028c5780601f106102615761010080835404028352916020019161028c565b820191906000526020600020905b81548152906001019060200180831161026f57829003601f168201915b5050505050905090565b60006102a3338484610472565b50600192915050565b60006102b9848484610597565b6001600160a01b0384166000908152600160209081526040808320338452909152902054828110156103435760405162461bcd60e51b815260206004820152602860248201527f45524332303a207472616e7366657220616d6f756e74206578636565647320616044820152676c6c6f77616e636560c01b60648201526084015b60405180910390fd5b6103508533858403610472565b506001949350505050565b6002546001600160a01b031633146103c15760405162461bcd60e51b815260206004820152602360248201527f596f7520617265206e6f7420617574686f72697a656420746f206275726e2046604482015262494e4160e81b606482015260840161033a565b6002546103d7906001600160a01b031682610766565b50565b60606004805461021390610af8565b6002546001600160a01b0316331461044f5760405162461bcd60e51b815260206004820152602360248201527f596f7520617265206e6f7420617574686f72697a656420746f206d696e742046604482015262494e4160e81b606482015260840161033a565b6002546103d7906001600160a01b0316826108ac565b60006102a3338484610597565b6001600160a01b0383166104d45760405162461bcd60e51b8152602060048201526024808201527f45524332303a20617070726f76652066726f6d20746865207a65726f206164646044820152637265737360e01b606482015260840161033a565b6001600160a01b0382166105355760405162461bcd60e51b815260206004820152602260248201527f45524332303a20617070726f766520746f20746865207a65726f206164647265604482015261737360f01b606482015260840161033a565b6001600160a01b0383811660008181526001602090815260408083209487168084529482529182902085905590518481527f8c5be1e5ebec7d5bd14f71427d1e84f3dd0314c0f7b2291e5b200ac8c7c3b92591015b60405180910390a3505050565b6001600160a01b0383166105fb5760405162461bcd60e51b815260206004820152602560248201527f45524332303a207472616e736665722066726f6d20746865207a65726f206164604482015264647265737360d81b606482015260840161033a565b6001600160a01b03821661065d5760405162461bcd60e51b815260206004820152602360248201527f45524332303a207472616e7366657220746f20746865207a65726f206164647260448201526265737360e81b606482015260840161033a565b6001600160a01b038316600090815260208190526040902054818110156106d55760405162461bcd60e51b815260206004820152602660248201527f45524332303a207472616e7366657220616d6f756e7420657863656564732062604482015265616c616e636560d01b606482015260840161033a565b6001600160a01b0380851660009081526020819052604080822085850390559185168152908120805484929061070c908490610ac9565b92505081905550826001600160a01b0316846001600160a01b03167fddf252ad1be2c89b69c2b068fc378daa952ba7f163c4a11628f55a4df523b3ef8460405161075891815260200190565b60405180910390a350505050565b6001600160a01b0382166107c65760405162461bcd60e51b815260206004820152602160248201527f45524332303a206275726e2066726f6d20746865207a65726f206164647265736044820152607360f81b606482015260840161033a565b6001600160a01b0382166000908152602081905260409020548181101561083a5760405162461bcd60e51b815260206004820152602260248201527f45524332303a206275726e20616d6f756e7420657863656564732062616c616e604482015261636560f01b606482015260840161033a565b6001600160a01b0383166000908152602081905260408120838303905560058054849290610869908490610ae1565b90915550506040518281526000906001600160a01b038516907fddf252ad1be2c89b69c2b068fc378daa952ba7f163c4a11628f55a4df523b3ef9060200161058a565b6001600160a01b0382166109025760405162461bcd60e51b815260206004820152601f60248201527f45524332303a206d696e7420746f20746865207a65726f206164647265737300604482015260640161033a565b80600560008282546109149190610ac9565b90915550506001600160a01b03821660009081526020819052604081208054839290610941908490610ac9565b90915550506040518181526001600160a01b038316906000907fddf252ad1be2c89b69c2b068fc378daa952ba7f163c4a11628f55a4df523b3ef9060200160405180910390a35050565b80356001600160a01b03811681146109a257600080fd5b919050565b6000602082840312156109b8578081fd5b6109c18261098b565b9392505050565b600080604083850312156109da578081fd5b6109e38361098b565b91506109f16020840161098b565b90509250929050565b600080600060608486031215610a0e578081fd5b610a178461098b565b9250610a256020850161098b565b9150604084013590509250925092565b60008060408385031215610a47578182fd5b610a508361098b565b946020939093013593505050565b600060208284031215610a6f578081fd5b5035919050565b6000602080835283518082850152825b81811015610aa257858101830151858201604001528201610a86565b81811115610ab35783604083870101525b50601f01601f1916929092016040019392505050565b60008219821115610adc57610adc610b33565b500190565b600082821015610af357610af3610b33565b500390565b600181811c90821680610b0c57607f821691505b60208210811415610b2d57634e487b7160e01b600052602260045260246000fd5b50919050565b634e487b7160e01b600052601160045260246000fdfea2646970667358221220c8d7c2e2826dd112b4ef5f6aa1bdcaf891afa6fb4149fc9dfbc1de09e088566964736f6c63430008040033",
  "linkReferences": {},
  "deployedLinkReferences": {}
}