{
  "_format": "hh-sol-artifact-1",
  "contractName": "Enoch",
  "sourceName": "contracts/Enoch.sol",
  "abi": [
    {
      "inputs": [],
      "stateMutability": "nonpayable",
      "type": "constructor"
    },
    {
      "anonymous": false,
      "inputs": [
        {
          "indexed": true,
          "internalType": "address",
          "name": "owner",
          "type": "address"
        },
        {
          "indexed": true,
          "internalType": "address",
          "name": "spender",
          "type": "address"
        },
        {
          "indexed": false,
          "internalType": "uint256",
          "name": "value",
          "type": "uint256"
        }
      ],
      "name": "Approval",
      "type": "event"
    },
    {
      "anonymous": false,
      "inputs": [
        {
          "indexed": true,
          "internalType": "address",
          "name": "from",
          "type": "address"
        },
        {
          "indexed": true,
          "internalType": "address",
          "name": "to",
          "type": "address"
        },
        {
          "indexed": false,
          "internalType": "uint256",
          "name": "value",
          "type": "uint256"
        }
      ],
      "name": "Transfer",
      "type": "event"
    },
    {
      "inputs": [],
      "name": "_owner",
      "outputs": [
        {
          "internalType": "address",
          "name": "",
          "type": "address"
        }
      ],
      "stateMutability": "view",
      "type": "function"
    },
    {
      "inputs": [
        {
          "internalType": "address",
          "name": "owner",
          "type": "address"
        },
        {
          "internalType": "address",
          "name": "spender",
          "type": "address"
        }
      ],
      "name": "allowance",
      "outputs": [
        {
          "internalType": "uint256",
          "name": "",
          "type": "uint256"
        }
      ],
      "stateMutability": "view",
      "type": "function"
    },
    {
      "inputs": [
        {
          "internalType": "address",
          "name": "spender",
          "type": "address"
        },
        {
          "internalType": "uint256",
          "name": "amount",
          "type": "uint256"
        }
      ],
      "name": "approve",
      "outputs": [
        {
          "internalType": "bool",
          "name": "",
          "type": "bool"
        }
      ],
      "stateMutability": "nonpayable",
      "type": "function"
    },
    {
      "inputs": [
        {
          "internalType": "address",
          "name": "account",
          "type": "address"
        }
      ],
      "name": "balanceOf",
      "outputs": [
        {
          "internalType": "uint256",
          "name": "",
          "type": "uint256"
        }
      ],
      "stateMutability": "view",
      "type": "function"
    },
    {
      "inputs": [
        {
          "internalType": "address",
          "name": "account",
          "type": "address"
        },
        {
          "internalType": "uint256",
          "name": "amount",
          "type": "uint256"
        }
      ],
      "name": "burn",
      "outputs": [],
      "stateMutability": "nonpayable",
      "type": "function"
    },
    {
      "inputs": [],
      "name": "decimals",
      "outputs": [
        {
          "internalType": "uint8",
          "name": "",
          "type": "uint8"
        }
      ],
      "stateMutability": "view",
      "type": "function"
    },
    {
      "inputs": [
        {
          "internalType": "address",
          "name": "account",
          "type": "address"
        },
        {
          "internalType": "uint256",
          "name": "amount",
          "type": "uint256"
        }
      ],
      "name": "mint",
      "outputs": [],
      "stateMutability": "nonpayable",
      "type": "function"
    },
    {
      "inputs": [],
      "name": "name",
      "outputs": [
        {
          "internalType": "string",
          "name": "",
          "type": "string"
        }
      ],
      "stateMutability": "view",
      "type": "function"
    },
    {
      "inputs": [],
      "name": "symbol",
      "outputs": [
        {
          "internalType": "string",
          "name": "",
          "type": "string"
        }
      ],
      "stateMutability": "view",
      "type": "function"
    },
    {
      "inputs": [],
      "name": "totalSupply",
      "outputs": [
        {
          "internalType": "uint256",
          "name": "",
          "type": "uint256"
        }
      ],
      "stateMutability": "view",
      "type": "function"
    },
    {
      "inputs": [
        {
          "internalType": "address",
          "name": "recipient",
          "type": "address"
        },
        {
          "internalType": "uint256",
          "name": "amount",
          "type": "uint256"
        }
      ],
      "name": "transfer",
      "outputs": [
        {
          "internalType": "bool",
          "name": "",
          "type": "bool"
        }
      ],
      "stateMutability": "nonpayable",
      "type": "function"
    },
    {
      "inputs": [
        {
          "internalType": "address",
          "name": "sender",
          "type": "address"
        },
        {
          "internalType": "address",
          "name": "recipient",
          "type": "address"
        },
        {
          "internalType": "uint256",
          "name": "amount",
          "type": "uint256"
        }
      ],
      "name": "transferFrom",
      "outputs": [
        {
          "internalType": "bool",
          "name": "",
          "type": "bool"
        }
      ],
      "stateMutability": "nonpayable",
      "type": "function"
    }
  ],
  "bytecode": "0x60c0604052600560808190526408a9c9e86960db1b60a090815261002691600391906100aa565b506040805180820190915260058082526408a9c9e86960db1b6020909201918252610053916004916100aa565b506a04f68ca6d8cd91c60000006005556006805460ff1916601217905534801561007c57600080fd5b50600280546001600160a01b031916339081179091556005546000918252602082905260409091205561017e565b8280546100b690610143565b90600052602060002090601f0160209004810192826100d8576000855561011e565b82601f106100f157805160ff191683800117855561011e565b8280016001018555821561011e579182015b8281111561011e578251825591602001919060010190610103565b5061012a92915061012e565b5090565b5b8082111561012a576000815560010161012f565b600181811c9082168061015757607f821691505b6020821081141561017857634e487b7160e01b600052602260045260246000fd5b50919050565b610b508061018d6000396000f3fe608060405234801561001057600080fd5b50600436106100b45760003560e01c806370a082311161007157806370a082311461014957806395d89b41146101725780639dc29fac1461017a578063a9059cbb1461018d578063b2bdfa7b146101a0578063dd62ed3e146101cb57600080fd5b806306fdde03146100b9578063095ea7b3146100d757806318160ddd146100fa57806323b872dd1461010c578063313ce5671461011f57806340c10f1914610134575b600080fd5b6100c1610204565b6040516100ce9190610a47565b60405180910390f35b6100ea6100e5366004610a1e565b610296565b60405190151581526020016100ce565b6005545b6040519081526020016100ce565b6100ea61011a3660046109e3565b6102ac565b60065460405160ff90911681526020016100ce565b610147610142366004610a1e565b61035b565b005b6100fe610157366004610990565b6001600160a01b031660009081526020819052604090205490565b6100c16103cf565b610147610188366004610a1e565b6103de565b6100ea61019b366004610a1e565b61044e565b6002546101b3906001600160a01b031681565b6040516001600160a01b0390911681526020016100ce565b6100fe6101d93660046109b1565b6001600160a01b03918216600090815260016020908152604080832093909416825291909152205490565b60606003805461021390610ac9565b80601f016020809104026020016040519081016040528092919081815260200182805461023f90610ac9565b801561028c5780601f106102615761010080835404028352916020019161028c565b820191906000526020600020905b81548152906001019060200180831161026f57829003601f168201915b5050505050905090565b60006102a333848461045b565b50600192915050565b60006102b9848484610580565b6001600160a01b0384166000908152600160209081526040808320338452909152902054828110156103435760405162461bcd60e51b815260206004820152602860248201527f45524332303a207472616e7366657220616d6f756e74206578636565647320616044820152676c6c6f77616e636560c01b60648201526084015b60405180910390fd5b610350853385840361045b565b506001949350505050565b6002546001600160a01b031633146103c15760405162461bcd60e51b815260206004820152602360248201527f596f7520617265206e6f7420617574686f72697a656420746f206d696e742046604482015262494e4160e81b606482015260840161033a565b6103cb828261074f565b5050565b60606004805461021390610ac9565b6002546001600160a01b031633146104445760405162461bcd60e51b815260206004820152602360248201527f596f7520617265206e6f7420617574686f72697a656420746f206275726e2046604482015262494e4160e81b606482015260840161033a565b6103cb828261082e565b60006102a3338484610580565b6001600160a01b0383166104bd5760405162461bcd60e51b8152602060048201526024808201527f45524332303a20617070726f76652066726f6d20746865207a65726f206164646044820152637265737360e01b606482015260840161033a565b6001600160a01b03821661051e5760405162461bcd60e51b815260206004820152602260248201527f45524332303a20617070726f766520746f20746865207a65726f206164647265604482015261737360f01b606482015260840161033a565b6001600160a01b0383811660008181526001602090815260408083209487168084529482529182902085905590518481527f8c5be1e5ebec7d5bd14f71427d1e84f3dd0314c0f7b2291e5b200ac8c7c3b92591015b60405180910390a3505050565b6001600160a01b0383166105e45760405162461bcd60e51b815260206004820152602560248201527f45524332303a207472616e736665722066726f6d20746865207a65726f206164604482015264647265737360d81b606482015260840161033a565b6001600160a01b0382166106465760405162461bcd60e51b815260206004820152602360248201527f45524332303a207472616e7366657220746f20746865207a65726f206164647260448201526265737360e81b606482015260840161033a565b6001600160a01b038316600090815260208190526040902054818110156106be5760405162461bcd60e51b815260206004820152602660248201527f45524332303a207472616e7366657220616d6f756e7420657863656564732062604482015265616c616e636560d01b606482015260840161033a565b6001600160a01b038085166000908152602081905260408082208585039055918516815290812080548492906106f5908490610a9a565b92505081905550826001600160a01b0316846001600160a01b03167fddf252ad1be2c89b69c2b068fc378daa952ba7f163c4a11628f55a4df523b3ef8460405161074191815260200190565b60405180910390a350505050565b6001600160a01b0382166107a55760405162461bcd60e51b815260206004820152601f60248201527f45524332303a206d696e7420746f20746865207a65726f206164647265737300604482015260640161033a565b80600560008282546107b79190610a9a565b90915550506001600160a01b038216600090815260208190526040812080548392906107e4908490610a9a565b90915550506040518181526001600160a01b038316906000907fddf252ad1be2c89b69c2b068fc378daa952ba7f163c4a11628f55a4df523b3ef9060200160405180910390a35050565b6001600160a01b03821661088e5760405162461bcd60e51b815260206004820152602160248201527f45524332303a206275726e2066726f6d20746865207a65726f206164647265736044820152607360f81b606482015260840161033a565b6001600160a01b038216600090815260208190526040902054818110156109025760405162461bcd60e51b815260206004820152602260248201527f45524332303a206275726e20616d6f756e7420657863656564732062616c616e604482015261636560f01b606482015260840161033a565b6001600160a01b0383166000908152602081905260408120838303905560058054849290610931908490610ab2565b90915550506040518281526000906001600160a01b038516907fddf252ad1be2c89b69c2b068fc378daa952ba7f163c4a11628f55a4df523b3ef90602001610573565b80356001600160a01b038116811461098b57600080fd5b919050565b6000602082840312156109a1578081fd5b6109aa82610974565b9392505050565b600080604083850312156109c3578081fd5b6109cc83610974565b91506109da60208401610974565b90509250929050565b6000806000606084860312156109f7578081fd5b610a0084610974565b9250610a0e60208501610974565b9150604084013590509250925092565b60008060408385031215610a30578182fd5b610a3983610974565b946020939093013593505050565b6000602080835283518082850152825b81811015610a7357858101830151858201604001528201610a57565b81811115610a845783604083870101525b50601f01601f1916929092016040019392505050565b60008219821115610aad57610aad610b04565b500190565b600082821015610ac457610ac4610b04565b500390565b600181811c90821680610add57607f821691505b60208210811415610afe57634e487b7160e01b600052602260045260246000fd5b50919050565b634e487b7160e01b600052601160045260246000fdfea26469706673582212200a37814574106cd990061d28cbf4ec77875e9c3fee453e0087b9a2dcf70084c764736f6c63430008040033",
  "linkReferences": {},
  "deployedLinkReferences": {}
}